{
  "contractName": "Bets",
  "abi": [
    {
      "constant": false,
      "inputs": [
        {
          "internalType": "uint256",
          "name": "_guess",
          "type": "uint256"
        }
      ],
      "name": "createBet",
      "outputs": [],
      "payable": true,
      "stateMutability": "payable",
      "type": "function"
    },
    {
      "constant": false,
      "inputs": [
        {
          "internalType": "uint256",
          "name": "_guess",
          "type": "uint256"
        }
      ],
      "name": "takeBet",
      "outputs": [],
      "payable": true,
      "stateMutability": "payable",
      "type": "function"
    },
    {
      "constant": false,
      "inputs": [],
      "name": "payout",
      "outputs": [],
      "payable": true,
      "stateMutability": "payable",
      "type": "function"
    },
    {
      "constant": true,
      "inputs": [],
      "name": "getBetAmount",
      "outputs": [
        {
          "internalType": "uint256",
          "name": "",
          "type": "uint256"
        }
      ],
      "payable": false,
      "stateMutability": "view",
      "type": "function"
    },
    {
      "constant": true,
      "inputs": [],
      "name": "getOriginatorGuess",
      "outputs": [
        {
          "internalType": "uint256",
          "name": "",
          "type": "uint256"
        }
      ],
      "payable": false,
      "stateMutability": "view",
      "type": "function"
    },
    {
      "constant": true,
      "inputs": [],
      "name": "getTakerGuess",
      "outputs": [
        {
          "internalType": "uint256",
          "name": "",
          "type": "uint256"
        }
      ],
      "payable": false,
      "stateMutability": "view",
      "type": "function"
    },
    {
      "constant": true,
      "inputs": [],
      "name": "getPot",
      "outputs": [
        {
          "internalType": "uint256",
          "name": "",
          "type": "uint256"
        }
      ],
      "payable": false,
      "stateMutability": "view",
      "type": "function"
    },
    {
      "constant": true,
      "inputs": [],
      "name": "getBetOutcome",
      "outputs": [
        {
          "internalType": "string",
          "name": "description",
          "type": "string"
        },
        {
          "internalType": "string",
          "name": "originatorKey",
          "type": "string"
        },
        {
          "internalType": "uint256",
          "name": "originatorStatus",
          "type": "uint256"
        },
        {
          "internalType": "string",
          "name": "takerKey",
          "type": "string"
        },
        {
          "internalType": "uint256",
          "name": "takerStatus",
          "type": "uint256"
        }
      ],
      "payable": false,
      "stateMutability": "view",
      "type": "function"
    }
  ],
  "bytecode": "0x608060405234801561001057600080fd5b50610dfb806100206000396000f3fe60806040526004361061007b5760003560e01c8063c2bea1591161004e578063c2bea1591461010e578063c511a07414610284578063e7871098146102b2578063fde41e29146102dd5761007b565b80630c4fb5fb14610080578063403c9fa8146100ab57806363bd1d4a146100d6578063ac793a60146100e0575b600080fd5b34801561008c57600080fd5b50610095610308565b6040518082815260200191505060405180910390f35b3480156100b757600080fd5b506100c0610321565b6040518082815260200191505060405180910390f35b6100de610349565b005b61010c600480360360208110156100f657600080fd5b8101908080359060200190929190505050610665565b005b34801561011a57600080fd5b50610123610878565b60405180806020018060200186815260200180602001858152602001848103845289818151815260200191508051906020019080838360005b8381101561017757808201518184015260208101905061015c565b50505050905090810190601f1680156101a45780820380516001836020036101000a031916815260200191505b50848103835288818151815260200191508051906020019080838360005b838110156101dd5780820151818401526020810190506101c2565b50505050905090810190601f16801561020a5780820380516001836020036101000a031916815260200191505b50848103825286818151815260200191508051906020019080838360005b83811015610243578082015181840152602081019050610228565b50505050905090810190601f1680156102705780820380516001836020036101000a031916815260200191505b509850505050505050505060405180910390f35b6102b06004803603602081101561029a57600080fd5b81019080803590602001909291905050506109ef565b005b3480156102be57600080fd5b506102c7610a9f565b6040518082815260200191505060405180910390f35b3480156102e957600080fd5b506102f2610ab8565b6040518082815260200191505060405180910390f35b600061031333610acd565b600060060160000154905090565b600061032c33610acd565b3073ffffffffffffffffffffffffffffffffffffffff1631905090565b61035233610acd565b600360006003016002015414801561037257506003600060060160020154145b1561046257600060030160010160009054906101000a900473ffffffffffffffffffffffffffffffffffffffff1673ffffffffffffffffffffffffffffffffffffffff166108fc60008001549081150290604051600060405180830381858888f193505050501580156103e9573d6000803e3d6000fd5b50600060060160010160009054906101000a900473ffffffffffffffffffffffffffffffffffffffff1673ffffffffffffffffffffffffffffffffffffffff166108fc60008001549081150290604051600060405180830381858888f1935050505015801561045c573d6000803e3d6000fd5b50610663565b600160006003016002015414156104ee57600060030160010160009054906101000a900473ffffffffffffffffffffffffffffffffffffffff1673ffffffffffffffffffffffffffffffffffffffff166108fc60026000800154029081150290604051600060405180830381858888f193505050501580156104e8573d6000803e3d6000fd5b50610662565b6001600060060160020154141561057a57600060060160010160009054906101000a900473ffffffffffffffffffffffffffffffffffffffff1673ffffffffffffffffffffffffffffffffffffffff166108fc60026000800154029081150290604051600060405180830381858888f19350505050158015610574573d6000803e3d6000fd5b50610661565b600060030160010160009054906101000a900473ffffffffffffffffffffffffffffffffffffffff1673ffffffffffffffffffffffffffffffffffffffff166108fc60008001549081150290604051600060405180830381858888f193505050501580156105ec573d6000803e3d6000fd5b50600060060160010160009054906101000a900473ffffffffffffffffffffffffffffffffffffffff1673ffffffffffffffffffffffffffffffffffffffff166108fc60008001549081150290604051600060405180830381858888f1935050505015801561065f573d6000803e3d6000fd5b505b5b5b565b6040518060a00160405280348152602001600081526020016002815260200160405180606001604052808481526020013373ffffffffffffffffffffffffffffffffffffffff16815260200160048152508152602001604051806060016040528060008152602001600073ffffffffffffffffffffffffffffffffffffffff1681526020016001815250815250600080820151816000015560208201518160010155604082015181600201556060820151816003016000820151816000015560208201518160010160006101000a81548173ffffffffffffffffffffffffffffffffffffffff021916908373ffffffffffffffffffffffffffffffffffffffff1602179055506040820151816002015550506080820151816006016000820151816000015560208201518160010160006101000a81548173ffffffffffffffffffffffffffffffffffffffff021916908373ffffffffffffffffffffffffffffffffffffffff16021790555060408201518160020155505090505060405180606001604052808281526020013373ffffffffffffffffffffffffffffffffffffffff168152602001600481525060006003016000820151816000015560208201518160010160006101000a81548173ffffffffffffffffffffffffffffffffffffffff021916908373ffffffffffffffffffffffffffffffffffffffff1602179055506040820151816002015590505050565b606080600060606000600360006003016002015414806108a057506003600060060160020154145b156108c557604051806080016040528060468152602001610d81604691399450610962565b600160006003016002015414156108f657604051806080016040528060468152602001610cfa604691399450610961565b6001600060060160020154141561092757604051806080016040528060418152602001610d40604191399450610960565b6040518060400160405280601381526020017f556e6b6e6f776e20426574204f7574636f6d650000000000000000000000000081525094505b5b5b6040518060400160405280600a81526020017f6f726967696e61746f7200000000000000000000000000000000000000000000815250935060006003016002015492506040518060400160405280600581526020017f74616b6572000000000000000000000000000000000000000000000000000000815250915060006006016002015490509091929394565b600080015434146109ff57600080fd5b60405180606001604052808281526020013373ffffffffffffffffffffffffffffffffffffffff168152602001600481525060006006016000820151816000015560208201518160010160006101000a81548173ffffffffffffffffffffffffffffffffffffffff021916908373ffffffffffffffffffffffffffffffffffffffff16021790555060408201518160020155905050610a9c610b8e565b50565b6000610aaa33610acd565b600060030160000154905090565b6000610ac333610acd565b6000800154905090565b600060030160010160009054906101000a900473ffffffffffffffffffffffffffffffffffffffff1673ffffffffffffffffffffffffffffffffffffffff168173ffffffffffffffffffffffffffffffffffffffff161480610b825750600060060160010160009054906101000a900473ffffffffffffffffffffffffffffffffffffffff1673ffffffffffffffffffffffffffffffffffffffff168173ffffffffffffffffffffffffffffffffffffffff16145b610b8b57600080fd5b50565b6001600a600143034060001c81610ba157fe5b060160006001018190555060036000600201819055506000600601600001546000600301600001541415610bf05760036000600301600201819055506003600060060160020181905550610cf7565b600060010154600060030160000154118015610c185750600060010154600060060160000154115b15610c3e5760036000600301600201819055506003600060060160020181905550610cf6565b60006006016000015460006001015403600060030160000154600060010154031015610c855760016000600301600201819055506002600060060160020181905550610cf5565b60006003016000015460006001015403600060060160000154600060010154031015610ccc5760026000600301600201819055506001600060060160020181905550610cf4565b6004600060030160020181905550600460006006016002018190555060046000600201819055505b5b5b5b56fe426574206f726967696e61746f722067756573732077617320636c6f73657220746f20746865206e756d62657220616e642077696c6c20726563656976652074686520706f744265742074616b65722067756573732077617320636c6f73657220746f20746865206e756d62657220616e642077696c6c20726563656976652074686520706f74426f746820626574732077657265207468652073616d65206f722077657265206f76657220746865206e756d6265722c2074686520706f742077696c6c2062652073706c6974a265627a7a72315820b5bdfd8e4c30a3c17e6691b039fc70fd4039d2e3568f74f5cc9180a71379881664736f6c63430005100032",
  "source": "// SPDX-License-Identifier: UNLICENSED\npragma solidity >=0.5.0 <0.8.0;\n\ncontract Bets {\n\n    //bet status\n    uint constant STATUS_WIN = 1;\n    uint constant STATUS_LOSE = 2;\n    uint constant STATUS_TIE = 3;\n    uint constant STATUS_PENDING = 4;\n\n    //game status\n    uint constant STATUS_NOT_STARTED = 1;\n    uint constant STATUS_STARTED = 2;\n    uint constant STATUS_COMPLETE = 3;\n    uint constant STATUS_ERROR = 4;\n\n    //better struct\n    struct Better {\n        uint guess;\n        address payable addr;\n        uint status;\n    }\n\n    //game struct\n    struct Game {\n        uint256 betAmount;\n        uint outcome;\n        uint status;\n        Better originator;\n        Better taker;\n    }\n\n    //game\n    Game game;\n\n    //fallback function\n    //receive() external payable {}\n\n    function createBet(uint _guess) public payable {\n        game = Game(msg.value, 0, STATUS_STARTED, Better(_guess, msg.sender, STATUS_PENDING), Better(0, address(0), STATUS_NOT_STARTED));\n        game.originator = Better(_guess, msg.sender, STATUS_PENDING);\n    }\n\n    function takeBet(uint _guess) public payable {\n        //same bet amount plz\n        require(msg.value == game.betAmount);\n        game.taker = Better(_guess, msg.sender, STATUS_PENDING);\n        generateBetOutcome();\n    }\n\n    function payout() public payable {\n\n        checkPermissions(msg.sender);\n\n        if (game.originator.status == STATUS_TIE && game.taker.status == STATUS_TIE) {\n            game.originator.addr.transfer(game.betAmount);\n            game.taker.addr.transfer(game.betAmount);\n        } else {\n            if (game.originator.status == STATUS_WIN) {\n                game.originator.addr.transfer(game.betAmount * 2);\n            } else if (game.taker.status == STATUS_WIN) {\n                game.taker.addr.transfer(game.betAmount * 2);\n            } else {\n                game.originator.addr.transfer(game.betAmount);\n                game.taker.addr.transfer(game.betAmount);\n            }\n        }\n    }\n\n    function checkPermissions(address sender) view private {\n        //only the originator or taker can call this function\n        require(sender == game.originator.addr || sender == game.taker.addr);\n    }\n\n    function getBetAmount() public view returns(uint) {\n        checkPermissions(msg.sender);\n        return game.betAmount;\n    }\n\n    function getOriginatorGuess() public view returns(uint) {\n        checkPermissions(msg.sender);\n        return game.originator.guess;\n    }\n\n    function getTakerGuess() public view returns(uint) {\n        checkPermissions(msg.sender);\n        return game.taker.guess;\n    }\n\n    function getPot() public view returns(uint256) {\n        checkPermissions(msg.sender);\n        return address(this).balance;\n    }\n\n    function generateBetOutcome() private {\n        //todo - not a great way to generate a random number but ok for now\n        game.outcome = uint(blockhash(block.number - 1)) % 10 + 1;\n        game.status = STATUS_COMPLETE;\n\n        if (game.originator.guess == game.taker.guess) {\n            game.originator.status = STATUS_TIE;\n            game.taker.status = STATUS_TIE;\n        } else if (game.originator.guess > game.outcome && game.taker.guess > game.outcome) {\n            game.originator.status = STATUS_TIE;\n            game.taker.status = STATUS_TIE;\n        } else {\n            if ((game.outcome - game.originator.guess) < (game.outcome - game.taker.guess)) {\n                game.originator.status = STATUS_WIN;\n                game.taker.status = STATUS_LOSE;\n            } else if ((game.outcome - game.taker.guess) < (game.outcome - game.originator.guess)) {\n                game.originator.status = STATUS_LOSE;\n                game.taker.status = STATUS_WIN;\n            } else {\n                game.originator.status = STATUS_ERROR;\n                game.taker.status = STATUS_ERROR;\n                game.status = STATUS_ERROR;\n            }\n        }\n    }\n\n    function getBetOutcome() public view returns(string memory description, string memory originatorKey, uint originatorStatus, string memory takerKey, uint takerStatus) {\n        if (game.originator.status == STATUS_TIE || game.taker.status == STATUS_TIE) {\n            description = \"Both bets were the same or were over the number, the pot will be split\";\n        } else {\n            if (game.originator.status == STATUS_WIN) {\n                description = \"Bet originator guess was closer to the number and will receive the pot\";\n            } else if (game.taker.status == STATUS_WIN) {\n                description = \"Bet taker guess was closer to the number and will receive the pot\";\n            } else {\n                description = \"Unknown Bet Outcome\";\n            }\n        }\n        originatorKey = \"originator\";\n        originatorStatus = game.originator.status;\n        takerKey = \"taker\";\n        takerStatus = game.taker.status;\n    }\n}",
  "sourcePath": "/home/osboxes/Documents/GitHub/FDJ-ESGI/contracts/Bets.sol",
  "compiler": {
    "name": "solc",
    "version": "0.5.16+commit.9c3226ce.Emscripten.clang"
  },
  "schemaVersion": "3.3.2",
  "updatedAt": "2021-02-05T15:44:33.718Z",
  "networkType": "ethereum",
  "devdoc": {
    "methods": {}
  },
  "userdoc": {
    "methods": {}
  }
}