{
  "contractName": "Bets",
  "abi": [
    {
      "inputs": [],
      "payable": false,
      "stateMutability": "nonpayable",
      "type": "constructor"
    },
    {
      "anonymous": false,
      "inputs": [
        {
          "indexed": false,
          "internalType": "string",
          "name": "_error",
          "type": "string"
        }
      ],
      "name": "error",
      "type": "event"
    },
    {
      "constant": false,
      "inputs": [
        {
          "internalType": "string",
          "name": "name1",
          "type": "string"
        },
        {
          "internalType": "string",
          "name": "name2",
          "type": "string"
        }
      ],
      "name": "createBet",
      "outputs": [],
      "payable": false,
      "stateMutability": "nonpayable",
      "type": "function"
    },
    {
      "constant": true,
      "inputs": [
        {
          "internalType": "uint256",
          "name": "_id",
          "type": "uint256"
        }
      ],
      "name": "existingBet",
      "outputs": [
        {
          "internalType": "bool",
          "name": "",
          "type": "bool"
        }
      ],
      "payable": false,
      "stateMutability": "view",
      "type": "function"
    },
    {
      "constant": true,
      "inputs": [
        {
          "internalType": "uint256",
          "name": "_id",
          "type": "uint256"
        },
        {
          "internalType": "uint256",
          "name": "_side",
          "type": "uint256"
        }
      ],
      "name": "getPlayersBySide",
      "outputs": [
        {
          "internalType": "address payable[]",
          "name": "",
          "type": "address[]"
        }
      ],
      "payable": false,
      "stateMutability": "view",
      "type": "function"
    },
    {
      "constant": true,
      "inputs": [
        {
          "internalType": "uint256",
          "name": "_id",
          "type": "uint256"
        },
        {
          "internalType": "address",
          "name": "_addr",
          "type": "address"
        }
      ],
      "name": "getPlayerByBet",
      "outputs": [
        {
          "internalType": "bool",
          "name": "",
          "type": "bool"
        }
      ],
      "payable": false,
      "stateMutability": "view",
      "type": "function"
    },
    {
      "constant": false,
      "inputs": [
        {
          "internalType": "string",
          "name": "_side",
          "type": "string"
        }
      ],
      "name": "getBetsBySide",
      "outputs": [],
      "payable": false,
      "stateMutability": "nonpayable",
      "type": "function"
    },
    {
      "constant": true,
      "inputs": [
        {
          "internalType": "uint256",
          "name": "_id",
          "type": "uint256"
        }
      ],
      "name": "getBetById",
      "outputs": [
        {
          "internalType": "string",
          "name": "",
          "type": "string"
        },
        {
          "internalType": "string",
          "name": "",
          "type": "string"
        },
        {
          "internalType": "uint256",
          "name": "",
          "type": "uint256"
        }
      ],
      "payable": false,
      "stateMutability": "view",
      "type": "function"
    },
    {
      "constant": true,
      "inputs": [],
      "name": "getAllBets",
      "outputs": [
        {
          "internalType": "uint256",
          "name": "",
          "type": "uint256"
        }
      ],
      "payable": false,
      "stateMutability": "view",
      "type": "function"
    },
    {
      "constant": false,
      "inputs": [
        {
          "internalType": "uint256",
          "name": "_id",
          "type": "uint256"
        },
        {
          "internalType": "uint256",
          "name": "_side",
          "type": "uint256"
        }
      ],
      "name": "participateToBet",
      "outputs": [
        {
          "internalType": "bool",
          "name": "",
          "type": "bool"
        }
      ],
      "payable": true,
      "stateMutability": "payable",
      "type": "function"
    },
    {
      "constant": false,
      "inputs": [
        {
          "internalType": "uint256",
          "name": "_id",
          "type": "uint256"
        },
        {
          "internalType": "uint256",
          "name": "_side",
          "type": "uint256"
        },
        {
          "internalType": "uint256",
          "name": "_status",
          "type": "uint256"
        }
      ],
      "name": "setWinner",
      "outputs": [
        {
          "internalType": "bool",
          "name": "",
          "type": "bool"
        }
      ],
      "payable": true,
      "stateMutability": "payable",
      "type": "function"
    },
    {
      "constant": false,
      "inputs": [
        {
          "internalType": "uint256",
          "name": "_id",
          "type": "uint256"
        }
      ],
      "name": "payWinners",
      "outputs": [
        {
          "internalType": "bool",
          "name": "",
          "type": "bool"
        }
      ],
      "payable": true,
      "stateMutability": "payable",
      "type": "function"
    }
  ],
  "bytecode": "0x608060405234801561001057600080fd5b506000808190555033600160006101000a81548173ffffffffffffffffffffffffffffffffffffffff021916908373ffffffffffffffffffffffffffffffffffffffff160217905550611bb0806100686000396000f3fe6080604052600436106100915760003560e01c8063700eae7311610059578063700eae731461048757806386e34bc1146104b2578063a5c79c4d146104f8578063cec79cfb14610592578063d02abbbb146105ec57610091565b806301aa9b2c1461009657806312e2e28d146100e657806346af732b146101395780634de067f214610201578063605c43de14610360575b600080fd5b6100cc600480360360408110156100ac57600080fd5b81019080803590602001909291908035906020019092919050505061065f565b604051808215151515815260200191505060405180910390f35b3480156100f257600080fd5b5061011f6004803603602081101561010957600080fd5b81019080803590602001909291905050506109ce565b604051808215151515815260200191505060405180910390f35b34801561014557600080fd5b506101ff6004803603602081101561015c57600080fd5b810190808035906020019064010000000081111561017957600080fd5b82018360208201111561018b57600080fd5b803590602001918460018302840111640100000000831117156101ad57600080fd5b91908080601f016020809104026020016040519081016040528093929190818152602001838380828437600081840152601f19601f820116905080830192505050505050509192919290505050610a2b565b005b34801561020d57600080fd5b5061035e6004803603604081101561022457600080fd5b810190808035906020019064010000000081111561024157600080fd5b82018360208201111561025357600080fd5b8035906020019184600183028401116401000000008311171561027557600080fd5b91908080601f016020809104026020016040519081016040528093929190818152602001838380828437600081840152601f19601f820116905080830192505050505050509192919290803590602001906401000000008111156102d857600080fd5b8201836020820111156102ea57600080fd5b8035906020019184600183028401116401000000008311171561030c57600080fd5b91908080601f016020809104026020016040519081016040528093929190818152602001838380828437600081840152601f19601f820116905080830192505050505050509192919290505050610cce565b005b34801561036c57600080fd5b506103996004803603602081101561038357600080fd5b8101908080359060200190929190505050610e4b565b604051808060200180602001848152602001838103835286818151815260200191508051906020019080838360005b838110156103e35780820151818401526020810190506103c8565b50505050905090810190601f1680156104105780820380516001836020036101000a031916815260200191505b50838103825285818151815260200191508051906020019080838360005b8381101561044957808201518184015260208101905061042e565b50505050905090810190601f1680156104765780820380516001836020036101000a031916815260200191505b509550505050505060405180910390f35b34801561049357600080fd5b5061049c610fd8565b6040518082815260200191505060405180910390f35b6104de600480360360208110156104c857600080fd5b810190808035906020019092919050505061100f565b604051808215151515815260200191505060405180910390f35b34801561050457600080fd5b5061053b6004803603604081101561051b57600080fd5b8101908080359060200190929190803590602001909291905050506111f6565b6040518080602001828103825283818151815260200191508051906020019060200280838360005b8381101561057e578082015181840152602081019050610563565b505050509050019250505060405180910390f35b6105d2600480360360608110156105a857600080fd5b810190808035906020019092919080359060200190929190803590602001909291905050506113cd565b604051808215151515815260200191505060405180910390f35b3480156105f857600080fd5b506106456004803603604081101561060f57600080fd5b8101908080359060200190929190803573ffffffffffffffffffffffffffffffffffffffff169060200190929190505050611845565b604051808215151515815260200191505060405180910390f35b600060013411156106d8576040517f08c379a00000000000000000000000000000000000000000000000000000000081526004018080602001828103825260128152602001807f57726f6e6720656e7472792070726963652e000000000000000000000000000081525060200191505060405180910390fd5b6106e1836109ce565b15610754576040517f08c379a00000000000000000000000000000000000000000000000000000000081526004018080602001828103825260138152602001807f42657420646f65736e2774206578697374732e0000000000000000000000000081525060200191505060405180910390fd5b61075e8333611845565b156107d1576040517f08c379a000000000000000000000000000000000000000000000000000000000815260040180806020018281038252600b8152602001807f416c726561647920696e2e00000000000000000000000000000000000000000081525060200191505060405180910390fd5b60008090505b6004805490508110156109c35783600482815481106107f257fe5b90600052602060002090600902016000015414156109b657600480828154811061081857fe5b90600052602060002090600902016001016001015414156109b55760018314156108f5576004818154811061084957fe5b90600052602060002090600902016001016003013390806001815401808255809150509060018203906000526020600020016000909192909190916101000a81548173ffffffffffffffffffffffffffffffffffffffff021916908373ffffffffffffffffffffffffffffffffffffffff1602179055505034600482815481106108cf57fe5b9060005260206000209060090201600101600201600082825401925050819055506109b4565b60028314156109b3576004818154811061090b57fe5b90600052602060002090600902016005016003013390806001815401808255809150509060018203906000526020600020016000909192909190916101000a81548173ffffffffffffffffffffffffffffffffffffffff021916908373ffffffffffffffffffffffffffffffffffffffff16021790555050346004828154811061099157fe5b9060005260206000209060090201600501600201600082825401925050819055505b5b5b5b80806001019150506107d7565b506001905092915050565b600080600090505b600480549050811015610a2057600481815481106109f057fe5b906000526020600020906009020160000154831415610a13576001915050610a26565b80806001019150506109d6565b50600090505b919050565b60036000610a39919061194d565b60008090505b600480549050811015610cca57816040516020018082805190602001908083835b60208310610a835780518252602082019150602081019050602083039250610a60565b6001836020036101000a0380198251168184511680821785525050505050509050019150506040516020818303038152906040528051906020012060048281548110610acb57fe5b90600052602060002090600902016001016000016040516020018082805460018160011615610100020316600290048015610b3d5780601f10610b1b576101008083540402835291820191610b3d565b820191906000526020600020905b815481529060010190602001808311610b29575b5050915050604051602081830303815290604052805190602001201480610c6d5750816040516020018082805190602001908083835b60208310610b965780518252602082019150602081019050602083039250610b73565b6001836020036101000a0380198251168184511680821785525050505050509050019150506040516020818303038152906040528051906020012060048281548110610bde57fe5b90600052602060002090600902016005016000016040516020018082805460018160011615610100020316600290048015610c505780601f10610c2e576101008083540402835291820191610c50565b820191906000526020600020905b815481529060010190602001808311610c3c575b505091505060405160208183030381529060405280519060200120145b15610cbd57600360048281548110610c8157fe5b90600052602060002090600902016000015490806001815401808255809150509060018203906000526020600020016000909192909190915055505b8080600101915050610a3f565b5050565b6060610cd861196e565b60405180608001604052808581526020016004815260200160008152602001838152509050610d0561196e565b604051806080016040528085815260200160048152602001600081526020018481525090506004604051806060016040528060005481526020018481526020018381525090806001815401808255809150509060018203906000526020600020906009020160009091929091909150600082015181600001556020820151816001016000820151816000019080519060200190610da3929190611996565b5060208201518160010155604082015181600201556060820151816003019080519060200190610dd4929190611a16565b5050506040820151816005016000820151816000019080519060200190610dfc929190611996565b5060208201518160010155604082015181600201556060820151816003019080519060200190610e2d929190611a16565b50505050505060008081548092919060010191905055505050505050565b606080600060048481548110610e5d57fe5b906000526020600020906009020160010160000160048581548110610e7e57fe5b906000526020600020906009020160050160000185828054600181600116156101000203166002900480601f016020809104026020016040519081016040528092919081815260200182805460018160011615610100020316600290048015610f285780601f10610efd57610100808354040283529160200191610f28565b820191906000526020600020905b815481529060010190602001808311610f0b57829003601f168201915b50505050509250818054600181600116156101000203166002900480601f016020809104026020016040519081016040528092919081815260200182805460018160011615610100020316600290048015610fc45780601f10610f9957610100808354040283529160200191610fc4565b820191906000526020600020905b815481529060010190602001808311610fa757829003601f168201915b505050505091509250925092509193909250565b6000806000905060008090505b6004805490508110156110075781806001019250508080600101915050610fe5565b508091505090565b600080600090506000806002805490501415611098577f24c93343bea44ff8f0e628ca4e5b87dfe0823d664c887457e166a03798bb191c60405180806020018281038252600b8152602001807f4e6f2077696e6e6572732e00000000000000000000000000000000000000000081525060200191505060405180910390a16000925050506111f1565b60008090505b60048054905081101561112b5784600482815481106110b957fe5b906000526020600020906009020160000154141561111e57600481815481106110de57fe5b906000526020600020906009020160010160020154830192506004818154811061110457fe5b906000526020600020906009020160050160020154830192505b808060010191505061109e565b50600280549050828161113a57fe5b04905060008090505b6002805490508110156111db576002818154811061115d57fe5b9060005260206000200160009054906101000a900473ffffffffffffffffffffffffffffffffffffffff1673ffffffffffffffffffffffffffffffffffffffff166108fc839081150290604051600060405180830381858888f193505050501580156111cd573d6000803e3d6000fd5b508080600101915050611143565b50600260006111ea9190611aa0565b6001925050505b919050565b6060611201836109ce565b611210576060809150506113c7565b60008090505b6004805490508110156113c557836004828154811061123157fe5b90600052602060002090600902016000015414156113b8576001831415611300576004818154811061125f57fe5b90600052602060002090600902016001016003018054806020026020016040519081016040528092919081815260200182805480156112f357602002820191906000526020600020905b8160009054906101000a900473ffffffffffffffffffffffffffffffffffffffff1673ffffffffffffffffffffffffffffffffffffffff16815260200190600101908083116112a9575b50505050509150506113c7565b60028314156113b7576004818154811061131657fe5b90600052602060002090600902016005016003018054806020026020016040519081016040528092919081815260200182805480156113aa57602002820191906000526020600020905b8160009054906101000a900473ffffffffffffffffffffffffffffffffffffffff1673ffffffffffffffffffffffffffffffffffffffff1681526020019060010190808311611360575b50505050509150506113c7565b5b8080600101915050611216565b505b92915050565b6000600160009054906101000a900473ffffffffffffffffffffffffffffffffffffffff1673ffffffffffffffffffffffffffffffffffffffff163373ffffffffffffffffffffffffffffffffffffffff1614611495577f24c93343bea44ff8f0e628ca4e5b87dfe0823d664c887457e166a03798bb191c6040518080602001828103825260118152602001807f596f75277265206e6f742061646d696e2e00000000000000000000000000000081525060200191505060405180910390a16000905061183e565b600183141580156114a7575060028314155b1561151d577f24c93343bea44ff8f0e628ca4e5b87dfe0823d664c887457e166a03798bb191c60405180806020018281038252600b8152602001807f57726f6e6720736964652e00000000000000000000000000000000000000000081525060200191505060405180910390a16000905061183e565b6001821415801561152f575060028214155b156115a5577f24c93343bea44ff8f0e628ca4e5b87dfe0823d664c887457e166a03798bb191c60405180806020018281038252600d8152602001807f57726f6e67207374617475732e0000000000000000000000000000000000000081525060200191505060405180910390a16000905061183e565b60008090505b6004805490508110156118385784600482815481106115c657fe5b906000526020600020906009020160000154141561182b5760048082815481106115ec57fe5b90600052602060002090600902016001016001015414801561162e5750600480828154811061161757fe5b906000526020600020906009020160010160010154145b1561182a57600184141561172e57826004828154811061164a57fe5b90600052602060002090600902016001016001018190555060018314156116c95760026004828154811061167a57fe5b9060005260206000209060090201600501600101819055506004818154811061169f57fe5b906000526020600020906009020160010160030160029080546116c3929190611ac1565b5061172d565b600283141561172c576002600482815481106116e157fe5b9060005260206000209060090201600101600101819055506004818154811061170657fe5b9060005260206000209060090201600501600301600290805461172a929190611ac1565b505b5b5b600284141561182957826004828154811061174557fe5b90600052602060002090600902016005016001018190555060018314156117c45760026004828154811061177557fe5b9060005260206000209060090201600101600101819055506004818154811061179a57fe5b906000526020600020906009020160050160030160029080546117be929190611ac1565b50611828565b6002831415611827576002600482815481106117dc57fe5b9060005260206000209060090201600501600101819055506004818154811061180157fe5b90600052602060002090600902016001016003016002908054611825929190611ac1565b505b5b5b5b5b80806001019150506115ab565b50600190505b9392505050565b600060606118548460016111f6565b905060008090505b81518110156118c4578373ffffffffffffffffffffffffffffffffffffffff1682828151811061188857fe5b602002602001015173ffffffffffffffffffffffffffffffffffffffff1614156118b757600192505050611947565b808060010191505061185c565b506118d08460026111f6565b905060008090505b8151811015611940578373ffffffffffffffffffffffffffffffffffffffff1682828151811061190457fe5b602002602001015173ffffffffffffffffffffffffffffffffffffffff16141561193357600192505050611947565b80806001019150506118d8565b5060009150505b92915050565b508054600082559060005260206000209081019061196b9190611b13565b50565b6040518060800160405280606081526020016000815260200160008152602001606081525090565b828054600181600116156101000203166002900490600052602060002090601f016020900481019282601f106119d757805160ff1916838001178555611a05565b82800160010185558215611a05579182015b82811115611a045782518255916020019190600101906119e9565b5b509050611a129190611b13565b5090565b828054828255906000526020600020908101928215611a8f579160200282015b82811115611a8e5782518260006101000a81548173ffffffffffffffffffffffffffffffffffffffff021916908373ffffffffffffffffffffffffffffffffffffffff16021790555091602001919060010190611a36565b5b509050611a9c9190611b38565b5090565b5080546000825590600052602060002090810190611abe9190611b13565b50565b828054828255906000526020600020908101928215611b025760005260206000209182015b82811115611b01578254825591600101919060010190611ae6565b5b509050611b0f9190611b38565b5090565b611b3591905b80821115611b31576000816000905550600101611b19565b5090565b90565b611b7891905b80821115611b7457600081816101000a81549073ffffffffffffffffffffffffffffffffffffffff021916905550600101611b3e565b5090565b9056fea265627a7a723158208f760d29c36e4331f91c08be277994715613efdb1c8bd49599cc554c7ebd159e64736f6c63430005100032",
  "source": "pragma solidity >=0.5.0 <0.8.0;\n\ncontract Bets {\n    uint256 idBet;\n    address payable admin;\n    address payable[] winners;\n    uint256[] betsBySide;\n\n    event error(string _error);\n\n    // Status\n    uint256 constant WIN = 1;\n    uint256 constant LOSE = 2;\n    uint256 constant TIE = 3;\n    uint256 constant PENDING = 4;\n\n    // Side\n    struct Side {\n        string name;\n        uint256 status;\n        uint256 amount;\n        address payable[] players;\n    }\n\n    // Bet\n    struct Bet {\n        uint256 id;\n        Side side1;\n        Side side2;\n    }\n\n    // All bets\n    Bet[] bets;\n\n    constructor() public {\n        idBet = 0;\n        admin = msg.sender;\n    }\n\n    // Both sides names req.\n    function createBet(string memory name1, string memory name2) public {\n        address payable[] memory players;\n\n        // Set sides of bet and add it to all bets\n        Side memory side1 = Side(name1, PENDING, 0, players);\n        Side memory side2 = Side(name2, PENDING, 0, players);\n        bets.push(Bet(idBet, side1, side2));\n        idBet++;\n    }\n\n    // Verify if bet exists\n    function existingBet(uint256 _id) public view returns(bool) {\n        for(uint i = 0; i < bets.length; i++)\n            if(_id == bets[i].id) return true;\n        return false;\n    }\n\n    // Get all players in one side of bet\n    function getPlayersBySide(uint256 _id, uint256 _side) public view returns(address payable[] memory) {\n        if(!existingBet(_id)){\n            address payable[] memory blank;\n           // emit error(\"Bet doesn't exist.\");\n            return blank;\n        }\n\n        for(uint i = 0; i < bets.length; i++) {\n            if(bets[i].id == _id) {\n                if(_side == 1) return bets[i].side1.players;\n                if(_side == 2) return bets[i].side2.players;\n            }\n        }\n    }\n\n    // Verify if player is in bet\n    function getPlayerByBet(uint256 _id, address _addr) public view returns(bool) {\n        address payable[] memory players;\n\n        // Check side 1\n        players = getPlayersBySide(_id, 1);\n        for(uint i = 0; i < players.length; i++)\n            if(players[i] == _addr) return true;\n\n        // Check side 2\n        players = getPlayersBySide(_id, 2);\n        for(uint i = 0; i < players.length; i++)\n            if(players[i] == _addr) return true;\n\n        return false;\n    }\n\n    // Get all bets containing named side\n    function getBetsBySide(string memory _side) public {\n        delete betsBySide;\n\n        for(uint i = 0; i < bets.length; i++) {\n            if(keccak256(abi.encodePacked(bets[i].side1.name)) == keccak256(abi.encodePacked(_side)) || \n               keccak256(abi.encodePacked(bets[i].side2.name)) == keccak256(abi.encodePacked(_side))) {\n                betsBySide.push(bets[i].id);\n            }\n        }\n    }\n    \n    // Get bet sides names with id\n    function getBetById(uint256 _id) public view returns(string memory, string memory, uint256) {\n        return(bets[_id].side1.name, bets[_id].side2.name,_id);\n    }\n    \n    // Get all bets\n    function getAllBets() public view returns(uint256) {\n        uint256 countBets = 0;\n        \n        for(uint i = 0; i < bets.length; i++)\n            countBets++;\n            \n        return countBets;\n    }\n\n    // Add player to bet\n    function participateToBet(uint256 _id, uint256 _side) public payable returns(bool) {\n        /*if(msg.value <= 1000000000000000000) {\n            emit error(\"Wrong entry price.\");\n            return false;\n        }*/\n        require(msg.value <= 1 wei, \"Wrong entry price.\");\n\n        // Verify if bet exists\n        /*if(!existingBet(_id)){\n            emit error(\"Bet doesn't exists.\");\n            return false;\n        }*/\n        require(!existingBet(_id), \"Bet doesn't exists.\");\n\n        // Verify if player is in bet\n        /*if(!getPlayerByBet(_id, msg.sender)){\n            emit error(\"Already in.\");\n            return false;\n        }*/\n        require(!getPlayerByBet(_id, msg.sender), \"Already in.\");\n\n        for(uint i = 0; i < bets.length; i++) {\n            if(bets[i].id == _id) {\n                if(bets[i].side1.status == PENDING) {\n                    if(_side == 1) {\n                        bets[i].side1.players.push(msg.sender);\n                        bets[i].side1.amount += msg.value;\n                    } else if(_side == 2) {\n                        bets[i].side2.players.push(msg.sender);\n                        bets[i].side2.amount += msg.value;\n                    }\n                }\n            }\n        }\n        return true;\n    }\n\n    // Set winners\n    function setWinner(uint256 _id, uint256 _side, uint256 _status) public payable returns(bool) {\n        // Verify if the sender is admin\n        if(msg.sender != admin) {\n            emit error(\"You're not admin.\");\n            return false;\n        }\n\n        // Verify side\n        if(_side != 1 && _side != 2) {\n            emit error(\"Wrong side.\");\n            return false;\n        }\n\n        //verify status\n        if(_status != 1 && _status != 2){\n            emit error(\"Wrong status.\");\n            return false;\n        }\n\n        for(uint i = 0; i < bets.length; i++) {\n            if(bets[i].id == _id) {\n                // Verify if bet is pending\n                if(bets[i].side1.status == PENDING && bets[i].side1.status == PENDING){\n\n                    // Side 1\n                    if(_side == 1) {\n                        bets[i].side1.status = _status;\n                        if(_status == 1){\n                            bets[i].side2.status = 2;\n                            winners = bets[i].side1.players;\n                        } else if(_status == 2) {\n                            bets[i].side1.status = 2;\n                            winners = bets[i].side2.players;\n                        }\n                    }\n\n                    // Side 2\n                    if(_side == 2) {\n                        bets[i].side2.status = _status;\n                        if(_status == 1) {\n                            bets[i].side1.status = 2;\n                            winners = bets[i].side2.players;\n                        } else if(_status == 2) {\n                            bets[i].side2.status = 2;\n                            winners = bets[i].side1.players;\n                        }\n                    }\n                }\n            }\n        }\n        return true;\n    }\n\n    // Pay winners\n    function payWinners(uint256 _id) public payable returns(bool) {\n        uint256 totalAmount = 0;\n        uint256 winnerAmount;\n\n        // Verify if there is winners\n        if(winners.length == 0) {\n            emit error(\"No winners.\");\n            return false;\n        }\n\n        // Total amount\n        for(uint i = 0; i < bets.length; i++) {\n            if(bets[i].id == _id) {\n                totalAmount += bets[i].side1.amount;\n                totalAmount += bets[i].side2.amount;\n            }\n        }\n\n        // Calc amount / winner\n        winnerAmount = totalAmount / winners.length;\n\n        // Reward winners\n        for(uint i = 0; i < winners.length; i++)\n            winners[i].transfer(winnerAmount);\n\n        delete winners;\n\n        return true;\n    }\n}",
  "sourcePath": "/home/osboxes/Bureau/PROJET/FDJ-ESGI/contracts/Bets.sol",
  "compiler": {
    "name": "solc",
    "version": "0.5.16+commit.9c3226ce.Emscripten.clang"
  },
  "schemaVersion": "3.3.2",
  "updatedAt": "2021-02-06T21:08:05.916Z",
  "networkType": "ethereum",
  "devdoc": {
    "methods": {}
  },
  "userdoc": {
    "methods": {}
  }
}