{
  "contractName": "Bets",
  "abi": [
    {
      "inputs": [],
      "payable": false,
      "stateMutability": "nonpayable",
      "type": "constructor"
    },
    {
      "anonymous": false,
      "inputs": [
        {
          "indexed": false,
          "internalType": "string",
          "name": "_error",
          "type": "string"
        }
      ],
      "name": "error",
      "type": "event"
    },
    {
      "constant": false,
      "inputs": [
        {
          "internalType": "string",
          "name": "name1",
          "type": "string"
        },
        {
          "internalType": "string",
          "name": "name2",
          "type": "string"
        }
      ],
      "name": "createBet",
      "outputs": [],
      "payable": false,
      "stateMutability": "nonpayable",
      "type": "function"
    },
    {
      "constant": true,
      "inputs": [
        {
          "internalType": "uint256",
          "name": "_id",
          "type": "uint256"
        }
      ],
      "name": "existingBet",
      "outputs": [
        {
          "internalType": "bool",
          "name": "",
          "type": "bool"
        }
      ],
      "payable": false,
      "stateMutability": "view",
      "type": "function"
    },
    {
      "constant": true,
      "inputs": [
        {
          "internalType": "uint256",
          "name": "_id",
          "type": "uint256"
        },
        {
          "internalType": "uint256",
          "name": "_side",
          "type": "uint256"
        }
      ],
      "name": "getPlayersBySide",
      "outputs": [
        {
          "internalType": "address payable[]",
          "name": "",
          "type": "address[]"
        }
      ],
      "payable": false,
      "stateMutability": "view",
      "type": "function"
    },
    {
      "constant": true,
      "inputs": [
        {
          "internalType": "uint256",
          "name": "_id",
          "type": "uint256"
        },
        {
          "internalType": "address",
          "name": "_addr",
          "type": "address"
        }
      ],
      "name": "getPlayerByBet",
      "outputs": [
        {
          "internalType": "bool",
          "name": "",
          "type": "bool"
        }
      ],
      "payable": false,
      "stateMutability": "view",
      "type": "function"
    },
    {
      "constant": false,
      "inputs": [
        {
          "internalType": "string",
          "name": "_side",
          "type": "string"
        }
      ],
      "name": "getBetsBySide",
      "outputs": [],
      "payable": false,
      "stateMutability": "nonpayable",
      "type": "function"
    },
    {
      "constant": true,
      "inputs": [
        {
          "internalType": "uint256",
          "name": "_id",
          "type": "uint256"
        }
      ],
      "name": "getBetById",
      "outputs": [
        {
          "internalType": "string",
          "name": "",
          "type": "string"
        },
        {
          "internalType": "string",
          "name": "",
          "type": "string"
        },
        {
          "internalType": "uint256",
          "name": "",
          "type": "uint256"
        },
        {
          "internalType": "uint256",
          "name": "",
          "type": "uint256"
        },
        {
          "internalType": "uint256",
          "name": "",
          "type": "uint256"
        }
      ],
      "payable": false,
      "stateMutability": "view",
      "type": "function"
    },
    {
      "constant": true,
      "inputs": [],
      "name": "getAllBets",
      "outputs": [
        {
          "internalType": "uint256",
          "name": "",
          "type": "uint256"
        }
      ],
      "payable": false,
      "stateMutability": "view",
      "type": "function"
    },
    {
      "constant": false,
      "inputs": [
        {
          "internalType": "uint256",
          "name": "_id",
          "type": "uint256"
        },
        {
          "internalType": "uint256",
          "name": "_side",
          "type": "uint256"
        }
      ],
      "name": "participateToBet",
      "outputs": [
        {
          "internalType": "bool",
          "name": "",
          "type": "bool"
        }
      ],
      "payable": true,
      "stateMutability": "payable",
      "type": "function"
    },
    {
      "constant": false,
      "inputs": [
        {
          "internalType": "uint256",
          "name": "_id",
          "type": "uint256"
        },
        {
          "internalType": "uint256",
          "name": "_side",
          "type": "uint256"
        },
        {
          "internalType": "uint256",
          "name": "_status",
          "type": "uint256"
        }
      ],
      "name": "setWinner",
      "outputs": [
        {
          "internalType": "bool",
          "name": "",
          "type": "bool"
        }
      ],
      "payable": true,
      "stateMutability": "payable",
      "type": "function"
    },
    {
      "constant": false,
      "inputs": [
        {
          "internalType": "uint256",
          "name": "_id",
          "type": "uint256"
        }
      ],
      "name": "payWinners",
      "outputs": [
        {
          "internalType": "bool",
          "name": "",
          "type": "bool"
        }
      ],
      "payable": true,
      "stateMutability": "payable",
      "type": "function"
    },
    {
      "constant": true,
      "inputs": [],
      "name": "getAdmin",
      "outputs": [
        {
          "internalType": "address",
          "name": "",
          "type": "address"
        }
      ],
      "payable": false,
      "stateMutability": "view",
      "type": "function"
    }
  ],
  "bytecode": "0x608060405234801561001057600080fd5b506000808190555033600160006101000a81548173ffffffffffffffffffffffffffffffffffffffff021916908373ffffffffffffffffffffffffffffffffffffffff160217905550611c16806100686000396000f3fe60806040526004361061009c5760003560e01c80636e9960c3116100645780636e9960c3146104a0578063700eae73146104f757806386e34bc114610522578063a5c79c4d14610568578063cec79cfb14610602578063d02abbbb1461065c5761009c565b806301aa9b2c146100a157806312e2e28d146100f157806346af732b146101445780634de067f21461020c578063605c43de1461036b575b600080fd5b6100d7600480360360408110156100b757600080fd5b8101908080359060200190929190803590602001909291905050506106cf565b604051808215151515815260200191505060405180910390f35b3480156100fd57600080fd5b5061012a6004803603602081101561011457600080fd5b8101908080359060200190929190505050610a3e565b604051808215151515815260200191505060405180910390f35b34801561015057600080fd5b5061020a6004803603602081101561016757600080fd5b810190808035906020019064010000000081111561018457600080fd5b82018360208201111561019657600080fd5b803590602001918460018302840111640100000000831117156101b857600080fd5b91908080601f016020809104026020016040519081016040528093929190818152602001838380828437600081840152601f19601f820116905080830192505050505050509192919290505050610a9b565b005b34801561021857600080fd5b506103696004803603604081101561022f57600080fd5b810190808035906020019064010000000081111561024c57600080fd5b82018360208201111561025e57600080fd5b8035906020019184600183028401116401000000008311171561028057600080fd5b91908080601f016020809104026020016040519081016040528093929190818152602001838380828437600081840152601f19601f820116905080830192505050505050509192919290803590602001906401000000008111156102e357600080fd5b8201836020820111156102f557600080fd5b8035906020019184600183028401116401000000008311171561031757600080fd5b91908080601f016020809104026020016040519081016040528093929190818152602001838380828437600081840152601f19601f820116905080830192505050505050509192919290505050610d3e565b005b34801561037757600080fd5b506103a46004803603602081101561038e57600080fd5b8101908080359060200190929190505050610ebb565b604051808060200180602001868152602001858152602001848152602001838103835288818151815260200191508051906020019080838360005b838110156103fa5780820151818401526020810190506103df565b50505050905090810190601f1680156104275780820380516001836020036101000a031916815260200191505b50838103825287818151815260200191508051906020019080838360005b83811015610460578082015181840152602081019050610445565b50505050905090810190601f16801561048d5780820380516001836020036101000a031916815260200191505b5097505050505050505060405180910390f35b3480156104ac57600080fd5b506104b5611095565b604051808273ffffffffffffffffffffffffffffffffffffffff1673ffffffffffffffffffffffffffffffffffffffff16815260200191505060405180910390f35b34801561050357600080fd5b5061050c6110bf565b6040518082815260200191505060405180910390f35b61054e6004803603602081101561053857600080fd5b81019080803590602001909291905050506110f6565b604051808215151515815260200191505060405180910390f35b34801561057457600080fd5b506105ab6004803603604081101561058b57600080fd5b81019080803590602001909291908035906020019092919050505061125c565b6040518080602001828103825283818151815260200191508051906020019060200280838360005b838110156105ee5780820151818401526020810190506105d3565b505050509050019250505060405180910390f35b6106426004803603606081101561061857600080fd5b81019080803590602001909291908035906020019092919080359060200190929190505050611433565b604051808215151515815260200191505060405180910390f35b34801561066857600080fd5b506106b56004803603604081101561067f57600080fd5b8101908080359060200190929190803573ffffffffffffffffffffffffffffffffffffffff1690602001909291905050506118ab565b604051808215151515815260200191505060405180910390f35b60006001341115610748576040517f08c379a00000000000000000000000000000000000000000000000000000000081526004018080602001828103825260128152602001807f57726f6e6720656e7472792070726963652e000000000000000000000000000081525060200191505060405180910390fd5b61075183610a3e565b156107c4576040517f08c379a00000000000000000000000000000000000000000000000000000000081526004018080602001828103825260138152602001807f42657420646f65736e2774206578697374732e0000000000000000000000000081525060200191505060405180910390fd5b6107ce83336118ab565b15610841576040517f08c379a000000000000000000000000000000000000000000000000000000000815260040180806020018281038252600b8152602001807f416c726561647920696e2e00000000000000000000000000000000000000000081525060200191505060405180910390fd5b60008090505b600480549050811015610a3357836004828154811061086257fe5b9060005260206000209060090201600001541415610a2657600480828154811061088857fe5b9060005260206000209060090201600101600101541415610a2557600183141561096557600481815481106108b957fe5b90600052602060002090600902016001016003013390806001815401808255809150509060018203906000526020600020016000909192909190916101000a81548173ffffffffffffffffffffffffffffffffffffffff021916908373ffffffffffffffffffffffffffffffffffffffff16021790555050346004828154811061093f57fe5b906000526020600020906009020160010160020160008282540192505081905550610a24565b6002831415610a23576004818154811061097b57fe5b90600052602060002090600902016005016003013390806001815401808255809150509060018203906000526020600020016000909192909190916101000a81548173ffffffffffffffffffffffffffffffffffffffff021916908373ffffffffffffffffffffffffffffffffffffffff160217905550503460048281548110610a0157fe5b9060005260206000209060090201600501600201600082825401925050819055505b5b5b5b8080600101915050610847565b506001905092915050565b600080600090505b600480549050811015610a905760048181548110610a6057fe5b906000526020600020906009020160000154831415610a83576001915050610a96565b8080600101915050610a46565b50600090505b919050565b60036000610aa991906119b3565b60008090505b600480549050811015610d3a57816040516020018082805190602001908083835b60208310610af35780518252602082019150602081019050602083039250610ad0565b6001836020036101000a0380198251168184511680821785525050505050509050019150506040516020818303038152906040528051906020012060048281548110610b3b57fe5b90600052602060002090600902016001016000016040516020018082805460018160011615610100020316600290048015610bad5780601f10610b8b576101008083540402835291820191610bad565b820191906000526020600020905b815481529060010190602001808311610b99575b5050915050604051602081830303815290604052805190602001201480610cdd5750816040516020018082805190602001908083835b60208310610c065780518252602082019150602081019050602083039250610be3565b6001836020036101000a0380198251168184511680821785525050505050509050019150506040516020818303038152906040528051906020012060048281548110610c4e57fe5b90600052602060002090600902016005016000016040516020018082805460018160011615610100020316600290048015610cc05780601f10610c9e576101008083540402835291820191610cc0565b820191906000526020600020905b815481529060010190602001808311610cac575b505091505060405160208183030381529060405280519060200120145b15610d2d57600360048281548110610cf157fe5b90600052602060002090600902016000015490806001815401808255809150509060018203906000526020600020016000909192909190915055505b8080600101915050610aaf565b5050565b6060610d486119d4565b60405180608001604052808581526020016004815260200160008152602001838152509050610d756119d4565b604051806080016040528085815260200160048152602001600081526020018481525090506004604051806060016040528060005481526020018481526020018381525090806001815401808255809150509060018203906000526020600020906009020160009091929091909150600082015181600001556020820151816001016000820151816000019080519060200190610e139291906119fc565b5060208201518160010155604082015181600201556060820151816003019080519060200190610e44929190611a7c565b5050506040820151816005016000820151816000019080519060200190610e6c9291906119fc565b5060208201518160010155604082015181600201556060820151816003019080519060200190610e9d929190611a7c565b50505050505060008081548092919060010191905055505050505050565b606080600080600060048681548110610ed057fe5b906000526020600020906009020160010160000160048781548110610ef157fe5b90600052602060002090600902016005016000018760048981548110610f1357fe5b90600052602060002090600902016005016001015460048a81548110610f3557fe5b906000526020600020906009020160010160010154848054600181600116156101000203166002900480601f016020809104026020016040519081016040528092919081815260200182805460018160011615610100020316600290048015610fdf5780601f10610fb457610100808354040283529160200191610fdf565b820191906000526020600020905b815481529060010190602001808311610fc257829003601f168201915b50505050509450838054600181600116156101000203166002900480601f01602080910402602001604051908101604052809291908181526020018280546001816001161561010002031660029004801561107b5780601f106110505761010080835404028352916020019161107b565b820191906000526020600020905b81548152906001019060200180831161105e57829003601f168201915b505050505093509450945094509450945091939590929450565b6000600160009054906101000a900473ffffffffffffffffffffffffffffffffffffffff16905090565b6000806000905060008090505b6004805490508110156110ee57818060010192505080806001019150506110cc565b508091505090565b60008060009050600080600090505b60048054905081101561119257846004828154811061112057fe5b9060005260206000209060090201600001541415611185576004818154811061114557fe5b906000526020600020906009020160010160020154830192506004818154811061116b57fe5b906000526020600020906009020160050160020154830192505b8080600101915050611105565b5060028054905082816111a157fe5b04905060008090505b60028054905081101561124257600281815481106111c457fe5b9060005260206000200160009054906101000a900473ffffffffffffffffffffffffffffffffffffffff1673ffffffffffffffffffffffffffffffffffffffff166108fc839081150290604051600060405180830381858888f19350505050158015611234573d6000803e3d6000fd5b5080806001019150506111aa565b50600260006112519190611b06565b600192505050919050565b606061126783610a3e565b6112765760608091505061142d565b60008090505b60048054905081101561142b57836004828154811061129757fe5b906000526020600020906009020160000154141561141e57600183141561136657600481815481106112c557fe5b906000526020600020906009020160010160030180548060200260200160405190810160405280929190818152602001828054801561135957602002820191906000526020600020905b8160009054906101000a900473ffffffffffffffffffffffffffffffffffffffff1673ffffffffffffffffffffffffffffffffffffffff168152602001906001019080831161130f575b505050505091505061142d565b600283141561141d576004818154811061137c57fe5b906000526020600020906009020160050160030180548060200260200160405190810160405280929190818152602001828054801561141057602002820191906000526020600020905b8160009054906101000a900473ffffffffffffffffffffffffffffffffffffffff1673ffffffffffffffffffffffffffffffffffffffff16815260200190600101908083116113c6575b505050505091505061142d565b5b808060010191505061127c565b505b92915050565b6000600160009054906101000a900473ffffffffffffffffffffffffffffffffffffffff1673ffffffffffffffffffffffffffffffffffffffff163373ffffffffffffffffffffffffffffffffffffffff16146114fb577f24c93343bea44ff8f0e628ca4e5b87dfe0823d664c887457e166a03798bb191c6040518080602001828103825260118152602001807f596f75277265206e6f742061646d696e2e00000000000000000000000000000081525060200191505060405180910390a1600090506118a4565b6001831415801561150d575060028314155b15611583577f24c93343bea44ff8f0e628ca4e5b87dfe0823d664c887457e166a03798bb191c60405180806020018281038252600b8152602001807f57726f6e6720736964652e00000000000000000000000000000000000000000081525060200191505060405180910390a1600090506118a4565b60018214158015611595575060028214155b1561160b577f24c93343bea44ff8f0e628ca4e5b87dfe0823d664c887457e166a03798bb191c60405180806020018281038252600d8152602001807f57726f6e67207374617475732e0000000000000000000000000000000000000081525060200191505060405180910390a1600090506118a4565b60008090505b60048054905081101561189e57846004828154811061162c57fe5b906000526020600020906009020160000154141561189157600480828154811061165257fe5b9060005260206000209060090201600101600101541480156116945750600480828154811061167d57fe5b906000526020600020906009020160010160010154145b156118905760018414156117945782600482815481106116b057fe5b906000526020600020906009020160010160010181905550600183141561172f576002600482815481106116e057fe5b9060005260206000209060090201600501600101819055506004818154811061170557fe5b90600052602060002090600902016001016003016002908054611729929190611b27565b50611793565b60028314156117925760026004828154811061174757fe5b9060005260206000209060090201600101600101819055506004818154811061176c57fe5b90600052602060002090600902016005016003016002908054611790929190611b27565b505b5b5b600284141561188f5782600482815481106117ab57fe5b906000526020600020906009020160050160010181905550600183141561182a576002600482815481106117db57fe5b9060005260206000209060090201600101600101819055506004818154811061180057fe5b90600052602060002090600902016005016003016002908054611824929190611b27565b5061188e565b600283141561188d5760026004828154811061184257fe5b9060005260206000209060090201600501600101819055506004818154811061186757fe5b9060005260206000209060090201600101600301600290805461188b929190611b27565b505b5b5b5b5b8080600101915050611611565b50600190505b9392505050565b600060606118ba84600161125c565b905060008090505b815181101561192a578373ffffffffffffffffffffffffffffffffffffffff168282815181106118ee57fe5b602002602001015173ffffffffffffffffffffffffffffffffffffffff16141561191d576001925050506119ad565b80806001019150506118c2565b5061193684600261125c565b905060008090505b81518110156119a6578373ffffffffffffffffffffffffffffffffffffffff1682828151811061196a57fe5b602002602001015173ffffffffffffffffffffffffffffffffffffffff161415611999576001925050506119ad565b808060010191505061193e565b5060009150505b92915050565b50805460008255906000526020600020908101906119d19190611b79565b50565b6040518060800160405280606081526020016000815260200160008152602001606081525090565b828054600181600116156101000203166002900490600052602060002090601f016020900481019282601f10611a3d57805160ff1916838001178555611a6b565b82800160010185558215611a6b579182015b82811115611a6a578251825591602001919060010190611a4f565b5b509050611a789190611b79565b5090565b828054828255906000526020600020908101928215611af5579160200282015b82811115611af45782518260006101000a81548173ffffffffffffffffffffffffffffffffffffffff021916908373ffffffffffffffffffffffffffffffffffffffff16021790555091602001919060010190611a9c565b5b509050611b029190611b9e565b5090565b5080546000825590600052602060002090810190611b249190611b79565b50565b828054828255906000526020600020908101928215611b685760005260206000209182015b82811115611b67578254825591600101919060010190611b4c565b5b509050611b759190611b9e565b5090565b611b9b91905b80821115611b97576000816000905550600101611b7f565b5090565b90565b611bde91905b80821115611bda57600081816101000a81549073ffffffffffffffffffffffffffffffffffffffff021916905550600101611ba4565b5090565b9056fea265627a7a723158209e6ed79c332732eb1cc6f7a2838b293caa1d1849cedec8329c1988238d63021d64736f6c63430005100032",
  "source": "pragma solidity >=0.5.0 <0.8.0;\n\ncontract Bets {\n    uint256 idBet;\n    address payable admin;\n    address payable[] winners;\n    uint256[] betsBySide;\n\n    event error(string _error);\n\n    // Status\n    uint256 constant WIN = 1;\n    uint256 constant LOSE = 2;\n    uint256 constant TIE = 3;\n    uint256 constant PENDING = 4;\n\n    // Side\n    struct Side {\n        string name;\n        uint256 status;\n        uint256 amount;\n        address payable[] players;\n    }\n\n    // Bet\n    struct Bet {\n        uint256 id;\n        Side side1;\n        Side side2;\n    }\n\n    // All bets\n    Bet[] bets;\n\n    constructor() public {\n        idBet = 0;\n        admin = msg.sender;\n    }\n\n    // Both sides names req.\n    function createBet(string memory name1, string memory name2) public {\n        address payable[] memory players;\n\n        // Set sides of bet and add it to all bets\n        Side memory side1 = Side(name1, PENDING, 0, players);\n        Side memory side2 = Side(name2, PENDING, 0, players);\n        bets.push(Bet(idBet, side1, side2));\n        idBet++;\n    }\n\n    // Verify if bet exists\n    function existingBet(uint256 _id) public view returns(bool) {\n        for(uint i = 0; i < bets.length; i++)\n            if(_id == bets[i].id) return true;\n        return false;\n    }\n\n    // Get all players in one side of bet\n    function getPlayersBySide(uint256 _id, uint256 _side) public view returns(address payable[] memory) {\n        if(!existingBet(_id)){\n            address payable[] memory blank;\n           // emit error(\"Bet doesn't exist.\");\n            return blank;\n        }\n\n        for(uint i = 0; i < bets.length; i++) {\n            if(bets[i].id == _id) {\n                if(_side == 1) return bets[i].side1.players;\n                if(_side == 2) return bets[i].side2.players;\n            }\n        }\n    }\n\n    // Verify if player is in bet\n    function getPlayerByBet(uint256 _id, address _addr) public view returns(bool) {\n        address payable[] memory players;\n\n        // Check side 1\n        players = getPlayersBySide(_id, 1);\n        for(uint i = 0; i < players.length; i++)\n            if(players[i] == _addr) return true;\n\n        // Check side 2\n        players = getPlayersBySide(_id, 2);\n        for(uint i = 0; i < players.length; i++)\n            if(players[i] == _addr) return true;\n\n        return false;\n    }\n\n    // Get all bets containing named side\n    function getBetsBySide(string memory _side) public {\n        delete betsBySide;\n\n        for(uint i = 0; i < bets.length; i++) {\n            if(keccak256(abi.encodePacked(bets[i].side1.name)) == keccak256(abi.encodePacked(_side)) || \n               keccak256(abi.encodePacked(bets[i].side2.name)) == keccak256(abi.encodePacked(_side))) {\n                betsBySide.push(bets[i].id);\n            }\n        }\n    }\n    \n    // Get bet sides names with id\n    function getBetById(uint256 _id) public view returns(string memory, string memory, uint256, uint256, uint256) {\n        return(bets[_id].side1.name, bets[_id].side2.name,_id, bets[_id].side2.status, bets[_id].side1.status);\n    }\n    \n    // Get all bets\n    function getAllBets() public view returns(uint256) {\n        uint256 countBets = 0;\n        \n        for(uint i = 0; i < bets.length; i++)\n            countBets++;\n            \n        return countBets;\n    }\n\n    // Add player to bet\n    function participateToBet(uint256 _id, uint256 _side) public payable returns(bool) {\n        /*if(msg.value <= 1000000000000000000) {\n            emit error(\"Wrong entry price.\");\n            return false;\n        }*/\n        require(msg.value <= 1 wei, \"Wrong entry price.\");\n\n        // Verify if bet exists\n        /*if(!existingBet(_id)){\n            emit error(\"Bet doesn't exists.\");\n            return false;\n        }*/\n        require(!existingBet(_id), \"Bet doesn't exists.\");\n\n        // Verify if player is in bet\n        /*if(!getPlayerByBet(_id, msg.sender)){\n            emit error(\"Already in.\");\n            return false;\n        }*/\n        require(!getPlayerByBet(_id, msg.sender), \"Already in.\");\n\n        for(uint i = 0; i < bets.length; i++) {\n            if(bets[i].id == _id) {\n                if(bets[i].side1.status == PENDING) {\n                    if(_side == 1) {\n                        bets[i].side1.players.push(msg.sender);\n                        bets[i].side1.amount += msg.value;\n                    } else if(_side == 2) {\n                        bets[i].side2.players.push(msg.sender);\n                        bets[i].side2.amount += msg.value;\n                    }\n                }\n            }\n        }\n        return true;\n    }\n\n    // Set winners\n    function setWinner(uint256 _id, uint256 _side, uint256 _status) public payable returns(bool) {\n        // Verify if the sender is admin\n        if(msg.sender != admin) {\n            emit error(\"You're not admin.\");\n            return false;\n        }\n\n        // Verify side\n        if(_side != 1 && _side != 2) {\n            emit error(\"Wrong side.\");\n            return false;\n        }\n\n        //verify status\n        if(_status != 1 && _status != 2){\n            emit error(\"Wrong status.\");\n            return false;\n        }\n\n        for(uint i = 0; i < bets.length; i++) {\n            if(bets[i].id == _id) {\n                // Verify if bet is pending\n                if(bets[i].side1.status == PENDING && bets[i].side1.status == PENDING){\n\n                    // Side 1\n                    if(_side == 1) {\n                        bets[i].side1.status = _status;\n                        if(_status == 1){\n                            bets[i].side2.status = 2;\n                            winners = bets[i].side1.players;\n                        } else if(_status == 2) {\n                            bets[i].side1.status = 2;\n                            winners = bets[i].side2.players;\n                        }\n                    }\n\n                    // Side 2\n                    if(_side == 2) {\n                        bets[i].side2.status = _status;\n                        if(_status == 1) {\n                            bets[i].side1.status = 2;\n                            winners = bets[i].side2.players;\n                        } else if(_status == 2) {\n                            bets[i].side2.status = 2;\n                            winners = bets[i].side1.players;\n                        }\n                    }\n                }\n            }\n        }\n        return true;\n    }\n\n    // Pay winners\n    function payWinners(uint256 _id) public payable returns(bool) {\n        uint256 totalAmount = 0;\n        uint256 winnerAmount;\n\n        // Verify if there is winners\n        // if(winners.length == 0) {\n        //     emit error(\"No winners.\");\n        //     return false;\n        // }\n\n        // Total amount\n        for(uint i = 0; i < bets.length; i++) {\n            if(bets[i].id == _id) {\n                totalAmount += bets[i].side1.amount;\n                totalAmount += bets[i].side2.amount;\n            }\n        }\n\n        // Calc amount / winner\n        winnerAmount = totalAmount / winners.length;\n\n        // Reward winners\n        for(uint i = 0; i < winners.length; i++)\n            winners[i].transfer(winnerAmount);\n\n        delete winners;\n\n        return true;\n    }\n\n    function getAdmin() public view returns(address){\n        return admin;\n    }\n}",
  "sourcePath": "/home/osboxes/Bureau/PROJET/FDJ-ESGI/contracts/Bets.sol",
  "compiler": {
    "name": "solc",
    "version": "0.5.16+commit.9c3226ce.Emscripten.clang"
  },
  "schemaVersion": "3.3.2",
  "updatedAt": "2021-02-06T22:56:42.291Z",
  "networkType": "ethereum",
  "devdoc": {
    "methods": {}
  },
  "userdoc": {
    "methods": {}
  }
}