{
  "contractName": "Lotery",
  "abi": [
    {
      "inputs": [],
      "payable": false,
      "stateMutability": "nonpayable",
      "type": "constructor"
    },
    {
      "anonymous": false,
      "inputs": [
        {
          "indexed": false,
          "internalType": "string",
          "name": "_error",
          "type": "string"
        }
      ],
      "name": "error",
      "type": "event"
    },
    {
      "constant": true,
      "inputs": [
        {
          "internalType": "uint256",
          "name": "",
          "type": "uint256"
        }
      ],
      "name": "Loteries",
      "outputs": [
        {
          "internalType": "uint256",
          "name": "id",
          "type": "uint256"
        },
        {
          "internalType": "string",
          "name": "name",
          "type": "string"
        },
        {
          "internalType": "bool",
          "name": "status",
          "type": "bool"
        }
      ],
      "payable": false,
      "stateMutability": "view",
      "type": "function"
    },
    {
      "constant": true,
      "inputs": [
        {
          "internalType": "uint256",
          "name": "",
          "type": "uint256"
        }
      ],
      "name": "LoteryGain",
      "outputs": [
        {
          "internalType": "uint256",
          "name": "",
          "type": "uint256"
        }
      ],
      "payable": false,
      "stateMutability": "view",
      "type": "function"
    },
    {
      "constant": true,
      "inputs": [],
      "name": "idLotery",
      "outputs": [
        {
          "internalType": "uint256",
          "name": "",
          "type": "uint256"
        }
      ],
      "payable": false,
      "stateMutability": "view",
      "type": "function"
    },
    {
      "constant": true,
      "inputs": [
        {
          "internalType": "uint256",
          "name": "",
          "type": "uint256"
        },
        {
          "internalType": "uint256",
          "name": "",
          "type": "uint256"
        }
      ],
      "name": "participantIdLotery",
      "outputs": [
        {
          "internalType": "address payable",
          "name": "",
          "type": "address"
        }
      ],
      "payable": false,
      "stateMutability": "view",
      "type": "function"
    },
    {
      "constant": false,
      "inputs": [
        {
          "internalType": "uint256",
          "name": "idLot",
          "type": "uint256"
        }
      ],
      "name": "participateToLotery",
      "outputs": [
        {
          "internalType": "uint256",
          "name": "",
          "type": "uint256"
        }
      ],
      "payable": true,
      "stateMutability": "payable",
      "type": "function"
    },
    {
      "constant": true,
      "inputs": [
        {
          "internalType": "uint256",
          "name": "idLot",
          "type": "uint256"
        }
      ],
      "name": "listParticipantsForLot",
      "outputs": [
        {
          "internalType": "address payable[]",
          "name": "",
          "type": "address[]"
        }
      ],
      "payable": false,
      "stateMutability": "view",
      "type": "function"
    },
    {
      "constant": true,
      "inputs": [
        {
          "internalType": "uint256",
          "name": "_id",
          "type": "uint256"
        },
        {
          "internalType": "address",
          "name": "_a",
          "type": "address"
        }
      ],
      "name": "existingPlayerInLotery",
      "outputs": [
        {
          "internalType": "bool",
          "name": "",
          "type": "bool"
        }
      ],
      "payable": false,
      "stateMutability": "view",
      "type": "function"
    },
    {
      "constant": true,
      "inputs": [
        {
          "internalType": "string",
          "name": "_name",
          "type": "string"
        }
      ],
      "name": "existingLoteryByName",
      "outputs": [
        {
          "internalType": "bool",
          "name": "",
          "type": "bool"
        }
      ],
      "payable": false,
      "stateMutability": "view",
      "type": "function"
    },
    {
      "constant": true,
      "inputs": [
        {
          "internalType": "uint256",
          "name": "_id",
          "type": "uint256"
        }
      ],
      "name": "existingLoteryById",
      "outputs": [
        {
          "internalType": "bool",
          "name": "",
          "type": "bool"
        }
      ],
      "payable": false,
      "stateMutability": "view",
      "type": "function"
    },
    {
      "constant": false,
      "inputs": [
        {
          "internalType": "string",
          "name": "_name",
          "type": "string"
        }
      ],
      "name": "addLotery",
      "outputs": [],
      "payable": false,
      "stateMutability": "nonpayable",
      "type": "function"
    },
    {
      "constant": true,
      "inputs": [],
      "name": "getLoteryLenght",
      "outputs": [
        {
          "internalType": "uint256",
          "name": "",
          "type": "uint256"
        }
      ],
      "payable": false,
      "stateMutability": "view",
      "type": "function"
    },
    {
      "constant": true,
      "inputs": [
        {
          "internalType": "uint256",
          "name": "_id",
          "type": "uint256"
        }
      ],
      "name": "listLoteries",
      "outputs": [
        {
          "internalType": "uint256",
          "name": "",
          "type": "uint256"
        },
        {
          "internalType": "string",
          "name": "",
          "type": "string"
        },
        {
          "internalType": "bool",
          "name": "",
          "type": "bool"
        }
      ],
      "payable": false,
      "stateMutability": "view",
      "type": "function"
    },
    {
      "constant": false,
      "inputs": [
        {
          "internalType": "uint256",
          "name": "idLot",
          "type": "uint256"
        }
      ],
      "name": "pickWinnerForLotery",
      "outputs": [],
      "payable": true,
      "stateMutability": "payable",
      "type": "function"
    },
    {
      "constant": true,
      "inputs": [],
      "name": "getContractBalance",
      "outputs": [
        {
          "internalType": "uint256",
          "name": "",
          "type": "uint256"
        }
      ],
      "payable": false,
      "stateMutability": "view",
      "type": "function"
    },
    {
      "constant": true,
      "inputs": [
        {
          "internalType": "address",
          "name": "_account",
          "type": "address"
        }
      ],
      "name": "getAccountBalance",
      "outputs": [
        {
          "internalType": "uint256",
          "name": "",
          "type": "uint256"
        }
      ],
      "payable": false,
      "stateMutability": "view",
      "type": "function"
    },
    {
      "constant": true,
      "inputs": [
        {
          "internalType": "uint256",
          "name": "_lotery",
          "type": "uint256"
        }
      ],
      "name": "getLoteryGain",
      "outputs": [
        {
          "internalType": "uint256",
          "name": "",
          "type": "uint256"
        }
      ],
      "payable": false,
      "stateMutability": "view",
      "type": "function"
    },
    {
      "constant": true,
      "inputs": [],
      "name": "getAdmin",
      "outputs": [
        {
          "internalType": "address",
          "name": "",
          "type": "address"
        }
      ],
      "payable": false,
      "stateMutability": "view",
      "type": "function"
    },
    {
      "constant": true,
      "inputs": [],
      "name": "getLoteriesCount",
      "outputs": [
        {
          "internalType": "uint256",
          "name": "",
          "type": "uint256"
        }
      ],
      "payable": false,
      "stateMutability": "view",
      "type": "function"
    },
    {
      "constant": false,
      "inputs": [
        {
          "internalType": "uint256",
          "name": "id",
          "type": "uint256"
        },
        {
          "internalType": "bool",
          "name": "isUp",
          "type": "bool"
        }
      ],
      "name": "setStatus",
      "outputs": [
        {
          "internalType": "bool",
          "name": "",
          "type": "bool"
        }
      ],
      "payable": false,
      "stateMutability": "nonpayable",
      "type": "function"
    }
  ],
  "bytecode": "0x608060405234801561001057600080fd5b50600060028190555033600160006101000a81548173ffffffffffffffffffffffffffffffffffffffff021916908373ffffffffffffffffffffffffffffffffffffffff160217905550611858806100696000396000f3fe6080604052600436106101145760003560e01c80638719e8ac116100a0578063b765bb4911610064578063b765bb491461068a578063c27957981461076a578063dddc4845146107b9578063e6f633bf1461087f578063fa988d07146108aa57610114565b80638719e8ac1461046257806393423e9c146104c1578063a22798ce14610526578063a4ba5d4714610599578063ac60eb38146105c457610114565b80633976ee0e116100e75780633976ee0e146102bf5780633b6d15da1461034f57806344c8da4b146103915780636e9960c3146103e05780636f9fb98a1461043757610114565b8063076ca4bb1461011957806309882af7146101445780630aac1158146101c95780633124dc7d146101f7575b600080fd5b34801561012557600080fd5b5061012e6108fd565b6040518082815260200191505060405180910390f35b34801561015057600080fd5b506101876004803603604081101561016757600080fd5b810190808035906020019092919080359060200190929190505050610909565b604051808273ffffffffffffffffffffffffffffffffffffffff1673ffffffffffffffffffffffffffffffffffffffff16815260200191505060405180910390f35b6101f5600480360360208110156101df57600080fd5b8101908080359060200190929190505050610954565b005b34801561020357600080fd5b506102bd6004803603602081101561021a57600080fd5b810190808035906020019064010000000081111561023757600080fd5b82018360208201111561024957600080fd5b8035906020019184600183028401116401000000008311171561026b57600080fd5b91908080601f016020809104026020016040519081016040528093929190818152602001838380828437600081840152601f19601f820116905080830192505050505050509192919290505050610cf2565b005b3480156102cb57600080fd5b506102f8600480360360208110156102e257600080fd5b8101908080359060200190929190505050610edd565b6040518080602001828103825283818151815260200191508051906020019060200280838360005b8381101561033b578082015181840152602081019050610320565b505050509050019250505060405180910390f35b61037b6004803603602081101561036557600080fd5b8101908080359060200190929190505050610f7e565b6040518082815260200191505060405180910390f35b34801561039d57600080fd5b506103ca600480360360208110156103b457600080fd5b8101908080359060200190929190505050611131565b6040518082815260200191505060405180910390f35b3480156103ec57600080fd5b506103f561114e565b604051808273ffffffffffffffffffffffffffffffffffffffff1673ffffffffffffffffffffffffffffffffffffffff16815260200191505060405180910390f35b34801561044357600080fd5b5061044c611178565b6040518082815260200191505060405180910390f35b34801561046e57600080fd5b506104a76004803603604081101561048557600080fd5b8101908080359060200190929190803515159060200190929190505050611197565b604051808215151515815260200191505060405180910390f35b3480156104cd57600080fd5b50610510600480360360208110156104e457600080fd5b81019080803573ffffffffffffffffffffffffffffffffffffffff1690602001909291905050506111d9565b6040518082815260200191505060405180910390f35b34801561053257600080fd5b5061057f6004803603604081101561054957600080fd5b8101908080359060200190929190803573ffffffffffffffffffffffffffffffffffffffff1690602001909291905050506111fa565b604051808215151515815260200191505060405180910390f35b3480156105a557600080fd5b506105ae6112bf565b6040518082815260200191505060405180910390f35b3480156105d057600080fd5b506105fd600480360360208110156105e757600080fd5b81019080803590602001909291905050506112c5565b604051808481526020018060200183151515158152602001828103825284818151815260200191508051906020019080838360005b8381101561064d578082015181840152602081019050610632565b50505050905090810190601f16801561067a5780820380516001836020036101000a031916815260200191505b5094505050505060405180910390f35b34801561069657600080fd5b50610750600480360360208110156106ad57600080fd5b81019080803590602001906401000000008111156106ca57600080fd5b8201836020820111156106dc57600080fd5b803590602001918460018302840111640100000000831117156106fe57600080fd5b91908080601f016020809104026020016040519081016040528093929190818152602001838380828437600081840152601f19601f8201169050808301925050505050505091929192905050506113a1565b604051808215151515815260200191505060405180910390f35b34801561077657600080fd5b506107a36004803603602081101561078d57600080fd5b81019080803590602001909291905050506114e7565b6040518082815260200191505060405180910390f35b3480156107c557600080fd5b506107f2600480360360208110156107dc57600080fd5b81019080803590602001909291905050506114ff565b604051808481526020018060200183151515158152602001828103825284818151815260200191508051906020019080838360005b83811015610842578082015181840152602081019050610827565b50505050905090810190601f16801561086f5780820380516001836020036101000a031916815260200191505b5094505050505060405180910390f35b34801561088b57600080fd5b50610894611616565b6040518082815260200191505060405180910390f35b3480156108b657600080fd5b506108e3600480360360208110156108cd57600080fd5b8101908080359060200190929190505050611622565b604051808215151515815260200191505060405180910390f35b60008080549050905090565b6004602052816000526040600020818154811061092257fe5b906000526020600020016000915091509054906101000a900473ffffffffffffffffffffffffffffffffffffffff1681565b600160009054906101000a900473ffffffffffffffffffffffffffffffffffffffff1673ffffffffffffffffffffffffffffffffffffffff163373ffffffffffffffffffffffffffffffffffffffff1614610a17576040517f08c379a00000000000000000000000000000000000000000000000000000000081526004018080602001828103825260178152602001807f566f7573206e2765746573207061732061646d696e202100000000000000000081525060200191505060405180910390fd5b600160046000838152602001908152602001600020805490501115610ca35760006004600083815260200190815260200160002080549050444260046000868152602001908152602001600020604051602001808481526020018381526020018280548015610adb57602002820191906000526020600020905b8160009054906101000a900473ffffffffffffffffffffffffffffffffffffffff1673ffffffffffffffffffffffffffffffffffffffff1681526020019060010190808311610a91575b505093505050506040516020818303038152906040528051906020012060001c81610b0257fe5b0690506064605a60056000858152602001908152602001600020540281610b2557fe5b04600381905550600460008381526020019081526020016000208181548110610b4a57fe5b9060005260206000200160009054906101000a900473ffffffffffffffffffffffffffffffffffffffff1673ffffffffffffffffffffffffffffffffffffffff166108fc6003549081150290604051600060405180830381858888f19350505050158015610bbc573d6000803e3d6000fd5b50600160009054906101000a900473ffffffffffffffffffffffffffffffffffffffff1673ffffffffffffffffffffffffffffffffffffffff166108fc60056000858152602001908152602001600020549081150290604051600060405180830381858888f19350505050158015610c38573d6000803e3d6000fd5b506000604051908082528060200260200182016040528015610c695781602001602082028038833980820191505090505b50600460008481526020019081526020016000209080519060200190610c9092919061167f565b50610c9c826000611197565b5050610cef565b7f24c93343bea44ff8f0e628ca4e5b87dfe0823d664c887457e166a03798bb191c6040518080602001828103825260328152602001806117f26032913960400191505060405180910390a15b50565b600160009054906101000a900473ffffffffffffffffffffffffffffffffffffffff1673ffffffffffffffffffffffffffffffffffffffff163373ffffffffffffffffffffffffffffffffffffffff1614610db5576040517f08c379a00000000000000000000000000000000000000000000000000000000081526004018080602001828103825260178152602001807f566f7573206e2765746573207061732061646d696e202100000000000000000081525060200191505060405180910390fd5b610dbe816113a1565b15610e31576040517f08c379a00000000000000000000000000000000000000000000000000000000081526004018080602001828103825260148152602001807f4e616d6520616c7265616479207573656420212100000000000000000000000081525060200191505060405180910390fd5b6000604051806060016040528060025481526020018381526020016001151581525090806001815401808255809150509060018203906000526020600020906003020160009091929091909150600082015181600001556020820151816001019080519060200190610ea4929190611709565b5060408201518160020160006101000a81548160ff02191690831515021790555050505060026000815480929190600101919050555050565b606060046000838152602001908152602001600020805480602002602001604051908101604052809291908181526020018280548015610f7257602002820191906000526020600020905b8160009054906101000a900473ffffffffffffffffffffffffffffffffffffffff1673ffffffffffffffffffffffffffffffffffffffff1681526020019060010190808311610f28575b50505050509050919050565b6000610f8982611622565b156110bf57610f9882336111fa565b61104e57600460008381526020019081526020016000203390806001815401808255809150509060018203906000526020600020016000909192909190916101000a81548173ffffffffffffffffffffffffffffffffffffffff021916908373ffffffffffffffffffffffffffffffffffffffff1602179055505034600360008282540192505081905550346005600084815260200190815260200160002060008282540192505081905550600354905061112c565b7f24c93343bea44ff8f0e628ca4e5b87dfe0823d664c887457e166a03798bb191c60405180806020018281038252601e8152602001807f596f7527726520616c72656164792070617274696369706174696e672021000081525060200191505060405180910390a16001905061112c565b7f24c93343bea44ff8f0e628ca4e5b87dfe0823d664c887457e166a03798bb191c60405180806020018281038252601c8152602001807f54686973206c6f7465727920646f65736e27742065786973747320210000000081525060200191505060405180910390a1600290505b919050565b600060056000838152602001908152602001600020549050919050565b6000600160009054906101000a900473ffffffffffffffffffffffffffffffffffffffff16905090565b60003073ffffffffffffffffffffffffffffffffffffffff1631905090565b600081600084815481106111a757fe5b906000526020600020906003020160020160006101000a81548160ff0219169083151502179055506001905092915050565b60008173ffffffffffffffffffffffffffffffffffffffff16319050919050565b600080600090505b60046000858152602001908152602001600020805490508110156112b35760046000858152602001908152602001600020818154811061123e57fe5b9060005260206000200160009054906101000a900473ffffffffffffffffffffffffffffffffffffffff1673ffffffffffffffffffffffffffffffffffffffff168373ffffffffffffffffffffffffffffffffffffffff1614156112a65760019150506112b9565b8080600101915050611202565b50600090505b92915050565b60025481565b600081815481106112d257fe5b9060005260206000209060030201600091509050806000015490806001018054600181600116156101000203166002900480601f0160208091040260200160405190810160405280929190818152602001828054600181600116156101000203166002900480156113845780601f1061135957610100808354040283529160200191611384565b820191906000526020600020905b81548152906001019060200180831161136757829003601f168201915b5050505050908060020160009054906101000a900460ff16905083565b600080600090505b6000805490508110156114dc57600081815481106113c357fe5b906000526020600020906003020160010160405160200180828054600181600116156101000203166002900480156114325780601f10611410576101008083540402835291820191611432565b820191906000526020600020905b81548152906001019060200180831161141e575b505091505060405160208183030381529060405280519060200120836040516020018082805190602001908083835b602083106114845780518252602082019150602081019050602083039250611461565b6001836020036101000a0380198251168184511680821785525050505050509050019150506040516020818303038152906040528051906020012014156114cf5760019150506114e2565b80806001019150506113a9565b50600090505b919050565b60056020528060005260406000206000915090505481565b60006060600080848154811061151157fe5b9060005260206000209060030201600001546000858154811061153057fe5b90600052602060002090600302016001016000868154811061154e57fe5b906000526020600020906003020160020160009054906101000a900460ff16818054600181600116156101000203166002900480601f0160208091040260200160405190810160405280929190818152602001828054600181600116156101000203166002900480156116025780601f106115d757610100808354040283529160200191611602565b820191906000526020600020905b8154815290600101906020018083116115e557829003601f168201915b505050505091509250925092509193909250565b60008080549050905090565b600080600090505b600080549050811015611674576000818154811061164457fe5b90600052602060002090600302016000015483141561166757600191505061167a565b808060010191505061162a565b50600090505b919050565b8280548282559060005260206000209081019282156116f8579160200282015b828111156116f75782518260006101000a81548173ffffffffffffffffffffffffffffffffffffffff021916908373ffffffffffffffffffffffffffffffffffffffff1602179055509160200191906001019061169f565b5b5090506117059190611789565b5090565b828054600181600116156101000203166002900490600052602060002090601f016020900481019282601f1061174a57805160ff1916838001178555611778565b82800160010185558215611778579182015b8281111561177757825182559160200191906001019061175c565b5b50905061178591906117cc565b5090565b6117c991905b808211156117c557600081816101000a81549073ffffffffffffffffffffffffffffffffffffffff02191690555060010161178f565b5090565b90565b6117ee91905b808211156117ea5760008160009055506001016117d2565b5090565b9056fe43616e2774207069636b20612077696e6e657220626563617573652074686572652773206f6e6c79203120706c6179657221a265627a7a7231582008cff4e45c5dae1e71c7247645a301b4132202acd21505cb090c541562a888dd64736f6c63430005100032",
  "source": "pragma solidity >=0.5.0 <0.8.0;\r\n\r\ncontract Lotery {\r\n    \r\n    //lotery structure\r\n    struct FDJ_Lotery {\r\n        uint256 id;\r\n        string name;\r\n        bool status;\r\n    }\r\n\r\n    //mapping(uint => FDJ_Lotery)public Loteries;\r\n    \r\n    FDJ_Lotery[] public Loteries;\r\n\r\n    address payable admin;\r\n    uint256 public idLotery;\r\n    uint256 private gains;\r\n\r\n    mapping(uint256 => address payable[]) public participantIdLotery;\r\n    mapping(uint256 => uint256) public LoteryGain;\r\n    \r\n    constructor () public {\r\n        idLotery = 0;\r\n        admin = msg.sender;\r\n    }\r\n    event error(string _error);\r\n\r\n    function participateToLotery(uint256 idLot) public payable returns(uint256) {\r\n        //require(msg.value > 0.00002 ether, \"Mise minimum non respestee!\");\r\n        //require(existingLoteryById(idLot),\"La loterie n'existe pas bg\");\r\n        //require(!existingPlayerInLotery(idLot, msg.sender), \"Tu participes deja enfoireuh\");\r\n\r\n        if(existingLoteryById(idLot)){\r\n            if(!existingPlayerInLotery(idLot, msg.sender)){\r\n                participantIdLotery[idLot].push(msg.sender);\r\n                gains += msg.value;\r\n                LoteryGain[idLot] += msg.value;\r\n\r\n                // address(this) = address contrat - on convertit l'address en address payable pour qu'elle puisse recevoir des ETHs\r\n               // address payable tmp = address(uint160(address(this)));\r\n               // tmp.transfer(msg.value);\r\n                return gains;\r\n            }else{\r\n                emit error(\"You're already participating !\");\r\n                return 1;\r\n            }\r\n        }else{\r\n            emit error(\"This lotery doesn't exists !\");\r\n            return 2;\r\n        }\r\n        \r\n    }\r\n\r\n    function listParticipantsForLot(uint256 idLot) public view returns (address payable[] memory){\r\n        return participantIdLotery[idLot];\r\n    }\r\n    \r\n    function existingPlayerInLotery(uint256 _id, address _a) public view returns(bool){\r\n        for(uint i = 0; i < participantIdLotery[_id].length; i++){\r\n            if(_a == participantIdLotery[_id][i]){\r\n                return true;\r\n            }\r\n        }\r\n        return false;\r\n    }\r\n    \r\n    function existingLoteryByName(string memory _name) public view returns(bool){\r\n        for(uint i = 0; i < Loteries.length; i++){\r\n            if(keccak256(abi.encodePacked(_name)) == keccak256(abi.encodePacked(Loteries[i].name))){\r\n                return true;\r\n            }\r\n        }\r\n        return false;\r\n    }\r\n    \r\n    function existingLoteryById(uint256 _id) public view returns(bool){\r\n        for(uint i = 0; i < Loteries.length; i++){\r\n            if(_id == Loteries[i].id){\r\n                return true;\r\n            }\r\n        }\r\n        return false;\r\n    }\r\n    \r\n    function addLotery(string memory _name) public restricted{\r\n        require(!existingLoteryByName(_name), \"Name already used !!\");\r\n        Loteries.push(FDJ_Lotery(idLotery, _name, true));\r\n        idLotery ++;\r\n    }\r\n\r\n    function getLoteryLenght() public view returns (uint256){\r\n        return Loteries.length;\r\n    }\r\n    \r\n    function listLoteries(uint256 _id) public view returns (uint256, string memory, bool){\r\n        return (Loteries[_id].id, Loteries[_id].name, Loteries[_id].status);\r\n    }\r\n\r\n    function pickWinnerForLotery(uint256 idLot) public payable restricted{\r\n\r\n        if(participantIdLotery[idLot].length > 1){\r\n            uint256 winner = (uint256(keccak256(abi.encodePacked(block.difficulty, block.timestamp, participantIdLotery[idLot])))) % participantIdLotery[idLot].length;\r\n            gains = uint256(LoteryGain[idLot])* uint256(90)/uint256(100);\r\n            participantIdLotery[idLot][winner].transfer(gains);\r\n            admin.transfer(LoteryGain[idLot]);\r\n            participantIdLotery[idLot] = new address payable[](0);\r\n            setStatus(idLot, false);\r\n        }else{\r\n            emit error(\"Can't pick a winner because there's only 1 player!\");\r\n        }\r\n       // require(participantIdLotery[idLot].length > 1, \"Minimum 2 joueurs\");\r\n    }\r\n    \r\n    function getContractBalance() public view returns(uint256){\r\n        return address(this).balance;\r\n    }\r\n\r\n    function getAccountBalance(address _account) public view returns(uint256){\r\n        return _account.balance;\r\n    }\r\n\r\n    function getLoteryGain(uint256 _lotery) public view returns(uint256){\r\n        return LoteryGain[_lotery];\r\n    }\r\n\r\n    function getAdmin() public view returns(address){\r\n        return admin;\r\n    }\r\n\r\n    modifier restricted(){\r\n        require(msg.sender == admin, \"Vous n'etes pas admin !\");\r\n        _;\r\n    }\r\n\r\n    function getLoteriesCount() public view returns(uint) {\r\n        return Loteries.length;\r\n    }\r\n\r\n    function setStatus(uint256 id, bool isUp) public returns (bool){\r\n        Loteries[id].status = isUp;\r\n        return true;\r\n    }\r\n    \r\n}\r\n",
  "sourcePath": "/home/osboxes/Bureau/vuejs-helder2/contracts/Lotery.sol",
  "compiler": {
    "name": "solc",
    "version": "0.5.16+commit.9c3226ce.Emscripten.clang"
  },
  "schemaVersion": "3.3.2",
  "updatedAt": "2021-01-30T21:39:48.959Z",
  "networkType": "ethereum",
  "devdoc": {
    "methods": {}
  },
  "userdoc": {
    "methods": {}
  }
}