{
  "contractName": "Lotery",
  "abi": [
    {
      "inputs": [],
      "payable": false,
      "stateMutability": "nonpayable",
      "type": "constructor"
    },
    {
      "anonymous": false,
      "inputs": [
        {
          "indexed": false,
          "internalType": "string",
          "name": "_error",
          "type": "string"
        }
      ],
      "name": "error",
      "type": "event"
    },
    {
      "constant": true,
      "inputs": [
        {
          "internalType": "uint256",
          "name": "",
          "type": "uint256"
        }
      ],
      "name": "Loteries",
      "outputs": [
        {
          "internalType": "uint256",
          "name": "id",
          "type": "uint256"
        },
        {
          "internalType": "string",
          "name": "name",
          "type": "string"
        }
      ],
      "payable": false,
      "stateMutability": "view",
      "type": "function"
    },
    {
      "constant": true,
      "inputs": [
        {
          "internalType": "uint256",
          "name": "",
          "type": "uint256"
        }
      ],
      "name": "LoteryGain",
      "outputs": [
        {
          "internalType": "uint256",
          "name": "",
          "type": "uint256"
        }
      ],
      "payable": false,
      "stateMutability": "view",
      "type": "function"
    },
    {
      "constant": true,
      "inputs": [],
      "name": "idLotery",
      "outputs": [
        {
          "internalType": "uint256",
          "name": "",
          "type": "uint256"
        }
      ],
      "payable": false,
      "stateMutability": "view",
      "type": "function"
    },
    {
      "constant": true,
      "inputs": [
        {
          "internalType": "uint256",
          "name": "",
          "type": "uint256"
        },
        {
          "internalType": "uint256",
          "name": "",
          "type": "uint256"
        }
      ],
      "name": "participantIdLotery",
      "outputs": [
        {
          "internalType": "address payable",
          "name": "",
          "type": "address"
        }
      ],
      "payable": false,
      "stateMutability": "view",
      "type": "function"
    },
    {
      "constant": false,
      "inputs": [
        {
          "internalType": "uint256",
          "name": "idLot",
          "type": "uint256"
        }
      ],
      "name": "participateToLotery",
      "outputs": [
        {
          "internalType": "uint256",
          "name": "",
          "type": "uint256"
        }
      ],
      "payable": true,
      "stateMutability": "payable",
      "type": "function"
    },
    {
      "constant": true,
      "inputs": [
        {
          "internalType": "uint256",
          "name": "idLot",
          "type": "uint256"
        }
      ],
      "name": "listParticipantsForLot",
      "outputs": [
        {
          "internalType": "address payable[]",
          "name": "",
          "type": "address[]"
        }
      ],
      "payable": false,
      "stateMutability": "view",
      "type": "function"
    },
    {
      "constant": true,
      "inputs": [
        {
          "internalType": "uint256",
          "name": "_id",
          "type": "uint256"
        },
        {
          "internalType": "address",
          "name": "_a",
          "type": "address"
        }
      ],
      "name": "existingPlayerInLotery",
      "outputs": [
        {
          "internalType": "bool",
          "name": "",
          "type": "bool"
        }
      ],
      "payable": false,
      "stateMutability": "view",
      "type": "function"
    },
    {
      "constant": true,
      "inputs": [
        {
          "internalType": "string",
          "name": "_name",
          "type": "string"
        }
      ],
      "name": "existingLoteryByName",
      "outputs": [
        {
          "internalType": "bool",
          "name": "",
          "type": "bool"
        }
      ],
      "payable": false,
      "stateMutability": "view",
      "type": "function"
    },
    {
      "constant": true,
      "inputs": [
        {
          "internalType": "uint256",
          "name": "_id",
          "type": "uint256"
        }
      ],
      "name": "existingLoteryById",
      "outputs": [
        {
          "internalType": "bool",
          "name": "",
          "type": "bool"
        }
      ],
      "payable": false,
      "stateMutability": "view",
      "type": "function"
    },
    {
      "constant": false,
      "inputs": [
        {
          "internalType": "string",
          "name": "_name",
          "type": "string"
        }
      ],
      "name": "addLotery",
      "outputs": [],
      "payable": false,
      "stateMutability": "nonpayable",
      "type": "function"
    },
    {
      "constant": true,
      "inputs": [],
      "name": "getLoteryLenght",
      "outputs": [
        {
          "internalType": "uint256",
          "name": "",
          "type": "uint256"
        }
      ],
      "payable": false,
      "stateMutability": "view",
      "type": "function"
    },
    {
      "constant": true,
      "inputs": [
        {
          "internalType": "uint256",
          "name": "_id",
          "type": "uint256"
        }
      ],
      "name": "listLoteries",
      "outputs": [
        {
          "internalType": "uint256",
          "name": "",
          "type": "uint256"
        },
        {
          "internalType": "string",
          "name": "",
          "type": "string"
        }
      ],
      "payable": false,
      "stateMutability": "view",
      "type": "function"
    },
    {
      "constant": false,
      "inputs": [
        {
          "internalType": "uint256",
          "name": "idLot",
          "type": "uint256"
        }
      ],
      "name": "pickWinnerForLotery",
      "outputs": [],
      "payable": true,
      "stateMutability": "payable",
      "type": "function"
    },
    {
      "constant": true,
      "inputs": [],
      "name": "getContractBalance",
      "outputs": [
        {
          "internalType": "uint256",
          "name": "",
          "type": "uint256"
        }
      ],
      "payable": false,
      "stateMutability": "view",
      "type": "function"
    },
    {
      "constant": true,
      "inputs": [
        {
          "internalType": "address",
          "name": "_account",
          "type": "address"
        }
      ],
      "name": "getAccountBalance",
      "outputs": [
        {
          "internalType": "uint256",
          "name": "",
          "type": "uint256"
        }
      ],
      "payable": false,
      "stateMutability": "view",
      "type": "function"
    },
    {
      "constant": true,
      "inputs": [
        {
          "internalType": "uint256",
          "name": "_lotery",
          "type": "uint256"
        }
      ],
      "name": "getLoteryGain",
      "outputs": [
        {
          "internalType": "uint256",
          "name": "",
          "type": "uint256"
        }
      ],
      "payable": false,
      "stateMutability": "view",
      "type": "function"
    },
    {
      "constant": true,
      "inputs": [],
      "name": "getAdmin",
      "outputs": [
        {
          "internalType": "address",
          "name": "",
          "type": "address"
        }
      ],
      "payable": false,
      "stateMutability": "view",
      "type": "function"
    }
  ],
  "bytecode": "0x608060405234801561001057600080fd5b50600060028190555033600160006101000a81548173ffffffffffffffffffffffffffffffffffffffff021916908373ffffffffffffffffffffffffffffffffffffffff1602179055506116d2806100696000396000f3fe6080604052600436106100fe5760003560e01c80636f9fb98a11610095578063ac60eb3811610064578063ac60eb381461054f578063b765bb491461060a578063c2795798146106ea578063dddc484514610739578063fa988d07146107f4576100fe565b80636f9fb98a1461042157806393423e9c1461044c578063a22798ce146104b1578063a4ba5d4714610524576100fe565b80633976ee0e116100d15780633976ee0e146102a95780633b6d15da1461033957806344c8da4b1461037b5780636e9960c3146103ca576100fe565b8063076ca4bb1461010357806309882af71461012e5780630aac1158146101b35780633124dc7d146101e1575b600080fd5b34801561010f57600080fd5b50610118610847565b6040518082815260200191505060405180910390f35b34801561013a57600080fd5b506101716004803603604081101561015157600080fd5b810190808035906020019092919080359060200190929190505050610853565b604051808273ffffffffffffffffffffffffffffffffffffffff1673ffffffffffffffffffffffffffffffffffffffff16815260200191505060405180910390f35b6101df600480360360208110156101c957600080fd5b810190808035906020019092919050505061089e565b005b3480156101ed57600080fd5b506102a76004803603602081101561020457600080fd5b810190808035906020019064010000000081111561022157600080fd5b82018360208201111561023357600080fd5b8035906020019184600183028401116401000000008311171561025557600080fd5b91908080601f016020809104026020016040519081016040528093929190818152602001838380828437600081840152601f19601f820116905080830192505050505050509192919290505050610c30565b005b3480156102b557600080fd5b506102e2600480360360208110156102cc57600080fd5b8101908080359060200190929190505050610df2565b6040518080602001828103825283818151815260200191508051906020019060200280838360005b8381101561032557808201518184015260208101905061030a565b505050509050019250505060405180910390f35b6103656004803603602081101561034f57600080fd5b8101908080359060200190929190505050610e93565b6040518082815260200191505060405180910390f35b34801561038757600080fd5b506103b46004803603602081101561039e57600080fd5b810190808035906020019092919050505061103d565b6040518082815260200191505060405180910390f35b3480156103d657600080fd5b506103df61105a565b604051808273ffffffffffffffffffffffffffffffffffffffff1673ffffffffffffffffffffffffffffffffffffffff16815260200191505060405180910390f35b34801561042d57600080fd5b50610436611084565b6040518082815260200191505060405180910390f35b34801561045857600080fd5b5061049b6004803603602081101561046f57600080fd5b81019080803573ffffffffffffffffffffffffffffffffffffffff1690602001909291905050506110a3565b6040518082815260200191505060405180910390f35b3480156104bd57600080fd5b5061050a600480360360408110156104d457600080fd5b8101908080359060200190929190803573ffffffffffffffffffffffffffffffffffffffff1690602001909291905050506110c4565b604051808215151515815260200191505060405180910390f35b34801561053057600080fd5b50610539611189565b6040518082815260200191505060405180910390f35b34801561055b57600080fd5b506105886004803603602081101561057257600080fd5b810190808035906020019092919050505061118f565b6040518083815260200180602001828103825283818151815260200191508051906020019080838360005b838110156105ce5780820151818401526020810190506105b3565b50505050905090810190601f1680156105fb5780820380516001836020036101000a031916815260200191505b50935050505060405180910390f35b34801561061657600080fd5b506106d06004803603602081101561062d57600080fd5b810190808035906020019064010000000081111561064a57600080fd5b82018360208201111561065c57600080fd5b8035906020019184600183028401116401000000008311171561067e57600080fd5b91908080601f016020809104026020016040519081016040528093929190818152602001838380828437600081840152601f19601f820116905080830192505050505050509192919290505050611258565b604051808215151515815260200191505060405180910390f35b3480156106f657600080fd5b506107236004803603602081101561070d57600080fd5b810190808035906020019092919050505061139e565b6040518082815260200191505060405180910390f35b34801561074557600080fd5b506107726004803603602081101561075c57600080fd5b81019080803590602001909291905050506113b6565b6040518083815260200180602001828103825283818151815260200191508051906020019080838360005b838110156107b857808201518184015260208101905061079d565b50505050905090810190601f1680156107e55780820380516001836020036101000a031916815260200191505b50935050505060405180910390f35b34801561080057600080fd5b5061082d6004803603602081101561081757600080fd5b810190808035906020019092919050505061149c565b604051808215151515815260200191505060405180910390f35b60008080549050905090565b6004602052816000526040600020818154811061086c57fe5b906000526020600020016000915091509054906101000a900473ffffffffffffffffffffffffffffffffffffffff1681565b600160009054906101000a900473ffffffffffffffffffffffffffffffffffffffff1673ffffffffffffffffffffffffffffffffffffffff163373ffffffffffffffffffffffffffffffffffffffff1614610961576040517f08c379a00000000000000000000000000000000000000000000000000000000081526004018080602001828103825260178152602001807f566f7573206e2765746573207061732061646d696e202100000000000000000081525060200191505060405180910390fd5b600160046000838152602001908152602001600020805490501115610be15760006004600083815260200190815260200160002080549050444260046000868152602001908152602001600020604051602001808481526020018381526020018280548015610a2557602002820191906000526020600020905b8160009054906101000a900473ffffffffffffffffffffffffffffffffffffffff1673ffffffffffffffffffffffffffffffffffffffff16815260200190600101908083116109db575b505093505050506040516020818303038152906040528051906020012060001c81610a4c57fe5b0690506064605a60056000858152602001908152602001600020540281610a6f57fe5b04600381905550600460008381526020019081526020016000208181548110610a9457fe5b9060005260206000200160009054906101000a900473ffffffffffffffffffffffffffffffffffffffff1673ffffffffffffffffffffffffffffffffffffffff166108fc6003549081150290604051600060405180830381858888f19350505050158015610b06573d6000803e3d6000fd5b50600160009054906101000a900473ffffffffffffffffffffffffffffffffffffffff1673ffffffffffffffffffffffffffffffffffffffff166108fc60056000858152602001908152602001600020549081150290604051600060405180830381858888f19350505050158015610b82573d6000803e3d6000fd5b506000604051908082528060200260200182016040528015610bb35781602001602082028038833980820191505090505b50600460008481526020019081526020016000209080519060200190610bda9291906114f9565b5050610c2d565b7f24c93343bea44ff8f0e628ca4e5b87dfe0823d664c887457e166a03798bb191c60405180806020018281038252603281526020018061166c6032913960400191505060405180910390a15b50565b600160009054906101000a900473ffffffffffffffffffffffffffffffffffffffff1673ffffffffffffffffffffffffffffffffffffffff163373ffffffffffffffffffffffffffffffffffffffff1614610cf3576040517f08c379a00000000000000000000000000000000000000000000000000000000081526004018080602001828103825260178152602001807f566f7573206e2765746573207061732061646d696e202100000000000000000081525060200191505060405180910390fd5b610cfc81611258565b15610d6f576040517f08c379a00000000000000000000000000000000000000000000000000000000081526004018080602001828103825260148152602001807f4e616d6520616c7265616479207573656420212100000000000000000000000081525060200191505060405180910390fd5b6000604051806040016040528060025481526020018381525090806001815401808255809150509060018203906000526020600020906002020160009091929091909150600082015181600001556020820151816001019080519060200190610dd9929190611583565b5050505060026000815480929190600101919050555050565b606060046000838152602001908152602001600020805480602002602001604051908101604052809291908181526020018280548015610e8757602002820191906000526020600020905b8160009054906101000a900473ffffffffffffffffffffffffffffffffffffffff1673ffffffffffffffffffffffffffffffffffffffff1681526020019060010190808311610e3d575b50505050509050919050565b6000610e9e8261149c565b15610fcb57610ead82336110c4565b610f5a57600460008381526020019081526020016000203390806001815401808255809150509060018203906000526020600020016000909192909190916101000a81548173ffffffffffffffffffffffffffffffffffffffff021916908373ffffffffffffffffffffffffffffffffffffffff16021790555050346003819055503460056000848152602001908152602001600020600082825401925050819055506003549050611038565b7f24c93343bea44ff8f0e628ca4e5b87dfe0823d664c887457e166a03798bb191c60405180806020018281038252601e8152602001807f596f7527726520616c72656164792070617274696369706174696e672021000081525060200191505060405180910390a160019050611038565b7f24c93343bea44ff8f0e628ca4e5b87dfe0823d664c887457e166a03798bb191c60405180806020018281038252601c8152602001807f54686973206c6f7465727920646f65736e27742065786973747320210000000081525060200191505060405180910390a1600290505b919050565b600060056000838152602001908152602001600020549050919050565b6000600160009054906101000a900473ffffffffffffffffffffffffffffffffffffffff16905090565b60003073ffffffffffffffffffffffffffffffffffffffff1631905090565b60008173ffffffffffffffffffffffffffffffffffffffff16319050919050565b600080600090505b600460008581526020019081526020016000208054905081101561117d5760046000858152602001908152602001600020818154811061110857fe5b9060005260206000200160009054906101000a900473ffffffffffffffffffffffffffffffffffffffff1673ffffffffffffffffffffffffffffffffffffffff168373ffffffffffffffffffffffffffffffffffffffff161415611170576001915050611183565b80806001019150506110cc565b50600090505b92915050565b60025481565b6000818154811061119c57fe5b9060005260206000209060020201600091509050806000015490806001018054600181600116156101000203166002900480601f01602080910402602001604051908101604052809291908181526020018280546001816001161561010002031660029004801561124e5780601f106112235761010080835404028352916020019161124e565b820191906000526020600020905b81548152906001019060200180831161123157829003601f168201915b5050505050905082565b600080600090505b600080549050811015611393576000818154811061127a57fe5b906000526020600020906002020160010160405160200180828054600181600116156101000203166002900480156112e95780601f106112c75761010080835404028352918201916112e9565b820191906000526020600020905b8154815290600101906020018083116112d5575b505091505060405160208183030381529060405280519060200120836040516020018082805190602001908083835b6020831061133b5780518252602082019150602081019050602083039250611318565b6001836020036101000a038019825116818451168082178552505050505050905001915050604051602081830303815290604052805190602001201415611386576001915050611399565b8080600101915050611260565b50600090505b919050565b60056020528060005260406000206000915090505481565b60006060600083815481106113c757fe5b906000526020600020906002020160000154600084815481106113e657fe5b9060005260206000209060020201600101808054600181600116156101000203166002900480601f01602080910402602001604051908101604052809291908181526020018280546001816001161561010002031660029004801561148c5780601f106114615761010080835404028352916020019161148c565b820191906000526020600020905b81548152906001019060200180831161146f57829003601f168201915b5050505050905091509150915091565b600080600090505b6000805490508110156114ee57600081815481106114be57fe5b9060005260206000209060020201600001548314156114e15760019150506114f4565b80806001019150506114a4565b50600090505b919050565b828054828255906000526020600020908101928215611572579160200282015b828111156115715782518260006101000a81548173ffffffffffffffffffffffffffffffffffffffff021916908373ffffffffffffffffffffffffffffffffffffffff16021790555091602001919060010190611519565b5b50905061157f9190611603565b5090565b828054600181600116156101000203166002900490600052602060002090601f016020900481019282601f106115c457805160ff19168380011785556115f2565b828001600101855582156115f2579182015b828111156115f15782518255916020019190600101906115d6565b5b5090506115ff9190611646565b5090565b61164391905b8082111561163f57600081816101000a81549073ffffffffffffffffffffffffffffffffffffffff021916905550600101611609565b5090565b90565b61166891905b8082111561166457600081600090555060010161164c565b5090565b9056fe43616e2774207069636b20612077696e6e657220626563617573652074686572652773206f6e6c79203120706c6179657221a265627a7a723158209b5a41e07ee06a9f95f0bc15b03a161fc378750f3c86e8e6234feb573f34596564736f6c63430005100032",
  "source": "pragma solidity >=0.5.0 <0.8.0;\r\n\r\ncontract Lotery {\r\n    \r\n    //lotery structure\r\n    struct FDJ_Lotery {\r\n        uint256 id;\r\n        string name;\r\n    }\r\n\r\n    //mapping(uint => FDJ_Lotery)public Loteries;\r\n    \r\n    FDJ_Lotery[] public Loteries;\r\n\r\n    address payable admin;\r\n    uint256 public idLotery;\r\n    uint256 private gains;\r\n\r\n    mapping(uint256 => address payable[]) public participantIdLotery;\r\n    mapping(uint256 => uint256) public LoteryGain;\r\n    \r\n    constructor () public {\r\n        idLotery = 0;\r\n        admin = msg.sender;\r\n    }\r\n    event error(string _error);\r\n\r\n    function participateToLotery(uint256 idLot) public payable returns(uint256) {\r\n        //require(msg.value > 0.00002 ether, \"Mise minimum non respestee!\");\r\n        //require(existingLoteryById(idLot),\"La loterie n'existe pas bg\");\r\n        //require(!existingPlayerInLotery(idLot, msg.sender), \"Tu participes deja enfoireuh\");\r\n\r\n        if(existingLoteryById(idLot)){\r\n            if(!existingPlayerInLotery(idLot, msg.sender)){\r\n                participantIdLotery[idLot].push(msg.sender);\r\n                gains = msg.value;\r\n                LoteryGain[idLot] += msg.value;\r\n\r\n                // address(this) = address contrat - on convertit l'address en address payable pour qu'elle puisse recevoir des ETHs\r\n               // address payable tmp = address(uint160(address(this)));\r\n               // tmp.transfer(msg.value);\r\n                return gains;\r\n            }else{\r\n                emit error(\"You're already participating !\");\r\n                return 1;\r\n            }\r\n        }else{\r\n            emit error(\"This lotery doesn't exists !\");\r\n            return 2;\r\n        }\r\n        \r\n    }\r\n\r\n    function listParticipantsForLot(uint256 idLot) public view returns (address payable[] memory){\r\n        return participantIdLotery[idLot];\r\n    }\r\n    \r\n    function existingPlayerInLotery(uint256 _id, address _a) public view returns(bool){\r\n        for(uint i = 0; i < participantIdLotery[_id].length; i++){\r\n            if(_a == participantIdLotery[_id][i]){\r\n                return true;\r\n            }\r\n        }\r\n        return false;\r\n    }\r\n    \r\n    function existingLoteryByName(string memory _name) public view returns(bool){\r\n        for(uint i = 0; i < Loteries.length; i++){\r\n            if(keccak256(abi.encodePacked(_name)) == keccak256(abi.encodePacked(Loteries[i].name))){\r\n                return true;\r\n            }\r\n        }\r\n        return false;\r\n    }\r\n    \r\n    function existingLoteryById(uint256 _id) public view returns(bool){\r\n        for(uint i = 0; i < Loteries.length; i++){\r\n            if(_id == Loteries[i].id){\r\n                return true;\r\n            }\r\n        }\r\n        return false;\r\n    }\r\n    \r\n    function addLotery(string memory _name) public restricted{\r\n        require(!existingLoteryByName(_name), \"Name already used !!\");\r\n        Loteries.push(FDJ_Lotery(idLotery, _name));\r\n        idLotery ++;\r\n    }\r\n\r\n    function getLoteryLenght() public view returns (uint256){\r\n        return Loteries.length;\r\n    }\r\n    \r\n    function listLoteries(uint256 _id) public view returns (uint256, string memory){\r\n        return (Loteries[_id].id, Loteries[_id].name);\r\n    }\r\n\r\n    function pickWinnerForLotery(uint256 idLot) public payable restricted{\r\n\r\n        if(participantIdLotery[idLot].length > 1){\r\n            uint256 winner = (uint256(keccak256(abi.encodePacked(block.difficulty, block.timestamp, participantIdLotery[idLot])))) % participantIdLotery[idLot].length;\r\n            gains = uint256(LoteryGain[idLot])* uint256(90)/uint256(100);\r\n            participantIdLotery[idLot][winner].transfer(gains);\r\n            admin.transfer(LoteryGain[idLot]);\r\n            participantIdLotery[idLot] = new address payable[](0);\r\n        }else{\r\n            emit error(\"Can't pick a winner because there's only 1 player!\");\r\n\r\n        }\r\n       // require(participantIdLotery[idLot].length > 1, \"Minimum 2 joueurs\");\r\n        \r\n    }\r\n    \r\n    function getContractBalance() public view returns(uint256){\r\n        return address(this).balance;\r\n    }\r\n\r\n    function getAccountBalance(address _account) public view returns(uint256){\r\n        return _account.balance;\r\n    }\r\n\r\n    function getLoteryGain(uint256 _lotery) public view returns(uint256){\r\n        return LoteryGain[_lotery];\r\n    }\r\n\r\n    function getAdmin() public view returns(address){\r\n        return admin;\r\n    }\r\n\r\n    modifier restricted(){\r\n        require(msg.sender == admin, \"Vous n'etes pas admin !\");\r\n        _;\r\n    }\r\n    \r\n}\r\n",
  "sourcePath": "/home/osboxes/Documents/GitHub/FDJ-ESGI/contracts/Lotery.sol",
  "compiler": {
    "name": "solc",
    "version": "0.5.16+commit.9c3226ce.Emscripten.clang"
  },
  "schemaVersion": "3.3.2",
  "updatedAt": "2021-01-16T22:27:23.253Z",
  "networkType": "ethereum",
  "devdoc": {
    "methods": {}
  },
  "userdoc": {
    "methods": {}
  }
}