{
  "contractName": "Lotery",
  "abi": [
    {
      "inputs": [],
      "payable": false,
      "stateMutability": "nonpayable",
      "type": "constructor"
    },
    {
      "anonymous": false,
      "inputs": [
        {
          "indexed": false,
          "internalType": "string",
          "name": "_error",
          "type": "string"
        }
      ],
      "name": "error",
      "type": "event"
    },
    {
      "constant": true,
      "inputs": [
        {
          "internalType": "uint256",
          "name": "",
          "type": "uint256"
        }
      ],
      "name": "Loteries",
      "outputs": [
        {
          "internalType": "uint256",
          "name": "id",
          "type": "uint256"
        },
        {
          "internalType": "string",
          "name": "name",
          "type": "string"
        },
        {
          "internalType": "bool",
          "name": "status",
          "type": "bool"
        },
        {
          "internalType": "address",
          "name": "winner",
          "type": "address"
        }
      ],
      "payable": false,
      "stateMutability": "view",
      "type": "function"
    },
    {
      "constant": true,
      "inputs": [
        {
          "internalType": "uint256",
          "name": "",
          "type": "uint256"
        }
      ],
      "name": "LoteryGain",
      "outputs": [
        {
          "internalType": "uint256",
          "name": "",
          "type": "uint256"
        }
      ],
      "payable": false,
      "stateMutability": "view",
      "type": "function"
    },
    {
      "constant": true,
      "inputs": [],
      "name": "idLotery",
      "outputs": [
        {
          "internalType": "uint256",
          "name": "",
          "type": "uint256"
        }
      ],
      "payable": false,
      "stateMutability": "view",
      "type": "function"
    },
    {
      "constant": true,
      "inputs": [
        {
          "internalType": "uint256",
          "name": "",
          "type": "uint256"
        },
        {
          "internalType": "uint256",
          "name": "",
          "type": "uint256"
        }
      ],
      "name": "participantIdLotery",
      "outputs": [
        {
          "internalType": "address payable",
          "name": "",
          "type": "address"
        }
      ],
      "payable": false,
      "stateMutability": "view",
      "type": "function"
    },
    {
      "constant": false,
      "inputs": [
        {
          "internalType": "uint256",
          "name": "idLot",
          "type": "uint256"
        }
      ],
      "name": "participateToLotery",
      "outputs": [
        {
          "internalType": "uint256",
          "name": "",
          "type": "uint256"
        }
      ],
      "payable": true,
      "stateMutability": "payable",
      "type": "function"
    },
    {
      "constant": true,
      "inputs": [
        {
          "internalType": "uint256",
          "name": "idLot",
          "type": "uint256"
        }
      ],
      "name": "listParticipantsForLot",
      "outputs": [
        {
          "internalType": "address payable[]",
          "name": "",
          "type": "address[]"
        }
      ],
      "payable": false,
      "stateMutability": "view",
      "type": "function"
    },
    {
      "constant": true,
      "inputs": [
        {
          "internalType": "uint256",
          "name": "_id",
          "type": "uint256"
        },
        {
          "internalType": "address",
          "name": "_a",
          "type": "address"
        }
      ],
      "name": "existingPlayerInLotery",
      "outputs": [
        {
          "internalType": "bool",
          "name": "",
          "type": "bool"
        }
      ],
      "payable": false,
      "stateMutability": "view",
      "type": "function"
    },
    {
      "constant": true,
      "inputs": [
        {
          "internalType": "string",
          "name": "_name",
          "type": "string"
        }
      ],
      "name": "existingLoteryByName",
      "outputs": [
        {
          "internalType": "bool",
          "name": "",
          "type": "bool"
        }
      ],
      "payable": false,
      "stateMutability": "view",
      "type": "function"
    },
    {
      "constant": true,
      "inputs": [
        {
          "internalType": "uint256",
          "name": "_id",
          "type": "uint256"
        }
      ],
      "name": "existingLoteryById",
      "outputs": [
        {
          "internalType": "bool",
          "name": "",
          "type": "bool"
        }
      ],
      "payable": false,
      "stateMutability": "view",
      "type": "function"
    },
    {
      "constant": false,
      "inputs": [
        {
          "internalType": "string",
          "name": "_name",
          "type": "string"
        }
      ],
      "name": "addLotery",
      "outputs": [],
      "payable": false,
      "stateMutability": "nonpayable",
      "type": "function"
    },
    {
      "constant": true,
      "inputs": [
        {
          "internalType": "uint256",
          "name": "idLot",
          "type": "uint256"
        }
      ],
      "name": "getWinner",
      "outputs": [
        {
          "internalType": "address",
          "name": "",
          "type": "address"
        }
      ],
      "payable": false,
      "stateMutability": "view",
      "type": "function"
    },
    {
      "constant": true,
      "inputs": [],
      "name": "getLoteryLenght",
      "outputs": [
        {
          "internalType": "uint256",
          "name": "",
          "type": "uint256"
        }
      ],
      "payable": false,
      "stateMutability": "view",
      "type": "function"
    },
    {
      "constant": true,
      "inputs": [
        {
          "internalType": "uint256",
          "name": "_id",
          "type": "uint256"
        }
      ],
      "name": "listLoteries",
      "outputs": [
        {
          "internalType": "uint256",
          "name": "",
          "type": "uint256"
        },
        {
          "internalType": "string",
          "name": "",
          "type": "string"
        },
        {
          "internalType": "bool",
          "name": "",
          "type": "bool"
        }
      ],
      "payable": false,
      "stateMutability": "view",
      "type": "function"
    },
    {
      "constant": false,
      "inputs": [
        {
          "internalType": "uint256",
          "name": "idLot",
          "type": "uint256"
        }
      ],
      "name": "pickWinnerForLotery",
      "outputs": [],
      "payable": true,
      "stateMutability": "payable",
      "type": "function"
    },
    {
      "constant": true,
      "inputs": [],
      "name": "getContractBalance",
      "outputs": [
        {
          "internalType": "uint256",
          "name": "",
          "type": "uint256"
        }
      ],
      "payable": false,
      "stateMutability": "view",
      "type": "function"
    },
    {
      "constant": true,
      "inputs": [
        {
          "internalType": "address",
          "name": "_account",
          "type": "address"
        }
      ],
      "name": "getAccountBalance",
      "outputs": [
        {
          "internalType": "uint256",
          "name": "",
          "type": "uint256"
        }
      ],
      "payable": false,
      "stateMutability": "view",
      "type": "function"
    },
    {
      "constant": true,
      "inputs": [
        {
          "internalType": "uint256",
          "name": "_lotery",
          "type": "uint256"
        }
      ],
      "name": "getLoteryGain",
      "outputs": [
        {
          "internalType": "uint256",
          "name": "",
          "type": "uint256"
        }
      ],
      "payable": false,
      "stateMutability": "view",
      "type": "function"
    },
    {
      "constant": true,
      "inputs": [],
      "name": "getAdmin",
      "outputs": [
        {
          "internalType": "address",
          "name": "",
          "type": "address"
        }
      ],
      "payable": false,
      "stateMutability": "view",
      "type": "function"
    },
    {
      "constant": true,
      "inputs": [],
      "name": "getLoteriesCount",
      "outputs": [
        {
          "internalType": "uint256",
          "name": "",
          "type": "uint256"
        }
      ],
      "payable": false,
      "stateMutability": "view",
      "type": "function"
    },
    {
      "constant": false,
      "inputs": [
        {
          "internalType": "uint256",
          "name": "id",
          "type": "uint256"
        },
        {
          "internalType": "bool",
          "name": "isUp",
          "type": "bool"
        }
      ],
      "name": "setStatus",
      "outputs": [
        {
          "internalType": "bool",
          "name": "",
          "type": "bool"
        }
      ],
      "payable": false,
      "stateMutability": "nonpayable",
      "type": "function"
    }
  ],
  "bytecode": "0x608060405234801561001057600080fd5b50600060028190555033600160006101000a81548173ffffffffffffffffffffffffffffffffffffffff021916908373ffffffffffffffffffffffffffffffffffffffff160217905550611a87806100696000396000f3fe60806040526004361061011f5760003560e01c80638719e8ac116100a0578063b765bb4911610064578063b765bb4914610743578063c279579814610823578063dddc484514610872578063e6f633bf14610938578063fa988d07146109635761011f565b80638719e8ac146104e857806393423e9c14610547578063a22798ce146105ac578063a4ba5d471461061f578063ac60eb381461064a5761011f565b80633b6d15da116100e75780633b6d15da1461035a5780634129b2c91461039c57806344c8da4b146104175780636e9960c3146104665780636f9fb98a146104bd5761011f565b8063076ca4bb1461012457806309882af71461014f5780630aac1158146101d45780633124dc7d146102025780633976ee0e146102ca575b600080fd5b34801561013057600080fd5b506101396109b6565b6040518082815260200191505060405180910390f35b34801561015b57600080fd5b506101926004803603604081101561017257600080fd5b8101908080359060200190929190803590602001909291905050506109c2565b604051808273ffffffffffffffffffffffffffffffffffffffff1673ffffffffffffffffffffffffffffffffffffffff16815260200191505060405180910390f35b610200600480360360208110156101ea57600080fd5b8101908080359060200190929190505050610a0d565b005b34801561020e57600080fd5b506102c86004803603602081101561022557600080fd5b810190808035906020019064010000000081111561024257600080fd5b82018360208201111561025457600080fd5b8035906020019184600183028401116401000000008311171561027657600080fd5b91908080601f016020809104026020016040519081016040528093929190818152602001838380828437600081840152601f19601f820116905080830192505050505050509192919290505050610e50565b005b3480156102d657600080fd5b50610303600480360360208110156102ed57600080fd5b810190808035906020019092919050505061109f565b6040518080602001828103825283818151815260200191508051906020019060200280838360005b8381101561034657808201518184015260208101905061032b565b505050509050019250505060405180910390f35b6103866004803603602081101561037057600080fd5b8101908080359060200190929190505050611140565b6040518082815260200191505060405180910390f35b3480156103a857600080fd5b506103d5600480360360208110156103bf57600080fd5b81019080803590602001909291905050506112f3565b604051808273ffffffffffffffffffffffffffffffffffffffff1673ffffffffffffffffffffffffffffffffffffffff16815260200191505060405180910390f35b34801561042357600080fd5b506104506004803603602081101561043a57600080fd5b810190808035906020019092919050505061133a565b6040518082815260200191505060405180910390f35b34801561047257600080fd5b5061047b611357565b604051808273ffffffffffffffffffffffffffffffffffffffff1673ffffffffffffffffffffffffffffffffffffffff16815260200191505060405180910390f35b3480156104c957600080fd5b506104d2611381565b6040518082815260200191505060405180910390f35b3480156104f457600080fd5b5061052d6004803603604081101561050b57600080fd5b81019080803590602001909291908035151590602001909291905050506113a0565b604051808215151515815260200191505060405180910390f35b34801561055357600080fd5b506105966004803603602081101561056a57600080fd5b81019080803573ffffffffffffffffffffffffffffffffffffffff1690602001909291905050506113e2565b6040518082815260200191505060405180910390f35b3480156105b857600080fd5b50610605600480360360408110156105cf57600080fd5b8101908080359060200190929190803573ffffffffffffffffffffffffffffffffffffffff169060200190929190505050611403565b604051808215151515815260200191505060405180910390f35b34801561062b57600080fd5b506106346114c8565b6040518082815260200191505060405180910390f35b34801561065657600080fd5b506106836004803603602081101561066d57600080fd5b81019080803590602001909291905050506114ce565b6040518085815260200180602001841515151581526020018373ffffffffffffffffffffffffffffffffffffffff1673ffffffffffffffffffffffffffffffffffffffff168152602001828103825285818151815260200191508051906020019080838360005b838110156107055780820151818401526020810190506106ea565b50505050905090810190601f1680156107325780820380516001836020036101000a031916815260200191505b509550505050505060405180910390f35b34801561074f57600080fd5b506108096004803603602081101561076657600080fd5b810190808035906020019064010000000081111561078357600080fd5b82018360208201111561079557600080fd5b803590602001918460018302840111640100000000831117156107b757600080fd5b91908080601f016020809104026020016040519081016040528093929190818152602001838380828437600081840152601f19601f8201169050808301925050505050505091929192905050506115d0565b604051808215151515815260200191505060405180910390f35b34801561082f57600080fd5b5061085c6004803603602081101561084657600080fd5b8101908080359060200190929190505050611716565b6040518082815260200191505060405180910390f35b34801561087e57600080fd5b506108ab6004803603602081101561089557600080fd5b810190808035906020019092919050505061172e565b604051808481526020018060200183151515158152602001828103825284818151815260200191508051906020019080838360005b838110156108fb5780820151818401526020810190506108e0565b50505050905090810190601f1680156109285780820380516001836020036101000a031916815260200191505b5094505050505060405180910390f35b34801561094457600080fd5b5061094d611845565b6040518082815260200191505060405180910390f35b34801561096f57600080fd5b5061099c6004803603602081101561098657600080fd5b8101908080359060200190929190505050611851565b604051808215151515815260200191505060405180910390f35b60008080549050905090565b600460205281600052604060002081815481106109db57fe5b906000526020600020016000915091509054906101000a900473ffffffffffffffffffffffffffffffffffffffff1681565b600160009054906101000a900473ffffffffffffffffffffffffffffffffffffffff1673ffffffffffffffffffffffffffffffffffffffff163373ffffffffffffffffffffffffffffffffffffffff1614610ad0576040517f08c379a00000000000000000000000000000000000000000000000000000000081526004018080602001828103825260178152602001807f566f7573206e2765746573207061732061646d696e202100000000000000000081525060200191505060405180910390fd5b600160046000838152602001908152602001600020805490501115610e015760006004600083815260200190815260200160002080549050444260046000868152602001908152602001600020604051602001808481526020018381526020018280548015610b9457602002820191906000526020600020905b8160009054906101000a900473ffffffffffffffffffffffffffffffffffffffff1673ffffffffffffffffffffffffffffffffffffffff1681526020019060010190808311610b4a575b505093505050506040516020818303038152906040528051906020012060001c81610bbb57fe5b069050600460008381526020019081526020016000208181548110610bdc57fe5b9060005260206000200160009054906101000a900473ffffffffffffffffffffffffffffffffffffffff1660008381548110610c1457fe5b906000526020600020906003020160020160016101000a81548173ffffffffffffffffffffffffffffffffffffffff021916908373ffffffffffffffffffffffffffffffffffffffff1602179055506064605a60056000858152602001908152602001600020540281610c8357fe5b04600381905550600460008381526020019081526020016000208181548110610ca857fe5b9060005260206000200160009054906101000a900473ffffffffffffffffffffffffffffffffffffffff1673ffffffffffffffffffffffffffffffffffffffff166108fc6003549081150290604051600060405180830381858888f19350505050158015610d1a573d6000803e3d6000fd5b50600160009054906101000a900473ffffffffffffffffffffffffffffffffffffffff1673ffffffffffffffffffffffffffffffffffffffff166108fc60056000858152602001908152602001600020549081150290604051600060405180830381858888f19350505050158015610d96573d6000803e3d6000fd5b506000604051908082528060200260200182016040528015610dc75781602001602082028038833980820191505090505b50600460008481526020019081526020016000209080519060200190610dee9291906118ae565b50610dfa8260006113a0565b5050610e4d565b7f24c93343bea44ff8f0e628ca4e5b87dfe0823d664c887457e166a03798bb191c604051808060200182810382526032815260200180611a216032913960400191505060405180910390a15b50565b600160009054906101000a900473ffffffffffffffffffffffffffffffffffffffff1673ffffffffffffffffffffffffffffffffffffffff163373ffffffffffffffffffffffffffffffffffffffff1614610f13576040517f08c379a00000000000000000000000000000000000000000000000000000000081526004018080602001828103825260178152602001807f566f7573206e2765746573207061732061646d696e202100000000000000000081525060200191505060405180910390fd5b610f1c816115d0565b15610f8f576040517f08c379a00000000000000000000000000000000000000000000000000000000081526004018080602001828103825260148152602001807f4e616d6520616c7265616479207573656420212100000000000000000000000081525060200191505060405180910390fd5b600060405180608001604052806002548152602001838152602001600115158152602001600073ffffffffffffffffffffffffffffffffffffffff168152509080600181540180825580915050906001820390600052602060002090600302016000909192909190915060008201518160000155602082015181600101908051906020019061101f929190611938565b5060408201518160020160006101000a81548160ff02191690831515021790555060608201518160020160016101000a81548173ffffffffffffffffffffffffffffffffffffffff021916908373ffffffffffffffffffffffffffffffffffffffff16021790555050505060026000815480929190600101919050555050565b60606004600083815260200190815260200160002080548060200260200160405190810160405280929190818152602001828054801561113457602002820191906000526020600020905b8160009054906101000a900473ffffffffffffffffffffffffffffffffffffffff1673ffffffffffffffffffffffffffffffffffffffff16815260200190600101908083116110ea575b50505050509050919050565b600061114b82611851565b156112815761115a8233611403565b61121057600460008381526020019081526020016000203390806001815401808255809150509060018203906000526020600020016000909192909190916101000a81548173ffffffffffffffffffffffffffffffffffffffff021916908373ffffffffffffffffffffffffffffffffffffffff160217905550503460036000828254019250508190555034600560008481526020019081526020016000206000828254019250508190555060035490506112ee565b7f24c93343bea44ff8f0e628ca4e5b87dfe0823d664c887457e166a03798bb191c60405180806020018281038252601e8152602001807f596f7527726520616c72656164792070617274696369706174696e672021000081525060200191505060405180910390a1600190506112ee565b7f24c93343bea44ff8f0e628ca4e5b87dfe0823d664c887457e166a03798bb191c60405180806020018281038252601c8152602001807f54686973206c6f7465727920646f65736e27742065786973747320210000000081525060200191505060405180910390a1600290505b919050565b600080828154811061130157fe5b906000526020600020906003020160020160019054906101000a900473ffffffffffffffffffffffffffffffffffffffff169050919050565b600060056000838152602001908152602001600020549050919050565b6000600160009054906101000a900473ffffffffffffffffffffffffffffffffffffffff16905090565b60003073ffffffffffffffffffffffffffffffffffffffff1631905090565b600081600084815481106113b057fe5b906000526020600020906003020160020160006101000a81548160ff0219169083151502179055506001905092915050565b60008173ffffffffffffffffffffffffffffffffffffffff16319050919050565b600080600090505b60046000858152602001908152602001600020805490508110156114bc5760046000858152602001908152602001600020818154811061144757fe5b9060005260206000200160009054906101000a900473ffffffffffffffffffffffffffffffffffffffff1673ffffffffffffffffffffffffffffffffffffffff168373ffffffffffffffffffffffffffffffffffffffff1614156114af5760019150506114c2565b808060010191505061140b565b50600090505b92915050565b60025481565b600081815481106114db57fe5b9060005260206000209060030201600091509050806000015490806001018054600181600116156101000203166002900480601f01602080910402602001604051908101604052809291908181526020018280546001816001161561010002031660029004801561158d5780601f106115625761010080835404028352916020019161158d565b820191906000526020600020905b81548152906001019060200180831161157057829003601f168201915b5050505050908060020160009054906101000a900460ff16908060020160019054906101000a900473ffffffffffffffffffffffffffffffffffffffff16905084565b600080600090505b60008054905081101561170b57600081815481106115f257fe5b906000526020600020906003020160010160405160200180828054600181600116156101000203166002900480156116615780601f1061163f576101008083540402835291820191611661565b820191906000526020600020905b81548152906001019060200180831161164d575b505091505060405160208183030381529060405280519060200120836040516020018082805190602001908083835b602083106116b35780518252602082019150602081019050602083039250611690565b6001836020036101000a0380198251168184511680821785525050505050509050019150506040516020818303038152906040528051906020012014156116fe576001915050611711565b80806001019150506115d8565b50600090505b919050565b60056020528060005260406000206000915090505481565b60006060600080848154811061174057fe5b9060005260206000209060030201600001546000858154811061175f57fe5b90600052602060002090600302016001016000868154811061177d57fe5b906000526020600020906003020160020160009054906101000a900460ff16818054600181600116156101000203166002900480601f0160208091040260200160405190810160405280929190818152602001828054600181600116156101000203166002900480156118315780601f1061180657610100808354040283529160200191611831565b820191906000526020600020905b81548152906001019060200180831161181457829003601f168201915b505050505091509250925092509193909250565b60008080549050905090565b600080600090505b6000805490508110156118a3576000818154811061187357fe5b9060005260206000209060030201600001548314156118965760019150506118a9565b8080600101915050611859565b50600090505b919050565b828054828255906000526020600020908101928215611927579160200282015b828111156119265782518260006101000a81548173ffffffffffffffffffffffffffffffffffffffff021916908373ffffffffffffffffffffffffffffffffffffffff160217905550916020019190600101906118ce565b5b50905061193491906119b8565b5090565b828054600181600116156101000203166002900490600052602060002090601f016020900481019282601f1061197957805160ff19168380011785556119a7565b828001600101855582156119a7579182015b828111156119a657825182559160200191906001019061198b565b5b5090506119b491906119fb565b5090565b6119f891905b808211156119f457600081816101000a81549073ffffffffffffffffffffffffffffffffffffffff0219169055506001016119be565b5090565b90565b611a1d91905b80821115611a19576000816000905550600101611a01565b5090565b9056fe43616e2774207069636b20612077696e6e657220626563617573652074686572652773206f6e6c79203120706c6179657221a265627a7a723158205d8a1cac66c225131d9eb470dc0b0483192ddf616f7e1fd0af9d75838b25eaf964736f6c63430005100032",
  "source": "pragma solidity >=0.5.0 <0.8.0;\r\n\r\ncontract Lotery {\r\n    \r\n    //lotery structure\r\n    struct FDJ_Lotery {\r\n        uint256 id;\r\n        string name;\r\n        bool status;\r\n        address winner;\r\n    }\r\n\r\n    //mapping(uint => FDJ_Lotery)public Loteries;\r\n    \r\n    FDJ_Lotery[] public Loteries;\r\n\r\n    address payable admin;\r\n    uint256 public idLotery;\r\n    uint256 private gains;\r\n\r\n    mapping(uint256 => address payable[]) public participantIdLotery;\r\n    mapping(uint256 => uint256) public LoteryGain;\r\n    \r\n    constructor () public {\r\n        idLotery = 0;\r\n        admin = msg.sender;\r\n    }\r\n    event error(string _error);\r\n\r\n    function participateToLotery(uint256 idLot) public payable returns(uint256) {\r\n        //require(msg.value > 0.00002 ether, \"Mise minimum non respestee!\");\r\n        //require(existingLoteryById(idLot),\"La loterie n'existe pas bg\");\r\n        //require(!existingPlayerInLotery(idLot, msg.sender), \"Tu participes deja enfoireuh\");\r\n\r\n        if(existingLoteryById(idLot)){\r\n            if(!existingPlayerInLotery(idLot, msg.sender)){\r\n                participantIdLotery[idLot].push(msg.sender);\r\n                gains += msg.value;\r\n                LoteryGain[idLot] += msg.value;\r\n\r\n                // address(this) = address contrat - on convertit l'address en address payable pour qu'elle puisse recevoir des ETHs\r\n               // address payable tmp = address(uint160(address(this)));\r\n               // tmp.transfer(msg.value);\r\n                return gains;\r\n            }else{\r\n                emit error(\"You're already participating !\");\r\n                return 1;\r\n            }\r\n        }else{\r\n            emit error(\"This lotery doesn't exists !\");\r\n            return 2;\r\n        }\r\n        \r\n    }\r\n\r\n    function listParticipantsForLot(uint256 idLot) public view returns (address payable[] memory){\r\n        return participantIdLotery[idLot];\r\n    }\r\n    \r\n    function existingPlayerInLotery(uint256 _id, address _a) public view returns(bool){\r\n        for(uint i = 0; i < participantIdLotery[_id].length; i++){\r\n            if(_a == participantIdLotery[_id][i]){\r\n                return true;\r\n            }\r\n        }\r\n        return false;\r\n    }\r\n    \r\n    function existingLoteryByName(string memory _name) public view returns(bool){\r\n        for(uint i = 0; i < Loteries.length; i++){\r\n            if(keccak256(abi.encodePacked(_name)) == keccak256(abi.encodePacked(Loteries[i].name))){\r\n                return true;\r\n            }\r\n        }\r\n        return false;\r\n    }\r\n    \r\n    function existingLoteryById(uint256 _id) public view returns(bool){\r\n        for(uint i = 0; i < Loteries.length; i++){\r\n            if(_id == Loteries[i].id){\r\n                return true;\r\n            }\r\n        }\r\n        return false;\r\n    }\r\n    \r\n    function addLotery(string memory _name) public restricted{\r\n        require(!existingLoteryByName(_name), \"Name already used !!\");\r\n        Loteries.push(FDJ_Lotery(idLotery, _name, true, address(0)));\r\n        idLotery ++;\r\n    }\r\n    \r\n    function getWinner(uint256 idLot)public view returns(address){\r\n        return Loteries[idLot].winner;\r\n    }\r\n\r\n    function getLoteryLenght() public view returns (uint256){\r\n        return Loteries.length;\r\n    }\r\n    \r\n    function listLoteries(uint256 _id) public view returns (uint256, string memory, bool){\r\n        return (Loteries[_id].id, Loteries[_id].name, Loteries[_id].status);\r\n    }\r\n\r\n    function pickWinnerForLotery(uint256 idLot) public payable restricted{\r\n\r\n        if(participantIdLotery[idLot].length > 1){\r\n            uint256 winner = (uint256(keccak256(abi.encodePacked(block.difficulty, block.timestamp, participantIdLotery[idLot])))) % participantIdLotery[idLot].length;\r\n            Loteries[idLot].winner = participantIdLotery[idLot][winner];\r\n            gains = uint256(LoteryGain[idLot])* uint256(90)/uint256(100);\r\n            participantIdLotery[idLot][winner].transfer(gains);\r\n            admin.transfer(LoteryGain[idLot]);\r\n            participantIdLotery[idLot] = new address payable[](0);\r\n            setStatus(idLot, false);\r\n        }else{\r\n            emit error(\"Can't pick a winner because there's only 1 player!\");\r\n        }\r\n       // require(participantIdLotery[idLot].length > 1, \"Minimum 2 joueurs\");\r\n    }\r\n    \r\n    function getContractBalance() public view returns(uint256){\r\n        return address(this).balance;\r\n    }\r\n\r\n    function getAccountBalance(address _account) public view returns(uint256){\r\n        return _account.balance;\r\n    }\r\n\r\n    function getLoteryGain(uint256 _lotery) public view returns(uint256){\r\n        return LoteryGain[_lotery];\r\n    }\r\n\r\n    function getAdmin() public view returns(address){\r\n        return admin;\r\n    }\r\n\r\n    modifier restricted(){\r\n        require(msg.sender == admin, \"Vous n'etes pas admin !\");\r\n        _;\r\n    }\r\n\r\n    function getLoteriesCount() public view returns(uint) {\r\n        return Loteries.length;\r\n    }\r\n\r\n    function setStatus(uint256 id, bool isUp) public returns (bool){\r\n        Loteries[id].status = isUp;\r\n        return true;\r\n    }\r\n    \r\n}",
  "sourcePath": "/home/osboxes/Bureau/PROJET/FDJ-ESGI/contracts/Lotery.sol",
  "compiler": {
    "name": "solc",
    "version": "0.5.16+commit.9c3226ce.Emscripten.clang"
  },
  "schemaVersion": "3.3.2",
  "updatedAt": "2021-01-31T16:35:02.416Z",
  "networkType": "ethereum",
  "devdoc": {
    "methods": {}
  },
  "userdoc": {
    "methods": {}
  }
}