{
  "contractName": "Lotery",
  "abi": [
    {
      "inputs": [],
      "payable": false,
      "stateMutability": "nonpayable",
      "type": "constructor"
    },
    {
      "constant": true,
      "inputs": [
        {
          "internalType": "uint256",
          "name": "",
          "type": "uint256"
        }
      ],
      "name": "Loteries",
      "outputs": [
        {
          "internalType": "uint256",
          "name": "id",
          "type": "uint256"
        },
        {
          "internalType": "string",
          "name": "name",
          "type": "string"
        }
      ],
      "payable": false,
      "stateMutability": "view",
      "type": "function"
    },
    {
      "constant": true,
      "inputs": [
        {
          "internalType": "uint256",
          "name": "",
          "type": "uint256"
        }
      ],
      "name": "LoteryGain",
      "outputs": [
        {
          "internalType": "uint256",
          "name": "",
          "type": "uint256"
        }
      ],
      "payable": false,
      "stateMutability": "view",
      "type": "function"
    },
    {
      "constant": true,
      "inputs": [],
      "name": "idLotery",
      "outputs": [
        {
          "internalType": "uint256",
          "name": "",
          "type": "uint256"
        }
      ],
      "payable": false,
      "stateMutability": "view",
      "type": "function"
    },
    {
      "constant": true,
      "inputs": [
        {
          "internalType": "uint256",
          "name": "",
          "type": "uint256"
        },
        {
          "internalType": "uint256",
          "name": "",
          "type": "uint256"
        }
      ],
      "name": "participantIdLotery",
      "outputs": [
        {
          "internalType": "address payable",
          "name": "",
          "type": "address"
        }
      ],
      "payable": false,
      "stateMutability": "view",
      "type": "function"
    },
    {
      "constant": false,
      "inputs": [
        {
          "internalType": "uint256",
          "name": "idLot",
          "type": "uint256"
        }
      ],
      "name": "participateToLotery",
      "outputs": [
        {
          "internalType": "uint256",
          "name": "",
          "type": "uint256"
        }
      ],
      "payable": true,
      "stateMutability": "payable",
      "type": "function"
    },
    {
      "constant": true,
      "inputs": [
        {
          "internalType": "uint256",
          "name": "idLot",
          "type": "uint256"
        }
      ],
      "name": "listParticipantsForLot",
      "outputs": [
        {
          "internalType": "address payable[]",
          "name": "",
          "type": "address[]"
        }
      ],
      "payable": false,
      "stateMutability": "view",
      "type": "function"
    },
    {
      "constant": true,
      "inputs": [
        {
          "internalType": "uint256",
          "name": "_id",
          "type": "uint256"
        },
        {
          "internalType": "address",
          "name": "_a",
          "type": "address"
        }
      ],
      "name": "existingPlayerInLotery",
      "outputs": [
        {
          "internalType": "bool",
          "name": "",
          "type": "bool"
        }
      ],
      "payable": false,
      "stateMutability": "view",
      "type": "function"
    },
    {
      "constant": true,
      "inputs": [
        {
          "internalType": "string",
          "name": "_name",
          "type": "string"
        }
      ],
      "name": "existingLoteryByName",
      "outputs": [
        {
          "internalType": "bool",
          "name": "",
          "type": "bool"
        }
      ],
      "payable": false,
      "stateMutability": "view",
      "type": "function"
    },
    {
      "constant": true,
      "inputs": [
        {
          "internalType": "uint256",
          "name": "_id",
          "type": "uint256"
        }
      ],
      "name": "existingLoteryById",
      "outputs": [
        {
          "internalType": "bool",
          "name": "",
          "type": "bool"
        }
      ],
      "payable": false,
      "stateMutability": "view",
      "type": "function"
    },
    {
      "constant": false,
      "inputs": [
        {
          "internalType": "string",
          "name": "_name",
          "type": "string"
        }
      ],
      "name": "addLotery",
      "outputs": [],
      "payable": false,
      "stateMutability": "nonpayable",
      "type": "function"
    },
    {
      "constant": true,
      "inputs": [
        {
          "internalType": "uint256",
          "name": "_id",
          "type": "uint256"
        }
      ],
      "name": "listLoteries",
      "outputs": [
        {
          "internalType": "uint256",
          "name": "",
          "type": "uint256"
        },
        {
          "internalType": "string",
          "name": "",
          "type": "string"
        }
      ],
      "payable": false,
      "stateMutability": "view",
      "type": "function"
    },
    {
      "constant": false,
      "inputs": [
        {
          "internalType": "uint256",
          "name": "idLot",
          "type": "uint256"
        }
      ],
      "name": "pickWinnerForLotery",
      "outputs": [],
      "payable": true,
      "stateMutability": "payable",
      "type": "function"
    },
    {
      "constant": true,
      "inputs": [],
      "name": "getContractBalance",
      "outputs": [
        {
          "internalType": "uint256",
          "name": "",
          "type": "uint256"
        }
      ],
      "payable": false,
      "stateMutability": "view",
      "type": "function"
    },
    {
      "constant": true,
      "inputs": [
        {
          "internalType": "address",
          "name": "_account",
          "type": "address"
        }
      ],
      "name": "getAccountBalance",
      "outputs": [
        {
          "internalType": "uint256",
          "name": "",
          "type": "uint256"
        }
      ],
      "payable": false,
      "stateMutability": "view",
      "type": "function"
    },
    {
      "constant": true,
      "inputs": [
        {
          "internalType": "uint256",
          "name": "_lotery",
          "type": "uint256"
        }
      ],
      "name": "getLoteryGain",
      "outputs": [
        {
          "internalType": "uint256",
          "name": "",
          "type": "uint256"
        }
      ],
      "payable": false,
      "stateMutability": "view",
      "type": "function"
    },
    {
      "constant": true,
      "inputs": [],
      "name": "getAdmin",
      "outputs": [
        {
          "internalType": "address",
          "name": "",
          "type": "address"
        }
      ],
      "payable": false,
      "stateMutability": "view",
      "type": "function"
    }
  ],
  "bytecode": "0x608060405234801561001057600080fd5b50600060028190555033600160006101000a81548173ffffffffffffffffffffffffffffffffffffffff021916908373ffffffffffffffffffffffffffffffffffffffff1602179055506116f0806100696000396000f3fe6080604052600436106100f35760003560e01c806393423e9c1161008a578063b765bb4911610059578063b765bb49146105d4578063c2795798146106b4578063dddc484514610703578063fa988d07146107be576100f3565b806393423e9c14610416578063a22798ce1461047b578063a4ba5d47146104ee578063ac60eb3814610519576100f3565b80633b6d15da116100c65780633b6d15da1461030357806344c8da4b146103455780636e9960c3146103945780636f9fb98a146103eb576100f3565b806309882af7146100f85780630aac11581461017d5780633124dc7d146101ab5780633976ee0e14610273575b600080fd5b34801561010457600080fd5b5061013b6004803603604081101561011b57600080fd5b810190808035906020019092919080359060200190929190505050610811565b604051808273ffffffffffffffffffffffffffffffffffffffff1673ffffffffffffffffffffffffffffffffffffffff16815260200191505060405180910390f35b6101a96004803603602081101561019357600080fd5b810190808035906020019092919050505061085c565b005b3480156101b757600080fd5b50610271600480360360208110156101ce57600080fd5b81019080803590602001906401000000008111156101eb57600080fd5b8201836020820111156101fd57600080fd5b8035906020019184600183028401116401000000008311171561021f57600080fd5b91908080601f016020809104026020016040519081016040528093929190818152602001838380828437600081840152601f19601f820116905080830192505050505050509192919290505050610c0a565b005b34801561027f57600080fd5b506102ac6004803603602081101561029657600080fd5b8101908080359060200190929190505050610dcc565b6040518080602001828103825283818151815260200191508051906020019060200280838360005b838110156102ef5780820151818401526020810190506102d4565b505050509050019250505060405180910390f35b61032f6004803603602081101561031957600080fd5b8101908080359060200190929190505050610e6d565b6040518082815260200191505060405180910390f35b34801561035157600080fd5b5061037e6004803603602081101561036857600080fd5b810190808035906020019092919050505061108d565b6040518082815260200191505060405180910390f35b3480156103a057600080fd5b506103a96110aa565b604051808273ffffffffffffffffffffffffffffffffffffffff1673ffffffffffffffffffffffffffffffffffffffff16815260200191505060405180910390f35b3480156103f757600080fd5b506104006110d4565b6040518082815260200191505060405180910390f35b34801561042257600080fd5b506104656004803603602081101561043957600080fd5b81019080803573ffffffffffffffffffffffffffffffffffffffff1690602001909291905050506110f3565b6040518082815260200191505060405180910390f35b34801561048757600080fd5b506104d46004803603604081101561049e57600080fd5b8101908080359060200190929190803573ffffffffffffffffffffffffffffffffffffffff169060200190929190505050611114565b604051808215151515815260200191505060405180910390f35b3480156104fa57600080fd5b506105036111d9565b6040518082815260200191505060405180910390f35b34801561052557600080fd5b506105526004803603602081101561053c57600080fd5b81019080803590602001909291905050506111df565b6040518083815260200180602001828103825283818151815260200191508051906020019080838360005b8381101561059857808201518184015260208101905061057d565b50505050905090810190601f1680156105c55780820380516001836020036101000a031916815260200191505b50935050505060405180910390f35b3480156105e057600080fd5b5061069a600480360360208110156105f757600080fd5b810190808035906020019064010000000081111561061457600080fd5b82018360208201111561062657600080fd5b8035906020019184600183028401116401000000008311171561064857600080fd5b91908080601f016020809104026020016040519081016040528093929190818152602001838380828437600081840152601f19601f8201169050808301925050505050505091929192905050506112a8565b604051808215151515815260200191505060405180910390f35b3480156106c057600080fd5b506106ed600480360360208110156106d757600080fd5b81019080803590602001909291905050506113ee565b6040518082815260200191505060405180910390f35b34801561070f57600080fd5b5061073c6004803603602081101561072657600080fd5b8101908080359060200190929190505050611406565b6040518083815260200180602001828103825283818151815260200191508051906020019080838360005b83811015610782578082015181840152602081019050610767565b50505050905090810190601f1680156107af5780820380516001836020036101000a031916815260200191505b50935050505060405180910390f35b3480156107ca57600080fd5b506107f7600480360360208110156107e157600080fd5b81019080803590602001909291905050506114ec565b604051808215151515815260200191505060405180910390f35b6004602052816000526040600020818154811061082a57fe5b906000526020600020016000915091509054906101000a900473ffffffffffffffffffffffffffffffffffffffff1681565b600160009054906101000a900473ffffffffffffffffffffffffffffffffffffffff1673ffffffffffffffffffffffffffffffffffffffff163373ffffffffffffffffffffffffffffffffffffffff161461091f576040517f08c379a00000000000000000000000000000000000000000000000000000000081526004018080602001828103825260178152602001807f566f7573206e2765746573207061732061646d696e202100000000000000000081525060200191505060405180910390fd5b60016004600083815260200190815260200160002080549050116109ab576040517f08c379a00000000000000000000000000000000000000000000000000000000081526004018080602001828103825260118152602001807f4d696e696d756d2032206a6f756575727300000000000000000000000000000081525060200191505060405180910390fd5b60006004600083815260200190815260200160002080549050444260046000868152602001908152602001600020604051602001808481526020018381526020018280548015610a5057602002820191906000526020600020905b8160009054906101000a900473ffffffffffffffffffffffffffffffffffffffff1673ffffffffffffffffffffffffffffffffffffffff1681526020019060010190808311610a06575b505093505050506040516020818303038152906040528051906020012060001c81610a7757fe5b0690506064605a60056000858152602001908152602001600020540281610a9a57fe5b04600381905550600460008381526020019081526020016000208181548110610abf57fe5b9060005260206000200160009054906101000a900473ffffffffffffffffffffffffffffffffffffffff1673ffffffffffffffffffffffffffffffffffffffff166108fc6003549081150290604051600060405180830381858888f19350505050158015610b31573d6000803e3d6000fd5b50600160009054906101000a900473ffffffffffffffffffffffffffffffffffffffff1673ffffffffffffffffffffffffffffffffffffffff166108fc60056000858152602001908152602001600020549081150290604051600060405180830381858888f19350505050158015610bad573d6000803e3d6000fd5b506000604051908082528060200260200182016040528015610bde5781602001602082028038833980820191505090505b50600460008481526020019081526020016000209080519060200190610c05929190611549565b505050565b600160009054906101000a900473ffffffffffffffffffffffffffffffffffffffff1673ffffffffffffffffffffffffffffffffffffffff163373ffffffffffffffffffffffffffffffffffffffff1614610ccd576040517f08c379a00000000000000000000000000000000000000000000000000000000081526004018080602001828103825260178152602001807f566f7573206e2765746573207061732061646d696e202100000000000000000081525060200191505060405180910390fd5b610cd6816112a8565b15610d49576040517f08c379a00000000000000000000000000000000000000000000000000000000081526004018080602001828103825260148152602001807f4e616d6520616c7265616479207573656420212100000000000000000000000081525060200191505060405180910390fd5b6000604051806040016040528060025481526020018381525090806001815401808255809150509060018203906000526020600020906002020160009091929091909150600082015181600001556020820151816001019080519060200190610db39291906115d3565b5050505060026000815480929190600101919050555050565b606060046000838152602001908152602001600020805480602002602001604051908101604052809291908181526020018280548015610e6157602002820191906000526020600020905b8160009054906101000a900473ffffffffffffffffffffffffffffffffffffffff1673ffffffffffffffffffffffffffffffffffffffff1681526020019060010190808311610e17575b50505050509050919050565b60006702c68af0bb1400003411610eec576040517f08c379a000000000000000000000000000000000000000000000000000000000815260040180806020018281038252601b8152602001807f4d697365206d696e696d756d206e6f6e2072657370657374656521000000000081525060200191505060405180910390fd5b610ef5826114ec565b610f67576040517f08c379a000000000000000000000000000000000000000000000000000000000815260040180806020018281038252601a8152602001807f4c61206c6f7465726965206e276578697374652070617320626700000000000081525060200191505060405180910390fd5b610f718233611114565b15610fe4576040517f08c379a000000000000000000000000000000000000000000000000000000000815260040180806020018281038252601c8152602001807f547520706172746963697065732064656a6120656e666f69726575680000000081525060200191505060405180910390fd5b600460008381526020019081526020016000203390806001815401808255809150509060018203906000526020600020016000909192909190916101000a81548173ffffffffffffffffffffffffffffffffffffffff021916908373ffffffffffffffffffffffffffffffffffffffff16021790555050346003819055503460056000848152602001908152602001600020600082825401925050819055506003549050919050565b600060056000838152602001908152602001600020549050919050565b6000600160009054906101000a900473ffffffffffffffffffffffffffffffffffffffff16905090565b60003073ffffffffffffffffffffffffffffffffffffffff1631905090565b60008173ffffffffffffffffffffffffffffffffffffffff16319050919050565b600080600090505b60046000858152602001908152602001600020805490508110156111cd5760046000858152602001908152602001600020818154811061115857fe5b9060005260206000200160009054906101000a900473ffffffffffffffffffffffffffffffffffffffff1673ffffffffffffffffffffffffffffffffffffffff168373ffffffffffffffffffffffffffffffffffffffff1614156111c05760019150506111d3565b808060010191505061111c565b50600090505b92915050565b60025481565b600081815481106111ec57fe5b9060005260206000209060020201600091509050806000015490806001018054600181600116156101000203166002900480601f01602080910402602001604051908101604052809291908181526020018280546001816001161561010002031660029004801561129e5780601f106112735761010080835404028352916020019161129e565b820191906000526020600020905b81548152906001019060200180831161128157829003601f168201915b5050505050905082565b600080600090505b6000805490508110156113e357600081815481106112ca57fe5b906000526020600020906002020160010160405160200180828054600181600116156101000203166002900480156113395780601f10611317576101008083540402835291820191611339565b820191906000526020600020905b815481529060010190602001808311611325575b505091505060405160208183030381529060405280519060200120836040516020018082805190602001908083835b6020831061138b5780518252602082019150602081019050602083039250611368565b6001836020036101000a0380198251168184511680821785525050505050509050019150506040516020818303038152906040528051906020012014156113d65760019150506113e9565b80806001019150506112b0565b50600090505b919050565b60056020528060005260406000206000915090505481565b600060606000838154811061141757fe5b9060005260206000209060020201600001546000848154811061143657fe5b9060005260206000209060020201600101808054600181600116156101000203166002900480601f0160208091040260200160405190810160405280929190818152602001828054600181600116156101000203166002900480156114dc5780601f106114b1576101008083540402835291602001916114dc565b820191906000526020600020905b8154815290600101906020018083116114bf57829003601f168201915b5050505050905091509150915091565b600080600090505b60008054905081101561153e576000818154811061150e57fe5b906000526020600020906002020160000154831415611531576001915050611544565b80806001019150506114f4565b50600090505b919050565b8280548282559060005260206000209081019282156115c2579160200282015b828111156115c15782518260006101000a81548173ffffffffffffffffffffffffffffffffffffffff021916908373ffffffffffffffffffffffffffffffffffffffff16021790555091602001919060010190611569565b5b5090506115cf9190611653565b5090565b828054600181600116156101000203166002900490600052602060002090601f016020900481019282601f1061161457805160ff1916838001178555611642565b82800160010185558215611642579182015b82811115611641578251825591602001919060010190611626565b5b50905061164f9190611696565b5090565b61169391905b8082111561168f57600081816101000a81549073ffffffffffffffffffffffffffffffffffffffff021916905550600101611659565b5090565b90565b6116b891905b808211156116b457600081600090555060010161169c565b5090565b9056fea265627a7a72315820eba495af9556d28bfab171d0e99012c26820451a6edc72ccfa15f8132b3f2f3964736f6c63430005100032",
  "source": "pragma solidity >=0.5.0 <0.8.0;\r\n\r\ncontract Lotery {\r\n    \r\n    //lotery structure\r\n    struct FDJ_Lotery {\r\n        uint256 id;\r\n        string name;\r\n    }\r\n\r\n    //mapping(uint => FDJ_Lotery)public Loteries;\r\n    \r\n    FDJ_Lotery[] public Loteries;\r\n\r\n    address payable admin;\r\n    uint256 public idLotery;\r\n    uint256 private gains;\r\n\r\n    mapping(uint256 => address payable[]) public participantIdLotery;\r\n    mapping(uint256 => uint256) public LoteryGain;\r\n    \r\n    constructor () public {\r\n        idLotery = 0;\r\n        admin = msg.sender;\r\n    }\r\n\r\n    function participateToLotery(uint256 idLot) public payable returns(uint256) {\r\n        require(msg.value > 0.2 ether, \"Mise minimum non respestee!\");\r\n        require(existingLoteryById(idLot), \"La loterie n'existe pas bg\");\r\n        require(!existingPlayerInLotery(idLot, msg.sender), \"Tu participes deja enfoireuh\");\r\n        participantIdLotery[idLot].push(msg.sender);\r\n        gains = msg.value;\r\n        LoteryGain[idLot] += msg.value;\r\n        return gains;\r\n    }\r\n\r\n    function listParticipantsForLot(uint256 idLot) public view returns (address payable[] memory){\r\n        return participantIdLotery[idLot];\r\n    }\r\n    \r\n    function existingPlayerInLotery(uint256 _id, address _a) public view returns(bool){\r\n        for(uint i = 0; i < participantIdLotery[_id].length; i++){\r\n            if(_a == participantIdLotery[_id][i]){\r\n                return true;\r\n            }\r\n        }\r\n        return false;\r\n    }\r\n    \r\n    function existingLoteryByName(string memory _name) public view returns(bool){\r\n        for(uint i = 0; i < Loteries.length; i++){\r\n            if(keccak256(abi.encodePacked(_name)) == keccak256(abi.encodePacked(Loteries[i].name))){\r\n                return true;\r\n            }\r\n        }\r\n        return false;\r\n    }\r\n    \r\n    function existingLoteryById(uint256 _id) public view returns(bool){\r\n        for(uint i = 0; i < Loteries.length; i++){\r\n            if(_id == Loteries[i].id){\r\n                return true;\r\n            }\r\n        }\r\n        return false;\r\n    }\r\n    \r\n    function addLotery(string memory _name) public restricted{\r\n        require(!existingLoteryByName(_name), \"Name already used !!\");\r\n        Loteries.push(FDJ_Lotery(idLotery, _name));\r\n        idLotery ++;\r\n    }\r\n    \r\n    function listLoteries(uint256 _id) public view returns (uint256, string memory){\r\n        return (Loteries[_id].id, Loteries[_id].name);\r\n    }\r\n\r\n    function pickWinnerForLotery(uint256 idLot) public payable restricted{\r\n        require(participantIdLotery[idLot].length > 1, \"Minimum 2 joueurs\");\r\n        uint256 winner = (uint256(keccak256(abi.encodePacked(block.difficulty, block.timestamp, participantIdLotery[idLot])))) % participantIdLotery[idLot].length;\r\n        gains = uint256(LoteryGain[idLot])* uint256(90)/uint256(100);\r\n        participantIdLotery[idLot][winner].transfer(gains);\r\n        admin.transfer(LoteryGain[idLot]);\r\n        participantIdLotery[idLot] = new address payable[](0);\r\n    }\r\n    \r\n    function getContractBalance() public view returns(uint256){\r\n        return address(this).balance;\r\n    }\r\n\r\n    function getAccountBalance(address _account) public view returns(uint256){\r\n        return _account.balance;\r\n    }\r\n\r\n    function getLoteryGain(uint256 _lotery) public view returns(uint256){\r\n        return LoteryGain[_lotery];\r\n    }\r\n\r\n    function getAdmin() public view returns(address){\r\n        return admin;\r\n    }\r\n\r\n    modifier restricted(){\r\n        require(msg.sender == admin, \"Vous n'etes pas admin !\");\r\n        _;\r\n    }\r\n    \r\n}\r\n",
  "sourcePath": "/home/osboxes/Documents/GitHub/FDJ-ESGI/contracts/Lotery.sol",
  "compiler": {
    "name": "solc",
    "version": "0.5.16+commit.9c3226ce.Emscripten.clang"
  },
  "schemaVersion": "3.3.2",
  "updatedAt": "2021-01-13T17:59:00.448Z",
  "networkType": "ethereum",
  "devdoc": {
    "methods": {}
  },
  "userdoc": {
    "methods": {}
  }
}