{
  "contractName": "Lotery",
  "abi": [
    {
      "inputs": [],
      "payable": false,
      "stateMutability": "nonpayable",
      "type": "constructor"
    },
    {
      "anonymous": false,
      "inputs": [
        {
          "indexed": false,
          "internalType": "string",
          "name": "_error",
          "type": "string"
        }
      ],
      "name": "error",
      "type": "event"
    },
    {
      "constant": true,
      "inputs": [
        {
          "internalType": "uint256",
          "name": "",
          "type": "uint256"
        }
      ],
      "name": "Loteries",
      "outputs": [
        {
          "internalType": "uint256",
          "name": "id",
          "type": "uint256"
        },
        {
          "internalType": "string",
          "name": "name",
          "type": "string"
        },
        {
          "internalType": "bool",
          "name": "status",
          "type": "bool"
        },
        {
          "internalType": "uint256",
          "name": "gain",
          "type": "uint256"
        },
        {
          "internalType": "address",
          "name": "winner",
          "type": "address"
        }
      ],
      "payable": false,
      "stateMutability": "view",
      "type": "function"
    },
    {
      "constant": true,
      "inputs": [],
      "name": "gains",
      "outputs": [
        {
          "internalType": "uint256",
          "name": "",
          "type": "uint256"
        }
      ],
      "payable": false,
      "stateMutability": "view",
      "type": "function"
    },
    {
      "constant": true,
      "inputs": [],
      "name": "idLotery",
      "outputs": [
        {
          "internalType": "uint256",
          "name": "",
          "type": "uint256"
        }
      ],
      "payable": false,
      "stateMutability": "view",
      "type": "function"
    },
    {
      "constant": true,
      "inputs": [
        {
          "internalType": "uint256",
          "name": "",
          "type": "uint256"
        },
        {
          "internalType": "uint256",
          "name": "",
          "type": "uint256"
        }
      ],
      "name": "participantIdLotery",
      "outputs": [
        {
          "internalType": "address payable",
          "name": "",
          "type": "address"
        }
      ],
      "payable": false,
      "stateMutability": "view",
      "type": "function"
    },
    {
      "constant": false,
      "inputs": [
        {
          "internalType": "uint256",
          "name": "idLot",
          "type": "uint256"
        }
      ],
      "name": "participateToLotery",
      "outputs": [
        {
          "internalType": "uint256",
          "name": "",
          "type": "uint256"
        }
      ],
      "payable": true,
      "stateMutability": "payable",
      "type": "function"
    },
    {
      "constant": true,
      "inputs": [
        {
          "internalType": "uint256",
          "name": "idLot",
          "type": "uint256"
        }
      ],
      "name": "listParticipantsForLot",
      "outputs": [
        {
          "internalType": "address payable[]",
          "name": "",
          "type": "address[]"
        }
      ],
      "payable": false,
      "stateMutability": "view",
      "type": "function"
    },
    {
      "constant": true,
      "inputs": [
        {
          "internalType": "uint256",
          "name": "_id",
          "type": "uint256"
        },
        {
          "internalType": "address",
          "name": "_a",
          "type": "address"
        }
      ],
      "name": "existingPlayerInLotery",
      "outputs": [
        {
          "internalType": "bool",
          "name": "",
          "type": "bool"
        }
      ],
      "payable": false,
      "stateMutability": "view",
      "type": "function"
    },
    {
      "constant": true,
      "inputs": [
        {
          "internalType": "string",
          "name": "_name",
          "type": "string"
        }
      ],
      "name": "existingLoteryByName",
      "outputs": [
        {
          "internalType": "bool",
          "name": "",
          "type": "bool"
        }
      ],
      "payable": false,
      "stateMutability": "view",
      "type": "function"
    },
    {
      "constant": true,
      "inputs": [
        {
          "internalType": "uint256",
          "name": "_id",
          "type": "uint256"
        }
      ],
      "name": "existingLoteryById",
      "outputs": [
        {
          "internalType": "bool",
          "name": "",
          "type": "bool"
        }
      ],
      "payable": false,
      "stateMutability": "view",
      "type": "function"
    },
    {
      "constant": false,
      "inputs": [
        {
          "internalType": "string",
          "name": "_name",
          "type": "string"
        }
      ],
      "name": "addLotery",
      "outputs": [],
      "payable": false,
      "stateMutability": "nonpayable",
      "type": "function"
    },
    {
      "constant": true,
      "inputs": [
        {
          "internalType": "uint256",
          "name": "_idLot",
          "type": "uint256"
        }
      ],
      "name": "getWinner",
      "outputs": [
        {
          "internalType": "address",
          "name": "",
          "type": "address"
        }
      ],
      "payable": false,
      "stateMutability": "view",
      "type": "function"
    },
    {
      "constant": true,
      "inputs": [],
      "name": "getLoteryLenght",
      "outputs": [
        {
          "internalType": "uint256",
          "name": "",
          "type": "uint256"
        }
      ],
      "payable": false,
      "stateMutability": "view",
      "type": "function"
    },
    {
      "constant": true,
      "inputs": [
        {
          "internalType": "uint256",
          "name": "_id",
          "type": "uint256"
        }
      ],
      "name": "listLoteries",
      "outputs": [
        {
          "internalType": "uint256",
          "name": "",
          "type": "uint256"
        },
        {
          "internalType": "string",
          "name": "",
          "type": "string"
        },
        {
          "internalType": "bool",
          "name": "",
          "type": "bool"
        }
      ],
      "payable": false,
      "stateMutability": "view",
      "type": "function"
    },
    {
      "constant": false,
      "inputs": [
        {
          "internalType": "uint256",
          "name": "idLot",
          "type": "uint256"
        }
      ],
      "name": "pickWinnerForLotery",
      "outputs": [],
      "payable": true,
      "stateMutability": "payable",
      "type": "function"
    },
    {
      "constant": true,
      "inputs": [],
      "name": "getContractBalance",
      "outputs": [
        {
          "internalType": "uint256",
          "name": "",
          "type": "uint256"
        }
      ],
      "payable": false,
      "stateMutability": "view",
      "type": "function"
    },
    {
      "constant": true,
      "inputs": [
        {
          "internalType": "address",
          "name": "_account",
          "type": "address"
        }
      ],
      "name": "getAccountBalance",
      "outputs": [
        {
          "internalType": "uint256",
          "name": "",
          "type": "uint256"
        }
      ],
      "payable": false,
      "stateMutability": "view",
      "type": "function"
    },
    {
      "constant": true,
      "inputs": [
        {
          "internalType": "uint256",
          "name": "_idLot",
          "type": "uint256"
        }
      ],
      "name": "getLoteryGain",
      "outputs": [
        {
          "internalType": "uint256",
          "name": "",
          "type": "uint256"
        }
      ],
      "payable": false,
      "stateMutability": "view",
      "type": "function"
    },
    {
      "constant": true,
      "inputs": [],
      "name": "getAdmin",
      "outputs": [
        {
          "internalType": "address",
          "name": "",
          "type": "address"
        }
      ],
      "payable": false,
      "stateMutability": "view",
      "type": "function"
    },
    {
      "constant": true,
      "inputs": [],
      "name": "getLoteriesCount",
      "outputs": [
        {
          "internalType": "uint256",
          "name": "",
          "type": "uint256"
        }
      ],
      "payable": false,
      "stateMutability": "view",
      "type": "function"
    },
    {
      "constant": false,
      "inputs": [
        {
          "internalType": "uint256",
          "name": "id",
          "type": "uint256"
        },
        {
          "internalType": "bool",
          "name": "isUp",
          "type": "bool"
        }
      ],
      "name": "setStatus",
      "outputs": [
        {
          "internalType": "bool",
          "name": "",
          "type": "bool"
        }
      ],
      "payable": false,
      "stateMutability": "nonpayable",
      "type": "function"
    }
  ],
  "bytecode": "0x608060405234801561001057600080fd5b50600060028190555033600160006101000a81548173ffffffffffffffffffffffffffffffffffffffff021916908373ffffffffffffffffffffffffffffffffffffffff160217905550611ab4806100696000396000f3fe60806040526004361061011f5760003560e01c80638719e8ac116100a0578063ac653b2911610064578063ac653b291461074a578063b765bb4914610775578063dddc484514610855578063e6f633bf1461091b578063fa988d07146109465761011f565b80638719e8ac146104e857806393423e9c14610547578063a22798ce146105ac578063a4ba5d471461061f578063ac60eb381461064a5761011f565b80633b6d15da116100e75780633b6d15da1461035a5780634129b2c91461039c57806344c8da4b146104175780636e9960c3146104665780636f9fb98a146104bd5761011f565b8063076ca4bb1461012457806309882af71461014f5780630aac1158146101d45780633124dc7d146102025780633976ee0e146102ca575b600080fd5b34801561013057600080fd5b50610139610999565b6040518082815260200191505060405180910390f35b34801561015b57600080fd5b506101926004803603604081101561017257600080fd5b8101908080359060200190929190803590602001909291905050506109a5565b604051808273ffffffffffffffffffffffffffffffffffffffff1673ffffffffffffffffffffffffffffffffffffffff16815260200191505060405180910390f35b610200600480360360208110156101ea57600080fd5b81019080803590602001909291905050506109f0565b005b34801561020e57600080fd5b506102c86004803603602081101561022557600080fd5b810190808035906020019064010000000081111561024257600080fd5b82018360208201111561025457600080fd5b8035906020019184600183028401116401000000008311171561027657600080fd5b91908080601f016020809104026020016040519081016040528093929190818152602001838380828437600081840152601f19601f820116905080830192505050505050509192919290505050610e57565b005b3480156102d657600080fd5b50610303600480360360208110156102ed57600080fd5b81019080803590602001909291905050506110b7565b6040518080602001828103825283818151815260200191508051906020019060200280838360005b8381101561034657808201518184015260208101905061032b565b505050509050019250505060405180910390f35b6103866004803603602081101561037057600080fd5b8101908080359060200190929190505050611158565b6040518082815260200191505060405180910390f35b3480156103a857600080fd5b506103d5600480360360208110156103bf57600080fd5b8101908080359060200190929190505050611322565b604051808273ffffffffffffffffffffffffffffffffffffffff1673ffffffffffffffffffffffffffffffffffffffff16815260200191505060405180910390f35b34801561042357600080fd5b506104506004803603602081101561043a57600080fd5b8101908080359060200190929190505050611369565b6040518082815260200191505060405180910390f35b34801561047257600080fd5b5061047b611390565b604051808273ffffffffffffffffffffffffffffffffffffffff1673ffffffffffffffffffffffffffffffffffffffff16815260200191505060405180910390f35b3480156104c957600080fd5b506104d26113ba565b6040518082815260200191505060405180910390f35b3480156104f457600080fd5b5061052d6004803603604081101561050b57600080fd5b81019080803590602001909291908035151590602001909291905050506113d9565b604051808215151515815260200191505060405180910390f35b34801561055357600080fd5b506105966004803603602081101561056a57600080fd5b81019080803573ffffffffffffffffffffffffffffffffffffffff16906020019092919050505061141b565b6040518082815260200191505060405180910390f35b3480156105b857600080fd5b50610605600480360360408110156105cf57600080fd5b8101908080359060200190929190803573ffffffffffffffffffffffffffffffffffffffff16906020019092919050505061143c565b604051808215151515815260200191505060405180910390f35b34801561062b57600080fd5b50610634611501565b6040518082815260200191505060405180910390f35b34801561065657600080fd5b506106836004803603602081101561066d57600080fd5b8101908080359060200190929190505050611507565b6040518086815260200180602001851515151581526020018481526020018373ffffffffffffffffffffffffffffffffffffffff1673ffffffffffffffffffffffffffffffffffffffff168152602001828103825286818151815260200191508051906020019080838360005b8381101561070b5780820151818401526020810190506106f0565b50505050905090810190601f1680156107385780820380516001836020036101000a031916815260200191505b50965050505050505060405180910390f35b34801561075657600080fd5b5061075f61160f565b6040518082815260200191505060405180910390f35b34801561078157600080fd5b5061083b6004803603602081101561079857600080fd5b81019080803590602001906401000000008111156107b557600080fd5b8201836020820111156107c757600080fd5b803590602001918460018302840111640100000000831117156107e957600080fd5b91908080601f016020809104026020016040519081016040528093929190818152602001838380828437600081840152601f19601f820116905080830192505050505050509192919290505050611615565b604051808215151515815260200191505060405180910390f35b34801561086157600080fd5b5061088e6004803603602081101561087857600080fd5b810190808035906020019092919050505061175b565b604051808481526020018060200183151515158152602001828103825284818151815260200191508051906020019080838360005b838110156108de5780820151818401526020810190506108c3565b50505050905090810190601f16801561090b5780820380516001836020036101000a031916815260200191505b5094505050505060405180910390f35b34801561092757600080fd5b50610930611872565b6040518082815260200191505060405180910390f35b34801561095257600080fd5b5061097f6004803603602081101561096957600080fd5b810190808035906020019092919050505061187e565b604051808215151515815260200191505060405180910390f35b60008080549050905090565b600460205281600052604060002081815481106109be57fe5b906000526020600020016000915091509054906101000a900473ffffffffffffffffffffffffffffffffffffffff1681565b600160009054906101000a900473ffffffffffffffffffffffffffffffffffffffff1673ffffffffffffffffffffffffffffffffffffffff163373ffffffffffffffffffffffffffffffffffffffff1614610ab3576040517f08c379a00000000000000000000000000000000000000000000000000000000081526004018080602001828103825260178152602001807f566f7573206e2765746573207061732061646d696e202100000000000000000081525060200191505060405180910390fd5b600160046000838152602001908152602001600020805490501115610e085760006004600083815260200190815260200160002080549050444260046000868152602001908152602001600020604051602001808481526020018381526020018280548015610b7757602002820191906000526020600020905b8160009054906101000a900473ffffffffffffffffffffffffffffffffffffffff1673ffffffffffffffffffffffffffffffffffffffff1681526020019060010190808311610b2d575b505093505050506040516020818303038152906040528051906020012060001c81610b9e57fe5b069050600460008381526020019081526020016000208181548110610bbf57fe5b9060005260206000200160009054906101000a900473ffffffffffffffffffffffffffffffffffffffff1660008381548110610bf757fe5b906000526020600020906005020160040160006101000a81548173ffffffffffffffffffffffffffffffffffffffff021916908373ffffffffffffffffffffffffffffffffffffffff1602179055506064605a60008481548110610c5757fe5b9060005260206000209060050201600301540281610c7157fe5b04600381905550600460008381526020019081526020016000208181548110610c9657fe5b9060005260206000200160009054906101000a900473ffffffffffffffffffffffffffffffffffffffff1673ffffffffffffffffffffffffffffffffffffffff166108fc6003549081150290604051600060405180830381858888f19350505050158015610d08573d6000803e3d6000fd5b503373ffffffffffffffffffffffffffffffffffffffff166108fc6064606260008681548110610d3457fe5b9060005260206000209060050201600301540281610d4e57fe5b049081150290604051600060405180830381858888f19350505050158015610d7a573d6000803e3d6000fd5b506000604051908082528060200260200182016040528015610dab5781602001602082028038833980820191505090505b50600460008481526020019081526020016000209080519060200190610dd29291906118db565b50610dde8260006113d9565b506000808381548110610ded57fe5b90600052602060002090600502016003018190555050610e54565b7f24c93343bea44ff8f0e628ca4e5b87dfe0823d664c887457e166a03798bb191c604051808060200182810382526032815260200180611a4e6032913960400191505060405180910390a15b50565b600160009054906101000a900473ffffffffffffffffffffffffffffffffffffffff1673ffffffffffffffffffffffffffffffffffffffff163373ffffffffffffffffffffffffffffffffffffffff1614610f1a576040517f08c379a00000000000000000000000000000000000000000000000000000000081526004018080602001828103825260178152602001807f566f7573206e2765746573207061732061646d696e202100000000000000000081525060200191505060405180910390fd5b610f2381611615565b15610f96576040517f08c379a00000000000000000000000000000000000000000000000000000000081526004018080602001828103825260148152602001807f4e616d6520616c7265616479207573656420212100000000000000000000000081525060200191505060405180910390fd5b60006040518060a00160405280600254815260200183815260200160011515815260200160008152602001600073ffffffffffffffffffffffffffffffffffffffff168152509080600181540180825580915050906001820390600052602060002090600502016000909192909190915060008201518160000155602082015181600101908051906020019061102d929190611965565b5060408201518160020160006101000a81548160ff0219169083151502179055506060820151816003015560808201518160040160006101000a81548173ffffffffffffffffffffffffffffffffffffffff021916908373ffffffffffffffffffffffffffffffffffffffff16021790555050505060026000815480929190600101919050555050565b60606004600083815260200190815260200160002080548060200260200160405190810160405280929190818152602001828054801561114c57602002820191906000526020600020905b8160009054906101000a900473ffffffffffffffffffffffffffffffffffffffff1673ffffffffffffffffffffffffffffffffffffffff1681526020019060010190808311611102575b50505050509050919050565b60006111638261187e565b156112b057611172823361143c565b61123f57600460008381526020019081526020016000203390806001815401808255809150509060018203906000526020600020016000909192909190916101000a81548173ffffffffffffffffffffffffffffffffffffffff021916908373ffffffffffffffffffffffffffffffffffffffff1602179055505034600083815481106111fb57fe5b9060005260206000209060050201600301600082825401925050819055506000828154811061122657fe5b906000526020600020906005020160030154905061131d565b7f24c93343bea44ff8f0e628ca4e5b87dfe0823d664c887457e166a03798bb191c60405180806020018281038252601e8152602001807f596f7527726520616c72656164792070617274696369706174696e672021000081525060200191505060405180910390a16001905061131d565b7f24c93343bea44ff8f0e628ca4e5b87dfe0823d664c887457e166a03798bb191c60405180806020018281038252601c8152602001807f54686973206c6f7465727920646f65736e27742065786973747320210000000081525060200191505060405180910390a1600290505b919050565b600080828154811061133057fe5b906000526020600020906005020160040160009054906101000a900473ffffffffffffffffffffffffffffffffffffffff169050919050565b600080828154811061137757fe5b9060005260206000209060050201600301549050919050565b6000600160009054906101000a900473ffffffffffffffffffffffffffffffffffffffff16905090565b60003073ffffffffffffffffffffffffffffffffffffffff1631905090565b600081600084815481106113e957fe5b906000526020600020906005020160020160006101000a81548160ff0219169083151502179055506001905092915050565b60008173ffffffffffffffffffffffffffffffffffffffff16319050919050565b600080600090505b60046000858152602001908152602001600020805490508110156114f55760046000858152602001908152602001600020818154811061148057fe5b9060005260206000200160009054906101000a900473ffffffffffffffffffffffffffffffffffffffff1673ffffffffffffffffffffffffffffffffffffffff168373ffffffffffffffffffffffffffffffffffffffff1614156114e85760019150506114fb565b8080600101915050611444565b50600090505b92915050565b60025481565b6000818154811061151457fe5b9060005260206000209060050201600091509050806000015490806001018054600181600116156101000203166002900480601f0160208091040260200160405190810160405280929190818152602001828054600181600116156101000203166002900480156115c65780601f1061159b576101008083540402835291602001916115c6565b820191906000526020600020905b8154815290600101906020018083116115a957829003601f168201915b5050505050908060020160009054906101000a900460ff16908060030154908060040160009054906101000a900473ffffffffffffffffffffffffffffffffffffffff16905085565b60035481565b600080600090505b600080549050811015611750576000818154811061163757fe5b906000526020600020906005020160010160405160200180828054600181600116156101000203166002900480156116a65780601f106116845761010080835404028352918201916116a6565b820191906000526020600020905b815481529060010190602001808311611692575b505091505060405160208183030381529060405280519060200120836040516020018082805190602001908083835b602083106116f857805182526020820191506020810190506020830392506116d5565b6001836020036101000a038019825116818451168082178552505050505050905001915050604051602081830303815290604052805190602001201415611743576001915050611756565b808060010191505061161d565b50600090505b919050565b60006060600080848154811061176d57fe5b9060005260206000209060050201600001546000858154811061178c57fe5b9060005260206000209060050201600101600086815481106117aa57fe5b906000526020600020906005020160020160009054906101000a900460ff16818054600181600116156101000203166002900480601f01602080910402602001604051908101604052809291908181526020018280546001816001161561010002031660029004801561185e5780601f106118335761010080835404028352916020019161185e565b820191906000526020600020905b81548152906001019060200180831161184157829003601f168201915b505050505091509250925092509193909250565b60008080549050905090565b600080600090505b6000805490508110156118d057600081815481106118a057fe5b9060005260206000209060050201600001548314156118c35760019150506118d6565b8080600101915050611886565b50600090505b919050565b828054828255906000526020600020908101928215611954579160200282015b828111156119535782518260006101000a81548173ffffffffffffffffffffffffffffffffffffffff021916908373ffffffffffffffffffffffffffffffffffffffff160217905550916020019190600101906118fb565b5b50905061196191906119e5565b5090565b828054600181600116156101000203166002900490600052602060002090601f016020900481019282601f106119a657805160ff19168380011785556119d4565b828001600101855582156119d4579182015b828111156119d35782518255916020019190600101906119b8565b5b5090506119e19190611a28565b5090565b611a2591905b80821115611a2157600081816101000a81549073ffffffffffffffffffffffffffffffffffffffff0219169055506001016119eb565b5090565b90565b611a4a91905b80821115611a46576000816000905550600101611a2e565b5090565b9056fe43616e2774207069636b20612077696e6e657220626563617573652074686572652773206f6e6c79203120706c6179657221a265627a7a7231582085ad1b69058898a55813167caa7f83071470d38178e8fab247828cac67fbd34b64736f6c63430005100032",
  "source": "pragma solidity >=0.5.0 <0.8.0;\r\n\r\ncontract Lotery {\r\n    \r\n    //lotery structure\r\n    struct FDJ_Lotery {\r\n        uint256 id;\r\n        string name;\r\n        bool status;\r\n        uint256 gain;\r\n        address winner;\r\n    }\r\n\r\n    //mapping(uint => FDJ_Lotery)public Loteries;\r\n    \r\n    FDJ_Lotery[] public Loteries;\r\n\r\n    address payable admin;\r\n    uint256 public idLotery;\r\n    uint256 public gains;\r\n\r\n    mapping(uint256 => address payable[]) public participantIdLotery;\r\n    \r\n    constructor () public {\r\n        idLotery = 0;\r\n        admin = msg.sender;\r\n    }\r\n    event error(string _error);\r\n\r\n    function participateToLotery(uint256 idLot) public payable returns(uint256) {\r\n        //require(msg.value > 0.00002 ether, \"Mise minimum non respestee!\");\r\n        //require(existingLoteryById(idLot),\"La loterie n'existe pas bg\");\r\n        //require(!existingPlayerInLotery(idLot, msg.sender), \"Tu participes deja enfoireuh\");\r\n\r\n        if(existingLoteryById(idLot)){\r\n            if(!existingPlayerInLotery(idLot, msg.sender)){\r\n                participantIdLotery[idLot].push(msg.sender);\r\n                Loteries[idLot].gain += msg.value;\r\n\r\n                // address(this) = address contrat - on convertit l'address en address payable pour qu'elle puisse recevoir des ETHs\r\n               // address payable tmp = address(uint160(address(this)));\r\n               // tmp.transfer(msg.value);\r\n                return Loteries[idLot].gain;\r\n            }else{\r\n                emit error(\"You're already participating !\");\r\n                return 1;\r\n            }\r\n        }else{\r\n            emit error(\"This lotery doesn't exists !\");\r\n            return 2;\r\n        }\r\n        \r\n    }\r\n\r\n    function listParticipantsForLot(uint256 idLot) public view returns (address payable[] memory){\r\n        return participantIdLotery[idLot];\r\n    }\r\n    \r\n    function existingPlayerInLotery(uint256 _id, address _a) public view returns(bool){\r\n        for(uint i = 0; i < participantIdLotery[_id].length; i++){\r\n            if(_a == participantIdLotery[_id][i]){\r\n                return true;\r\n            }\r\n        }\r\n        return false;\r\n    }\r\n    \r\n    function existingLoteryByName(string memory _name) public view returns(bool){\r\n        for(uint i = 0; i < Loteries.length; i++){\r\n            if(keccak256(abi.encodePacked(_name)) == keccak256(abi.encodePacked(Loteries[i].name))){\r\n                return true;\r\n            }\r\n        }\r\n        return false;\r\n    }\r\n    \r\n    function existingLoteryById(uint256 _id) public view returns(bool){\r\n        for(uint i = 0; i < Loteries.length; i++){\r\n            if(_id == Loteries[i].id){\r\n                return true;\r\n            }\r\n        }\r\n        return false;\r\n    }\r\n    \r\n    function addLotery(string memory _name) public restricted{\r\n        require(!existingLoteryByName(_name), \"Name already used !!\");\r\n        Loteries.push(FDJ_Lotery(idLotery, _name, true, 0, address(0)));\r\n        idLotery ++;\r\n    }\r\n    \r\n    function getWinner(uint256 _idLot)public view returns(address){\r\n        return Loteries[_idLot].winner;\r\n    }\r\n\r\n    function getLoteryLenght() public view returns (uint256){\r\n        return Loteries.length;\r\n    }\r\n    \r\n    function listLoteries(uint256 _id) public view returns (uint256, string memory, bool){\r\n        return (Loteries[_id].id, Loteries[_id].name, Loteries[_id].status);\r\n    }\r\n\r\n    function pickWinnerForLotery(uint256 idLot) public payable restricted{\r\n\r\n        if(participantIdLotery[idLot].length > 1){\r\n            uint256 winner = (uint256(keccak256(abi.encodePacked(block.difficulty, block.timestamp, participantIdLotery[idLot])))) % participantIdLotery[idLot].length;\r\n            Loteries[idLot].winner = participantIdLotery[idLot][winner];\r\n            gains = uint256(Loteries[idLot].gain)* uint256(90)/uint256(100);\r\n            participantIdLotery[idLot][winner].transfer(gains);\r\n            msg.sender.transfer(Loteries[idLot].gain * uint256(98)/uint256(100));\r\n            participantIdLotery[idLot] = new address payable[](0);\r\n            setStatus(idLot, false);\r\n            Loteries[idLot].gain = 0;\r\n        }else{\r\n            emit error(\"Can't pick a winner because there's only 1 player!\");\r\n        }\r\n       // require(participantIdLotery[idLot].length > 1, \"Minimum 2 joueurs\");\r\n    }\r\n    \r\n    function getContractBalance() public view returns(uint256){\r\n        return address(this).balance;\r\n    }\r\n\r\n    function getAccountBalance(address _account) public view returns(uint256){\r\n        return _account.balance;\r\n    }\r\n\r\n    function getLoteryGain(uint256 _idLot) public view returns(uint256){\r\n        return Loteries[_idLot].gain;\r\n    }\r\n\r\n    function getAdmin() public view returns(address){\r\n        return admin;\r\n    }\r\n\r\n    modifier restricted(){\r\n        require(msg.sender == admin, \"Vous n'etes pas admin !\");\r\n        _;\r\n    }\r\n\r\n    function getLoteriesCount() public view returns(uint) {\r\n        return Loteries.length;\r\n    }\r\n\r\n    function setStatus(uint256 id, bool isUp) public returns (bool){\r\n        Loteries[id].status = isUp;\r\n        return true;\r\n    }\r\n    \r\n}",
  "sourcePath": "/home/osboxes/Documents/GitHub/FDJ-ESGI/contracts/Lotery.sol",
  "compiler": {
    "name": "solc",
    "version": "0.5.16+commit.9c3226ce.Emscripten.clang"
  },
  "schemaVersion": "3.3.2",
  "updatedAt": "2021-02-06T16:41:50.444Z",
  "networkType": "ethereum",
  "devdoc": {
    "methods": {}
  },
  "userdoc": {
    "methods": {}
  }
}