{
  "contractName": "Main",
  "abi": [
    {
      "inputs": [
        {
          "internalType": "contract Lotery",
          "name": "_loteryContract",
          "type": "address"
        }
      ],
      "payable": false,
      "stateMutability": "nonpayable",
      "type": "constructor"
    },
    {
      "anonymous": false,
      "inputs": [
        {
          "indexed": false,
          "internalType": "bytes32",
          "name": "_hashedContent",
          "type": "bytes32"
        }
      ],
      "name": "subscribeUser",
      "type": "event"
    },
    {
      "constant": true,
      "inputs": [],
      "name": "hashedContent",
      "outputs": [
        {
          "internalType": "bytes32",
          "name": "",
          "type": "bytes32"
        }
      ],
      "payable": false,
      "stateMutability": "view",
      "type": "function"
    },
    {
      "constant": true,
      "inputs": [],
      "name": "loteryContract",
      "outputs": [
        {
          "internalType": "contract Lotery",
          "name": "",
          "type": "address"
        }
      ],
      "payable": false,
      "stateMutability": "view",
      "type": "function"
    },
    {
      "constant": true,
      "inputs": [
        {
          "internalType": "address",
          "name": "",
          "type": "address"
        }
      ],
      "name": "subscribedUserAddress",
      "outputs": [
        {
          "internalType": "bool",
          "name": "",
          "type": "bool"
        }
      ],
      "payable": false,
      "stateMutability": "view",
      "type": "function"
    },
    {
      "constant": true,
      "inputs": [
        {
          "internalType": "uint256",
          "name": "",
          "type": "uint256"
        }
      ],
      "name": "subscribedUserId",
      "outputs": [
        {
          "internalType": "bool",
          "name": "",
          "type": "bool"
        }
      ],
      "payable": false,
      "stateMutability": "view",
      "type": "function"
    },
    {
      "constant": true,
      "inputs": [
        {
          "internalType": "string",
          "name": "",
          "type": "string"
        }
      ],
      "name": "subscribedUserName",
      "outputs": [
        {
          "internalType": "bool",
          "name": "",
          "type": "bool"
        }
      ],
      "payable": false,
      "stateMutability": "view",
      "type": "function"
    },
    {
      "constant": true,
      "inputs": [
        {
          "internalType": "uint256",
          "name": "",
          "type": "uint256"
        }
      ],
      "name": "users",
      "outputs": [
        {
          "internalType": "uint256",
          "name": "id",
          "type": "uint256"
        },
        {
          "internalType": "string",
          "name": "username",
          "type": "string"
        },
        {
          "internalType": "string",
          "name": "status",
          "type": "string"
        },
        {
          "internalType": "address",
          "name": "addrUsr",
          "type": "address"
        },
        {
          "internalType": "uint256",
          "name": "money",
          "type": "uint256"
        }
      ],
      "payable": false,
      "stateMutability": "view",
      "type": "function"
    },
    {
      "constant": true,
      "inputs": [],
      "name": "usersCount",
      "outputs": [
        {
          "internalType": "uint256",
          "name": "",
          "type": "uint256"
        }
      ],
      "payable": false,
      "stateMutability": "view",
      "type": "function"
    },
    {
      "constant": true,
      "inputs": [],
      "name": "getCounter",
      "outputs": [
        {
          "internalType": "uint256",
          "name": "",
          "type": "uint256"
        }
      ],
      "payable": false,
      "stateMutability": "view",
      "type": "function"
    },
    {
      "constant": true,
      "inputs": [
        {
          "internalType": "uint256",
          "name": "_idUser",
          "type": "uint256"
        }
      ],
      "name": "getMoney",
      "outputs": [
        {
          "internalType": "uint256",
          "name": "",
          "type": "uint256"
        }
      ],
      "payable": false,
      "stateMutability": "view",
      "type": "function"
    },
    {
      "constant": false,
      "inputs": [
        {
          "internalType": "uint256",
          "name": "_userId",
          "type": "uint256"
        },
        {
          "internalType": "string",
          "name": "_username",
          "type": "string"
        },
        {
          "internalType": "string",
          "name": "_status",
          "type": "string"
        },
        {
          "internalType": "address",
          "name": "_addrUsr",
          "type": "address"
        },
        {
          "internalType": "uint256",
          "name": "_money",
          "type": "uint256"
        }
      ],
      "name": "subUser",
      "outputs": [],
      "payable": false,
      "stateMutability": "nonpayable",
      "type": "function"
    }
  ],
  "bytecode": "0x608060405234801561001057600080fd5b5060405161108c38038061108c8339818101604052602081101561003357600080fd5b810190808051906020019092919050505080600760006101000a81548173ffffffffffffffffffffffffffffffffffffffff021916908373ffffffffffffffffffffffffffffffffffffffff160217905550600060048190555033600660006101000a81548173ffffffffffffffffffffffffffffffffffffffff021916908373ffffffffffffffffffffffffffffffffffffffff16021790555050610fae806100de6000396000f3fe608060405234801561001057600080fd5b506004361061009e5760003560e01c80637f0383dd116100665780637f0383dd146103705780638ada066e146103cc578063a2a53e40146103ea578063aa79c23a14610408578063aaadc661146104525761009e565b80633262fd9a146100a3578063365b98b2146100e55780634bdbc46a146102395780636ba13a821461030c5780636df3a5631461032a575b600080fd5b6100cf600480360360208110156100b957600080fd5b81019080803590602001909291905050506105d8565b6040518082815260200191505060405180910390f35b610111600480360360208110156100fb57600080fd5b81019080803590602001909291905050506105f8565b6040518086815260200180602001806020018573ffffffffffffffffffffffffffffffffffffffff1673ffffffffffffffffffffffffffffffffffffffff168152602001848152602001838103835287818151815260200191508051906020019080838360005b83811015610193578082015181840152602081019050610178565b50505050905090810190601f1680156101c05780820380516001836020036101000a031916815260200191505b50838103825286818151815260200191508051906020019080838360005b838110156101f95780820151818401526020810190506101de565b50505050905090810190601f1680156102265780820380516001836020036101000a031916815260200191505b5097505050505050505060405180910390f35b6102f26004803603602081101561024f57600080fd5b810190808035906020019064010000000081111561026c57600080fd5b82018360208201111561027e57600080fd5b803590602001918460018302840111640100000000831117156102a057600080fd5b91908080601f016020809104026020016040519081016040528093929190818152602001838380828437600081840152601f19601f82011690508083019250505050505050919291929050505061077e565b604051808215151515815260200191505060405180910390f35b6103146107b4565b6040518082815260200191505060405180910390f35b6103566004803603602081101561034057600080fd5b81019080803590602001909291905050506107ba565b604051808215151515815260200191505060405180910390f35b6103b26004803603602081101561038657600080fd5b81019080803573ffffffffffffffffffffffffffffffffffffffff1690602001909291905050506107da565b604051808215151515815260200191505060405180910390f35b6103d46107fa565b6040518082815260200191505060405180910390f35b6103f2610804565b6040518082815260200191505060405180910390f35b61041061080a565b604051808273ffffffffffffffffffffffffffffffffffffffff1673ffffffffffffffffffffffffffffffffffffffff16815260200191505060405180910390f35b6105d6600480360360a081101561046857600080fd5b81019080803590602001909291908035906020019064010000000081111561048f57600080fd5b8201836020820111156104a157600080fd5b803590602001918460018302840111640100000000831117156104c357600080fd5b91908080601f016020809104026020016040519081016040528093929190818152602001838380828437600081840152601f19601f8201169050808301925050505050505091929192908035906020019064010000000081111561052657600080fd5b82018360208201111561053857600080fd5b8035906020019184600183028401116401000000008311171561055a57600080fd5b91908080601f016020809104026020016040519081016040528093929190818152602001838380828437600081840152601f19601f820116905080830192505050505050509192919290803573ffffffffffffffffffffffffffffffffffffffff16906020019092919080359060200190929190505050610830565b005b600060036000838152602001908152602001600020600401549050919050565b6003602052806000526040600020600091509050806000015490806001018054600181600116156101000203166002900480601f0160208091040260200160405190810160405280929190818152602001828054600181600116156101000203166002900480156106aa5780601f1061067f576101008083540402835291602001916106aa565b820191906000526020600020905b81548152906001019060200180831161068d57829003601f168201915b505050505090806002018054600181600116156101000203166002900480601f0160208091040260200160405190810160405280929190818152602001828054600181600116156101000203166002900480156107485780601f1061071d57610100808354040283529160200191610748565b820191906000526020600020905b81548152906001019060200180831161072b57829003601f168201915b5050505050908060030160009054906101000a900473ffffffffffffffffffffffffffffffffffffffff16908060040154905085565b6001818051602081018201805184825260208301602085012081835280955050505050506000915054906101000a900460ff1681565b60045481565b60006020528060005260406000206000915054906101000a900460ff1681565b60026020528060005260406000206000915054906101000a900460ff1681565b6000600454905090565b60055481565b600760009054906101000a900473ffffffffffffffffffffffffffffffffffffffff1681565b60008086815260200190815260200160002060009054906101000a900460ff16156108c3576040517f08c379a00000000000000000000000000000000000000000000000000000000081526004018080602001828103825260198152602001807f5468697320696420697320616c7265616479207573656420210000000000000081525060200191505060405180910390fd5b600260008373ffffffffffffffffffffffffffffffffffffffff1673ffffffffffffffffffffffffffffffffffffffff16815260200190815260200160002060009054906101000a900460ff1615610983576040517f08c379a000000000000000000000000000000000000000000000000000000000815260040180806020018281038252601e8152602001807f54686973206164647265737320697320616c726561647920757365642021000081525060200191505060405180910390fd5b6001846040518082805190602001908083835b602083106109b95780518252602082019150602081019050602083039250610996565b6001836020036101000a038019825116818451168082178552505050505050905001915050908152602001604051809103902060009054906101000a900460ff1615610a6d576040517f08c379a000000000000000000000000000000000000000000000000000000000815260040180806020018281038252601f8152602001807f5468697320757365726e616d6520697320616c7265616479207573656420210081525060200191505060405180910390fd5b60648111610ac6576040517f08c379a0000000000000000000000000000000000000000000000000000000008152600401808060200182810382526024815260200180610f566024913960400191505060405180910390fd5b6040518060a0016040528060045481526020018581526020018481526020018373ffffffffffffffffffffffffffffffffffffffff16815260200182815250600360006004548152602001908152602001600020600082015181600001556020820151816001019080519060200190610b40929190610eb0565b506040820151816002019080519060200190610b5d929190610eb0565b5060608201518160030160006101000a81548173ffffffffffffffffffffffffffffffffffffffff021916908373ffffffffffffffffffffffffffffffffffffffff16021790555060808201518160040155905050600460008154809291906001019190505550600160008087815260200190815260200160002060006101000a81548160ff0219169083151502179055506001600260008473ffffffffffffffffffffffffffffffffffffffff1673ffffffffffffffffffffffffffffffffffffffff16815260200190815260200160002060006101000a81548160ff021916908315150217905550600180856040518082805190602001908083835b60208310610c7e5780518252602082019150602081019050602083039250610c5b565b6001836020036101000a038019825116818451168082178552505050505050905001915050908152602001604051809103902060006101000a81548160ff021916908315150217905550600285858585856040516020018086815260200185805190602001908083835b60208310610d0b5780518252602082019150602081019050602083039250610ce8565b6001836020036101000a03801982511681845116808217855250505050505090500184805190602001908083835b60208310610d5c5780518252602082019150602081019050602083039250610d39565b6001836020036101000a0380198251168184511680821785525050505050509050018373ffffffffffffffffffffffffffffffffffffffff1673ffffffffffffffffffffffffffffffffffffffff1660601b8152601401828152602001955050505050506040516020818303038152906040526040518082805190602001908083835b60208310610e025780518252602082019150602081019050602083039250610ddf565b6001836020036101000a038019825116818451168082178552505050505050905001915050602060405180830381855afa158015610e44573d6000803e3d6000fd5b5050506040513d6020811015610e5957600080fd5b81019080805190602001909291905050506005819055507f936c32bbfe1b603062fb28cceeb6a0f95e7ff806af14dc5f469222f06882a6f46005546040518082815260200191505060405180910390a15050505050565b828054600181600116156101000203166002900490600052602060002090601f016020900481019282601f10610ef157805160ff1916838001178555610f1f565b82800160010185558215610f1f579182015b82811115610f1e578251825591602001919060010190610f03565b5b509050610f2c9190610f30565b5090565b610f5291905b80821115610f4e576000816000905550600101610f36565b5090565b9056fe596f75206e656564206174206c656173742031303020746f207375627363726962652021a265627a7a723158200561348e1960e4b9432455c9cdf821fc327b16bdb075ed9135ed416040aadda964736f6c63430005100032",
  "source": "pragma solidity >=0.5.0 <0.8.0;\n\nimport \"./Lotery.sol\";\n\ncontract Main {\n    //player structure\n    struct User {\n        uint id;\n        string username;\n        string status;\n        address addrUsr;\n        uint money;\n    }\n    //store user that have signed\n    mapping(uint => bool)public subscribedUserId;   \n    //store user names that have signed\n    mapping(string => bool)public subscribedUserName;   \n    //store user adresses that have signed\n    mapping(address => bool)public subscribedUserAddress;\n    //store users\n    mapping(uint => User)public users;\n    //store candidate count\n    uint public usersCount;\n    //store hashed content\n    bytes32 public hashedContent;\n    address payable admin;\n\n/////////////////// VARIABLES IMPORTEES DE LOTERIE.SOL ///////////////////////////\n\n/*\n    \n    struct FDJ_Lotery {\n        uint256 id;\n        string name;\n    }\n\n    //mapping(uint => FDJ_Lotery)public Loteries;\n    \n    FDJ_Lotery[] public Loteries;\n\n    uint256 public idLotery;\n    uint256 private gains;\n\n    mapping(uint256 => address payable[]) public participantIdLotery;\n    mapping(uint256 => uint256) public LoteryGain;\n*/\n\n    Lotery public loteryContract;\n\n     constructor (Lotery _loteryContract) public {\n         loteryContract = _loteryContract;\n         usersCount = 0;\n         admin = msg.sender;\n    }\n\n    //voted event\n    event subscribeUser (bytes32 _hashedContent);\n    \n    function getCounter() public view returns (uint) {\n        return usersCount; \n    }\n    \n    function getMoney(uint _idUser) public view returns (uint256) {\n        return users[_idUser].money;\n    }\n\n    function subUser (uint _userId, string memory _username, string memory _status, address _addrUsr, uint _money) public {\n        //require the user is not approved.\n        require(!subscribedUserId[_userId], \"This id is already used !\");\n        //require the user with this address is not approved.\n        require(!subscribedUserAddress[_addrUsr], \"This address is already used !\");        \n        //require the user with this username is not approved.\n        require(!subscribedUserName[_username], \"This username is already used !\");        \n        //require the user with this username is not approved.\n        require(_money > 100 , \"You need at least 100 to subscribe !\");\n        //Add user\n        users[usersCount] = User(usersCount, _username, _status, _addrUsr, _money);\n        usersCount ++;\n        //record the user id has been registred\n        subscribedUserId[_userId] = true;   \n        //record the user address has been registred\n        subscribedUserAddress[_addrUsr] = true;  \n        //record the user username has been registred\n        subscribedUserName[_username] = true;\n        hashedContent = sha256(abi.encodePacked(_userId, _username, _status, _addrUsr, _money));\n        //trigger subscribeUser event\n        emit subscribeUser(hashedContent);\n    }\n}",
  "sourcePath": "/home/osboxes/Documents/GitHub/FDJ-ESGI/contracts/Main.sol",
  "compiler": {
    "name": "solc",
    "version": "0.5.16+commit.9c3226ce.Emscripten.clang"
  },
  "schemaVersion": "3.3.2",
  "updatedAt": "2021-01-13T17:59:00.463Z",
  "networkType": "ethereum",
  "devdoc": {
    "methods": {}
  },
  "userdoc": {
    "methods": {}
  }
}